{
  "contractName": "Factory",
  "abi": [
    {
      "inputs": [],
      "stateMutability": "nonpayable",
      "type": "constructor"
    },
    {
      "anonymous": false,
      "inputs": [
        {
          "indexed": true,
          "internalType": "address",
          "name": "caller",
          "type": "address"
        },
        {
          "indexed": true,
          "internalType": "address",
          "name": "pool",
          "type": "address"
        }
      ],
      "name": "LOG_NEW_POOL",
      "type": "event"
    },
    {
      "anonymous": false,
      "inputs": [
        {
          "indexed": true,
          "internalType": "address",
          "name": "from",
          "type": "address"
        },
        {
          "indexed": true,
          "internalType": "address",
          "name": "to",
          "type": "address"
        }
      ],
      "name": "LOG_NEW_SWAAPLABS",
      "type": "event"
    },
    {
      "anonymous": false,
      "inputs": [
        {
          "indexed": true,
          "internalType": "address",
          "name": "from",
          "type": "address"
        },
        {
          "indexed": true,
          "internalType": "address",
          "name": "to",
          "type": "address"
        }
      ],
      "name": "LOG_TRANSFER_REQUESTED",
      "type": "event"
    },
    {
      "inputs": [],
      "name": "newPool",
      "outputs": [
        {
          "internalType": "address",
          "name": "",
          "type": "address"
        }
      ],
      "stateMutability": "nonpayable",
      "type": "function"
    },
    {
      "inputs": [
        {
          "internalType": "address",
          "name": "b",
          "type": "address"
        }
      ],
      "name": "isPool",
      "outputs": [
        {
          "internalType": "bool",
          "name": "",
          "type": "bool"
        }
      ],
      "stateMutability": "view",
      "type": "function"
    },
    {
      "inputs": [],
      "name": "getSwaapLabs",
      "outputs": [
        {
          "internalType": "address",
          "name": "",
          "type": "address"
        }
      ],
      "stateMutability": "view",
      "type": "function"
    },
    {
      "inputs": [
        {
          "internalType": "address",
          "name": "_to",
          "type": "address"
        }
      ],
      "name": "transferOwnership",
      "outputs": [],
      "stateMutability": "nonpayable",
      "type": "function"
    },
    {
      "inputs": [],
      "name": "acceptOwnership",
      "outputs": [],
      "stateMutability": "nonpayable",
      "type": "function"
    },
    {
      "inputs": [
        {
          "internalType": "address",
          "name": "erc20",
          "type": "address"
        }
      ],
      "name": "collect",
      "outputs": [],
      "stateMutability": "nonpayable",
      "type": "function"
    },
    {
      "inputs": [],
      "name": "pauseProtocol",
      "outputs": [],
      "stateMutability": "nonpayable",
      "type": "function"
    },
    {
      "inputs": [],
      "name": "resumeProtocol",
      "outputs": [],
      "stateMutability": "nonpayable",
      "type": "function"
    },
    {
      "inputs": [],
      "name": "whenNotPaused",
      "outputs": [],
      "stateMutability": "view",
      "type": "function"
    },
    {
      "inputs": [
        {
          "internalType": "address",
          "name": "pool",
          "type": "address"
        }
      ],
      "name": "revokePoolFactoryControl",
      "outputs": [],
      "stateMutability": "nonpayable",
      "type": "function"
    },
    {
      "inputs": [
        {
          "internalType": "address",
          "name": "pool",
          "type": "address"
        },
        {
          "internalType": "uint256",
          "name": "swapFee",
          "type": "uint256"
        }
      ],
      "name": "setPoolSwapFee",
      "outputs": [],
      "stateMutability": "nonpayable",
      "type": "function"
    },
    {
      "inputs": [
        {
          "internalType": "address",
          "name": "pool",
          "type": "address"
        },
        {
          "internalType": "uint64",
          "name": "dynamicCoverageFeesZ",
          "type": "uint64"
        }
      ],
      "name": "setPoolDynamicCoverageFeesZ",
      "outputs": [],
      "stateMutability": "nonpayable",
      "type": "function"
    },
    {
      "inputs": [
        {
          "internalType": "address",
          "name": "pool",
          "type": "address"
        },
        {
          "internalType": "uint256",
          "name": "dynamicCoverageFeesHorizon",
          "type": "uint256"
        }
      ],
      "name": "setPoolDynamicCoverageFeesHorizon",
      "outputs": [],
      "stateMutability": "nonpayable",
      "type": "function"
    },
    {
      "inputs": [
        {
          "internalType": "address",
          "name": "pool",
          "type": "address"
        },
        {
          "internalType": "uint8",
          "name": "priceStatisticsLookbackInRound",
          "type": "uint8"
        }
      ],
      "name": "setPoolPriceStatisticsLookbackInRound",
      "outputs": [],
      "stateMutability": "nonpayable",
      "type": "function"
    },
    {
      "inputs": [
        {
          "internalType": "address",
          "name": "pool",
          "type": "address"
        },
        {
          "internalType": "uint64",
          "name": "priceStatisticsLookbackInSec",
          "type": "uint64"
        }
      ],
      "name": "setPoolPriceStatisticsLookbackInSec",
      "outputs": [],
      "stateMutability": "nonpayable",
      "type": "function"
    },
    {
      "inputs": [
        {
          "internalType": "address",
          "name": "pool",
          "type": "address"
        },
        {
          "internalType": "uint8",
          "name": "priceStatisticsLookbackStepInRound",
          "type": "uint8"
        }
      ],
      "name": "setPoolPriceStatisticsLookbackStepInRound",
      "outputs": [],
      "stateMutability": "nonpayable",
      "type": "function"
    },
    {
      "inputs": [
        {
          "internalType": "address",
          "name": "pool",
          "type": "address"
        },
        {
          "internalType": "uint256",
          "name": "maxPriceUnpegRatio",
          "type": "uint256"
        }
      ],
      "name": "setPoolMaxPriceUnpegRatio",
      "outputs": [],
      "stateMutability": "nonpayable",
      "type": "function"
    }
  ],
  "bytecode": "0x60a060405234801561001057600080fd5b50600280546001600160a01b03191633179055610030624f1a0042610041565b6001600160401b031660805261007a565b60006001600160401b0382811684821680830382111561007157634e487b7160e01b600052601160045260246000fd5b01949350505050565b608051615f4761009c600039600081816104cf015261082e0152615f476000f3fe60806040523480156200001157600080fd5b5060043610620000ff5760003560e01c806374d0e98a116200009e57806374d0e98a14620001d857806379ba509714620001ef578063a445287614620001f9578063af1224f01462000210578063bde9e3221462000222578063d4122abd1462000239578063dbf624891462000250578063f2fde38b146200025a578063f7f16d72146200027157600080fd5b806306ec16f814620001045780630bb3fcf1146200011d5780630f11779b146200013457806325c6bdfd14620001565780633bdb7010146200016057806351089f1614620001775780635b16ebb7146200018e5780635c2dc4f014620001ce575b600080fd5b6200011b6200011536600462000c99565b62000288565b005b6200011b6200012e36600462000cb7565b62000323565b6200013e620003bc565b6040516200014d919062000cf8565b60405180910390f35b6200011b620004bf565b6200011b6200017136600462000d0c565b62000511565b6200011b6200018836600462000c99565b62000574565b620001bd6200019f36600462000c99565b6001600160a01b031660009081526020819052604090205460ff1690565b60405190151581526020016200014d565b6200011b62000602565b6200011b620001e936600462000cb7565b6200061f565b6200011b62000683565b6200011b6200020a36600462000d39565b620006f9565b6002546001600160a01b03166200013e565b6200011b6200023336600462000d39565b62000765565b6200011b6200024a36600462000d0c565b620007d1565b6200011b6200081e565b6200011b6200026b36600462000c99565b62000876565b6200011b6200028236600462000d0c565b620008cc565b620002926200092f565b6040516370a0823160e01b81526000906001600160a01b038316906370a0823190620002c390309060040162000cf8565b602060405180830381865afa158015620002e1573d6000803e3d6000fd5b505050506040513d601f19601f8201168201806040525081019062000307919062000d76565b90506200031f6001600160a01b03831633836200094a565b5050565b6200032d6200092f565b6001600160a01b0382166000908152602081905260409020548290620003589060ff166011620009a3565b6040516301e619cb60e51b815260ff831660048201526001600160a01b03841690633cc33960906024015b600060405180830381600087803b1580156200039e57600080fd5b505af1158015620003b3573d6000803e3d6000fd5b50505050505050565b600254600090620003da90600160a01b900460ff16156024620009a3565b6000604051620003ea9062000c6e565b604051809103906000f08015801562000407573d6000803e3d6000fd5b506001600160a01b038116600081815260208190526040808220805460ff1916600117905551929350909133917f8ccec77b0cb63ac2cafd0f5de8cdfadab91ce656d262240ba8a6343bccc5f94591a36040516329dcbe5f60e01b81526001600160a01b038216906329dcbe5f906200048590339060040162000cf8565b600060405180830381600087803b158015620004a057600080fd5b505af1158015620004b5573d6000803e3d6000fd5b5092949350505050565b620004c96200092f565b620005027f000000000000000000000000000000000000000000000000000000000000000067ffffffffffffffff164210602d620009a3565b6002805460ff60a01b19169055565b6200051b6200092f565b6001600160a01b0382166000908152602081905260409020548290620005469060ff166011620009a3565b60405163acb21b3160e01b8152600481018390526001600160a01b0384169063acb21b319060240162000383565b6200057e6200092f565b6001600160a01b0381166000908152602081905260409020548190620005a99060ff166011620009a3565b816001600160a01b0316637104e93e6040518163ffffffff1660e01b8152600401600060405180830381600087803b158015620005e557600080fd5b505af1158015620005fa573d6000803e3d6000fd5b505050505050565b6002546200061d90600160a01b900460ff16156024620009a3565b565b620006296200092f565b6001600160a01b0382166000908152602081905260409020548290620006549060ff166011620009a3565b6040516222edd760e51b815260ff831660048201526001600160a01b0384169063045dbae09060240162000383565b6001546200069e906001600160a01b031633146014620009a3565b600280546001600160a01b0319808216339081179093556001805490911690556040516001600160a01b03909116919082907fb71aa4aa3670aacb42b0301b8a96f5358e0558282008c187078e90da32efa57390600090a350565b620007036200092f565b6001600160a01b03821660009081526020819052604090205482906200072e9060ff166011620009a3565b604051633c515d9960e01b815267ffffffffffffffff831660048201526001600160a01b03841690633c515d999060240162000383565b6200076f6200092f565b6001600160a01b03821660009081526020819052604090205482906200079a9060ff166011620009a3565b6040516314e38a1760e21b815267ffffffffffffffff831660048201526001600160a01b0384169063538e285c9060240162000383565b620007db6200092f565b6040516334e1990760e01b8152600481018290526001600160a01b038316906334e1990790602401600060405180830381600087803b158015620005e557600080fd5b620008286200092f565b620008617f000000000000000000000000000000000000000000000000000000000000000067ffffffffffffffff164210602d620009a3565b6002805460ff60a01b1916600160a01b179055565b620008806200092f565b600180546001600160a01b0319166001600160a01b03831690811790915560405133907f5c1a93490d96bd82224bd015d0d93a0afbee6335c30aad9135cedc53d6be620c90600090a350565b620008d66200092f565b6001600160a01b0382166000908152602081905260409020548290620009019060ff166011620009a3565b60405163314d204f60e01b8152600481018390526001600160a01b0384169063314d204f9060240162000383565b6002546200061d906001600160a01b031633146022620009a3565b604080516001600160a01b038416602482015260448082018490528251808303909101815260649091019091526020810180516001600160e01b031663a9059cbb60e01b1790526200099e908490620009b4565b505050565b816200031f576200031f8162000a91565b600062000a0b826040518060400160405280602081526020017f5361666545524332303a206c6f772d6c6576656c2063616c6c206661696c6564815250856001600160a01b031662000ada9092919063ffffffff16565b8051909150156200099e578080602001905181019062000a2c919062000d90565b6200099e5760405162461bcd60e51b815260206004820152602a60248201527f5361666545524332303a204552433230206f7065726174696f6e20646964206e6044820152691bdd081cdd58d8d9595960b21b60648201526084015b60405180910390fd5b6030600a820601600a820491506030600a8306018060081b82016753574141502300000160c01b91505062461bcd60e51b60005260206004526008602452806044525060646000fd5b606062000aeb848460008562000af5565b90505b9392505050565b60608247101562000b585760405162461bcd60e51b815260206004820152602660248201527f416464726573733a20696e73756666696369656e742062616c616e636520666f6044820152651c8818d85b1b60d21b606482015260840162000a88565b6001600160a01b0385163b62000bb15760405162461bcd60e51b815260206004820152601d60248201527f416464726573733a2063616c6c20746f206e6f6e2d636f6e7472616374000000604482015260640162000a88565b600080866001600160a01b0316858760405162000bcf919062000de7565b60006040518083038185875af1925050503d806000811462000c0e576040519150601f19603f3d011682016040523d82523d6000602084013e62000c13565b606091505b509150915062000c2582828662000c30565b979650505050505050565b6060831562000c4157508162000aee565b82511562000c525782518084602001fd5b8160405162461bcd60e51b815260040162000a88919062000e05565b6150d78062000e3b83390190565b80356001600160a01b038116811462000c9457600080fd5b919050565b60006020828403121562000cac57600080fd5b62000aee8262000c7c565b6000806040838503121562000ccb57600080fd5b62000cd68362000c7c565b9150602083013560ff8116811462000ced57600080fd5b809150509250929050565b6001600160a01b0391909116815260200190565b6000806040838503121562000d2057600080fd5b62000d2b8362000c7c565b946020939093013593505050565b6000806040838503121562000d4d57600080fd5b62000d588362000c7c565b9150602083013567ffffffffffffffff8116811462000ced57600080fd5b60006020828403121562000d8957600080fd5b5051919050565b60006020828403121562000da357600080fd5b8151801515811462000aee57600080fd5b60005b8381101562000dd157818101518382015260200162000db7565b8381111562000de1576000848401525b50505050565b6000825162000dfb81846020870162000db4565b9190910192915050565b602081526000825180602084015262000e2681604085016020870162000db4565b601f01601f1916919091016040019291505056fe60a06040523480156200001157600080fd5b50600a8054600160501b600160f01b031916336a010000000000000000000081029190911790915560805262000053620f4240670de0b6b3a764000062000115565b6009556005805461ffff60201b19166504050000000017905562000081670de0b6b3a7640000600662000138565b600580546001600160401b0392909216660100000000000002600160301b600160701b0319909216919091178155620000c490670de0b6b3a76400009062000138565b600655610e10600755620000e26028670de0b6b3a764000062000115565b620000f690670de0b6b3a76400006200015a565b60085562000175565b634e487b7160e01b600052601160045260246000fd5b6000826200013357634e487b7160e01b600052601260045260246000fd5b500490565b6000816000190483118215151615620001555762000155620000ff565b500290565b60008219821115620001705762000170620000ff565b500190565b608051614f15620001c260003960008181611205015281816119f501528181611b0d01528181611c4001528181612130015281816126a4015281816128ce015261328f0152614f156000f3fe608060405234801561001057600080fd5b50600436106102cc5760003560e01c806386d460621161017d578063b849a206116100d9578063d73dd62311610092578063d73dd623146106ae578063dd62ed3e146106c1578063ea45766b146106fa578063f2fde38b1461070d578063f8b2cb4f14610720578063fde924f714610733578063fe834dfd1461073b57600080fd5b8063b849a20614610647578063c09fa8b41461065a578063c34351711461066d578063d04ee53f14610680578063d0fffbdb14610693578063d4cadf68146106a657600080fd5b80639d4e7e3a116101365780639d4e7e3a146105cb578063a1f26854146105d3578063a9059cbb146105e6578063aa6ca808146105f9578063ab323b491461060e578063acb21b3114610621578063b02f0b731461063457600080fd5b806386d4606214610543578063895c253a146105565780638c28cbe81461057e5780638d4e408314610591578063948d8ce61461059957806395d89b41146105ac57600080fd5b80633c515d991161022c578063626f7291116101e5578063626f72911461046d578063661884631461048e5780636a9b7c88146104a157806370a08231146104c25780637104e93e146104eb57806379ba5097146104f3578063812d8628146104fb57600080fd5b80633c515d99146104065780633cc339601461041957806349b595521461042c5780634bb278f31461043f5780634f69c0d414610447578063538e285c1461045a57600080fd5b806329dcbe5f1161028957806329dcbe5f146103835780632f37b624146103965780633018205f146103a9578063313ce567146103be578063314d204f146103cd57806334e19907146103e05780633b4ea29d146103f357600080fd5b8063045dbae0146102d157806306fdde03146102e6578063095ea7b3146103245780631446a7ff1461034757806318160ddd1461036857806323b872dd14610370575b600080fd5b6102e46102df366004614447565b61075b565b005b60408051808201909152601081526f29bbb0b0b8102837b7b6102a37b5b2b760811b60208201525b60405161031b91906144bc565b60405180910390f35b6103376103323660046144e6565b6107aa565b604051901515815260200161031b565b61035a610355366004614510565b610805565b60405190815260200161031b565b60025461035a565b61033761037e366004614543565b610919565b6102e461039136600461457f565b6109f8565b6103376103a436600461457f565b610aa3565b6103b1610ada565b60405161031b919061459a565b6040516012815260200161031b565b6102e46103db3660046145ae565b610b05565b6102e46103ee3660046145ae565b610b4a565b61035a6104013660046144e6565b610bb1565b6102e46104143660046145c7565b610bd7565b6102e4610427366004614447565b610c1f565b6102e461043a3660046145fe565b610c7c565b6102e4610cdf565b6102e461045536600461461b565b610d8b565b6102e46104683660046145ae565b610f12565b61048061047b3660046144e6565b610f46565b60405161031b9291906146d4565b61033761049c3660046144e6565b6110d3565b6104b46104af3660046146ed565b6111a9565b60405161031b92919061473b565b61035a6104d036600461457f565b6001600160a01b031660009081526020819052604090205490565b6102e46111ef565b6102e4611242565b6105036112c9565b6040805160ff97881681529690951660208701526001600160401b03909316938501939093526060840152608083019190915260a082015260c00161031b565b6102e4610551366004614795565b61132f565b6105696105643660046146ed565b61147a565b6040805192835260208301919091520161031b565b6102e461058c36600461457f565b6115b2565b61033761167a565b61035a6105a736600461457f565b61169e565b60408051808201909152600381526214d41560ea1b602082015261030e565b6102e4611705565b61035a6105e13660046147e4565b61173c565b6103376105f43660046144e6565b611a31565b610601611a47565b60405161031b9190614817565b6102e461061c366004614795565b611abc565b6102e461062f3660046145ae565b611aef565b6102e461064236600461461b565b611bc0565b61035a6106553660046147e4565b611da0565b6104b46106683660046146ed565b611e75565b6102e461067b36600461457f565b611eac565b6103b161068e36600461457f565b612161565b6105696106a13660046146ed565b6121bb565b61035a6122ff565b6103376106bc3660046144e6565b61231a565b61035a6106cf366004614510565b6001600160a01b03918216600090815260016020908152604080832093909416825291909152205490565b61035a61070836600461457f565b61238e565b6102e461071b36600461457f565b6123e8565b61035a61072e36600461457f565b612451565b6103376124ab565b61074e6107493660046145ae565b6124ce565b60405161031b9190614864565b61076361260a565b61076b612646565b610773612667565b610785600160ff8316101560356126ed565b6005805465ff00000000001916600160281b60ff8416021790556107a76126ff565b50565b3360008181526001602090815260408083206001600160a01b03871680855292528083208590555191929091600080516020614ec0833981519152906107f39086815260200190565b60405180910390a35060015b92915050565b6005546000906108199060ff1615826126ed565b6001600160a01b0383166000908152600460205260409020546108649060ff16801561085d57506001600160a01b03831660009081526004602052604090205460ff165b60026126ed565b600061086f8461270b565b9050600061087c8461270b565b825160208082015160409283015184519283015192840151935163a221ee4960e01b815294955073__Math__________________________________9463a221ee49946108cf9491600090600401614877565b602060405180830381865af41580156108ec573d6000803e3d6000fd5b505050506040513d601f19601f82011682018060405250810190610910919061489a565b95945050505050565b6000336001600160a01b0385161480159061095957506001600160a01b038416600090815260016020908152604080832033845290915290205460001914155b156109e2576001600160a01b03841660009081526001602090815260408083203384529091529020546109908382101560156126ed565b6001600160a01b038581166000908152600160209081526040808320338085529083529281902087860390819055905190815292871692600080516020614ec0833981519152910160405180910390a3505b6109ed848484612810565b5060015b9392505050565b610a00612646565b600a54610a2090600160501b90046001600160a01b0316331460036126ed565b610a366001600160a01b0382161515600d6126ed565b600a8054600160501b600160f01b031916600160501b6001600160a01b03841690810291909117909155600b80546001600160a01b031916905560405133907fe9cdd2997ec8c6ef6ac8fa0a086751d7333153fd3c16c2d7ddd28a183bf5020b90600090a36107a76126ff565b600554600090610ab79060ff1615826126ed565b506001600160a01b03811660009081526004602052604090205460ff165b919050565b600554600090610aee9060ff1615826126ed565b50600a54600160501b90046001600160a01b031690565b610b0d61260a565b610b15612646565b610b1d612667565b610b3d610b33670de0b6b3a764000060016148c9565b82101560166126ed565b60068190556107a76126ff565b610b5261260a565b610b5a612646565b610b62612667565b610b84610b7a620f4240670de0b6b3a76400006148e8565b821015600e6126ed565b610ba4610b9a600a670de0b6b3a76400006148e8565b821115600f6126ed565b60098190556107a76126ff565b600554600090610bc59060ff1615826126ed565b610bcd6128cc565b6109f18383612939565b610bdf61260a565b610be7612646565b610bef612667565b600580546dffffffffffffffff0000000000001916600160301b6001600160401b038416021790556107a76126ff565b610c2761260a565b610c2f612646565b610c37612667565b610c49600160ff8316101560186126ed565b610c5b606460ff8316111560196126ed565b6005805464ff000000001916600160201b60ff8416021790556107a76126ff565b610c8461260a565b610c8c612646565b600554610ca49062010000900460ff161560046126ed565b600a54610cc490600160501b90046001600160a01b0316331460036126ed565b6005805461ff001916610100831515021790556107a76126ff565b610ce761260a565b610cef612646565b600554610d079062010000900460ff161560046126ed565b600a54610d2790600160501b90046001600160a01b0316331460036126ed565b600354610d39906002111560126126ed565b6005805462ffff00191662010100179055610d65610d60670de0b6b3a764000060646148c9565b612b26565b610d8133610d7c670de0b6b3a764000060646148c9565b612b2f565b610d896126ff565b565b610d9361260a565b610d9b612646565b610da36128cc565b600554610dba9062010000900460ff1660016126ed565b600354610dca90821460366126ed565b6000610dd884600254612b39565b9050610de781151560056126ed565b60005b82811015610ef057600060038281548110610e0757610e0761490a565b60009182526020808320909101546001600160a01b03168083526004909152604082206001015490925090610e3c8583612b7f565b9050610e4b81151560056126ed565b610e71878786818110610e6057610e6061490a565b9050602002013582111560086126ed565b610e7b8183614920565b6001600160a01b0384166000818152600460205260409081902060010192909255905133907f63982df10efd8dfaaaa0fcc7f50b2d93b7cba26ccc48adee2873220d485dc39a90610ecf9085815260200190565b60405180910390a3610ee2833383612bc3565b836001019350505050610dea565b50610efa84612b26565b610f043385612b2f565b50610f0d6126ff565b505050565b610f1a61260a565b610f22612646565b610f2a612667565b610f396001821015601a6126ed565b60078190556107a76126ff565b600554600090606090610f5d9060ff1615836126ed565b610f656128cc565b600554610f7c9062010000900460ff1660016126ed565b6001600160a01b038416600090815260046020526040902054610fa39060ff1660026126ed565b6001600160a01b038416600090815260046020526040812060010154610fca908590612cde565b600254909150610fda8282612b7f565b9350610fe68482612b39565b9150610ff582151560056126ed565b600354806001600160401b0381111561101057611010614938565b604051908082528060200260200182016040528015611039578160200160208202803683370190505b50935060005b818110156110c85760006003828154811061105c5761105c61490a565b60009182526020808320909101546001600160a01b031680835260049091526040909120600101549091506110918682612b7f565b98506110a089151560056126ed565b888784815181106110b3576110b361490a565b6020908102919091010152505060010161103f565b505050509250929050565b3360009081526001602090815260408083206001600160a01b038616845290915281205480831115611128573360009081526001602090815260408083206001600160a01b0388168452909152812055611157565b611132838261494e565b3360009081526001602090815260408083206001600160a01b03891684529091529020555b3360008181526001602090815260408083206001600160a01b03891680855290835292819020549051908152919291600080516020614ec0833981519152910160405180910390a35060019392505050565b6111b1614380565b6111b96143a1565b6005546111cb9060ff161560006126ed565b6111d36128cc565b6111e08787878787612d07565b915091505b9550959350505050565b6111f761260a565b61122d336001600160a01b037f0000000000000000000000000000000000000000000000000000000000000000161460066126ed565b6005805463ff00000019166301000000179055565b600b5461125b906001600160a01b03163314602f6126ed565b600a8054600160501b600160f01b03198116600160501b3381810292909217909355600b80546001600160a01b0319169055604051929091046001600160a01b03169182907fe9cdd2997ec8c6ef6ac8fa0a086751d7333153fd3c16c2d7ddd28a183bf5020b90600090a350565b6000806000806000806112ed600560009054906101000a900460ff161560006126ed565b5050600554600654600754600854600160201b840460ff90811699600160281b86049091169850600160301b9094046001600160401b03169650919450925090565b6001600160a01b0384166000908152600460205260409020546113579060ff1615601c6126ed565b60035461136890600811601d6126ed565b6040805160a08101825260018082526003805460ff9081166020808601918252600086880181815260608801828152608089018381526001600160a01b038f1680855260049095529983209851895495519251915161ffff1990961690151561ff0019161761010092871692909202919091176cffffffffffffffffffffff000019166201000091909516026cffffffffffffffffffff00000019169390931763010000006001600160501b0390931692909202919091178555945193830193909355805491820181559091527fc2575a0e9e593c00f959f8c92f12db2869c3395a3b0502d05e2516446f71f85b0180546001600160a01b03191690911790556114748484848461300a565b50505050565b60008061148561260a565b61148d612646565b6114956128cc565b6000806114a58989898989612d07565b81516001600160a01b038c166000908152600460205260408120600101805494965092945090926114d7908490614920565b90915550506001600160a01b0387166000908152600460205260408120600101805488929061150790849061494e565b909155505081516020808401516040808601518582015160608088015184519788529587018d90529286019390935290840152608083015260a08201526001600160a01b0380891691908b169033907fbdafe88494b31fc7436fe7992b0f377e874287e841e62eed1ad77e84f3c5b1719060c00160405180910390a461159289338460000151612bc3565b61159d8733886133a1565b905160209091015190925090506111e56126ff565b6115ba61260a565b6115c2612646565b6001600160a01b0381166000908152600460205260409020546115e99060ff1660026126ed565b6040516370a0823160e01b81526001600160a01b038216906370a082319061161590309060040161459a565b602060405180830381865afa158015611632573d6000803e3d6000fd5b505050506040513d601f19601f82011682018060405250810190611656919061489a565b6001600160a01b0382166000908152600460205260409020600101556107a76126ff565b60055460009061168e9060ff1615826126ed565b5060055462010000900460ff1690565b6005546000906116b29060ff1615826126ed565b6001600160a01b0382166000908152600460205260409020546116d99060ff1660026126ed565b506001600160a01b0316600090815260046020526040902054630100000090046001600160501b031690565b61170d61260a565b600a5461172d90600160501b90046001600160a01b0316331460036126ed565b6005805463ff00000019169055565b600061174661260a565b61174e612646565b6117566128cc565b60055461176d9062010000900460ff1660016126ed565b6001600160a01b0384166000908152600460205260409020546117949060ff1660026126ed565b61179c6143c9565b60606117a7866133b5565b6040805160808101825288815260095460208201529294509092506000919081016103e86117de670de0b6b3a764000060036148c9565b6117e891906148e8565b81526002546020918201526040805180820182526005546001600160401b03600160301b820416825260065482850152825160808101845260ff600160201b830481168252600754958201959095524281850152600160281b90910490931660608401529051631adb96dd60e31b81529293509173__Math__________________________________9063d6dcb6e89061188e90889088908890889088906004016149eb565b602060405180830381865af41580156118ab573d6000803e3d6000fd5b505050506040513d601f19601f820116820180604052508101906118cf919061489a565b6001600160a01b038a1660009081526004602052604090206001015490965061192390611919906119096003670de0b6b3a76400006148e8565b611914906001614920565b612b7f565b871115603a6126ed565b5050506119348484101560096126ed565b82826000015160200181815161194a919061494e565b90525061195782826134da565b81516020908101516001600160a01b0388166000908152600490925260408220600101556119858682612b7f565b9050866001600160a01b0316336001600160a01b03167fe74c91552b64c2e2e7bd255639e004e693bd3e1d01cc33e65610b86afcc1ffed866040516119cc91815260200190565b60405180910390a36119de3387613623565b6119f06119eb828861494e565b61362d565b611a1a7f000000000000000000000000000000000000000000000000000000000000000082612b2f565b611a258733866133a1565b5050505b6109f16126ff565b6000611a3e338484612810565b50600192915050565b600554606090611a5c9060ff161560006126ed565b6003805480602002602001604051908101604052809291908181526020018280548015611ab257602002820191906000526020600020905b81546001600160a01b03168152600190910190602001808311611a94575b5050505050905090565b6001600160a01b038416600090815260046020526040902054611ae39060ff1660026126ed565b6114748484848461300a565b611af761260a565b611aff612646565b611b35336001600160a01b037f0000000000000000000000000000000000000000000000000000000000000000161460066126ed565b600554611b4e906301000000900460ff161560076126ed565b611b81611b65610320670de0b6b3a76400006148e8565b611b7790670de0b6b3a7640000614920565b82101560376126ed565b611bb3611b97600a670de0b6b3a76400006148e8565b611ba990670de0b6b3a7640000614920565b82111560386126ed565b60088190556107a76126ff565b611bc861260a565b611bd0612646565b600554611be79062010000900460ff1660016126ed565b600354611bf790821460366126ed565b6000611c04846000612b7f565b90506000611c12828661494e565b90506000611c2282600254612cde565b9050611c3181151560056126ed565b611c3b3387613623565b611c657f000000000000000000000000000000000000000000000000000000000000000084612b2f565b611c6e8261362d565b60005b84811015611d9457600060038281548110611c8e57611c8e61490a565b60009182526020808320909101546001600160a01b03168083526004909152604082206001015490925090611cc38583613636565b9050611cd281151560056126ed565b611cf8898986818110611ce757611ce761490a565b9050602002013582101560096126ed565b6001600160a01b038316600090815260046020526040902060010154611d1f90829061494e565b6001600160a01b0384166000818152600460205260409081902060010192909255905133907fe74c91552b64c2e2e7bd255639e004e693bd3e1d01cc33e65610b86afcc1ffed90611d739085815260200190565b60405180910390a3611d868333836133a1565b836001019350505050611c71565b50505050610f0d6126ff565b6000611daa61260a565b611db2612646565b611dba6128cc565b611dc48484612939565b9050611dd48282101560096126ed565b6001600160a01b038416600090815260046020526040902060010154611dfb908490614920565b6001600160a01b0385166000818152600460205260409081902060010192909255905133907f63982df10efd8dfaaaa0fcc7f50b2d93b7cba26ccc48adee2873220d485dc39a90611e4f9087815260200190565b60405180910390a3611e62843385612bc3565b611e6b81612b26565b611a293382612b2f565b611e7d614380565b611e856143a1565b600554611e979060ff161560006126ed565b611e9f6128cc565b6111e08787878787613657565b611eb461260a565b611ebc612646565b600a54611edc90600160501b90046001600160a01b0316331460036126ed565b6001600160a01b038116600090815260046020526040902054611f039060ff1660026126ed565b600554611f1b9062010000900460ff161560046126ed565b6001600160a01b03811660009081526004602052604081206001015490611f428282612b7f565b6001600160a01b038416600090815260046020526040902054600a54919250611f7e916001600160501b03630100000090920482169116614a8f565b600a80546001600160501b0319166001600160501b03929092169190911790556001600160a01b03831660009081526004602052604081205460035461010090910460ff169190611fd19060019061494e565b905060038181548110611fe657611fe661490a565b600091825260209091200154600380546001600160a01b039092169160ff85169081106120155761201561490a565b9060005260206000200160006101000a8154816001600160a01b0302191690836001600160a01b03160217905550816004600060038560ff168154811061205e5761205e61490a565b60009182526020808320909101546001600160a01b031683528201929092526040019020805460ff929092166101000261ff001990921691909117905560038054806120ac576120ac614ab7565b60008281526020808220830160001990810180546001600160a01b031990811690915593019093556001600160a01b038816815260048352604080822080546cffffffffffffffffffffffffff191681556001908101839055600c90945281208054909216825591015561212a8533612125868861494e565b6133a1565b612155857f0000000000000000000000000000000000000000000000000000000000000000856133a1565b505050506107a76126ff565b6005546000906121759060ff1615826126ed565b6001600160a01b03821660009081526004602052604090205461219c9060ff1660026126ed565b506001600160a01b039081166000908152600c60205260409020541690565b6000806121c661260a565b6121ce612646565b6121d66128cc565b6000806121e68989898989613657565b6001600160a01b038b16600090815260046020526040812060010180549395509193508a92612216908490614920565b909155505081516001600160a01b0388166000908152600460205260408120600101805490919061224890849061494e565b92505081905550866001600160a01b0316896001600160a01b0316336001600160a01b03167fbdafe88494b31fc7436fe7992b0f377e874287e841e62eed1ad77e84f3c5b1718b866000015187602001518860400151886040015189606001516040516122dd96959493929190958652602086019490945260408501929092526060840152608083015260a082015260c00190565b60405180910390a46122f089338a612bc3565b61159d873384600001516133a1565b6005546000906123139060ff1615826126ed565b5060095490565b3360009081526001602090815260408083206001600160a01b0386168452909152812054612349908390614920565b3360008181526001602090815260408083206001600160a01b03891680855290835292819020859055519384529092600080516020614ec083398151915291016107f3565b6005546000906123a29060ff1615826126ed565b6001600160a01b0382166000908152600460205260409020546123c99060ff1660026126ed565b506001600160a01b03166000908152600c602052604090206001015490565b6123f061260a565b600a5461241090600160501b90046001600160a01b0316331460036126ed565b60055462010000900460ff1661242f5760035461242f901560326126ed565b600b80546001600160a01b0319166001600160a01b0392909216919091179055565b6005546000906124659060ff1615826126ed565b6001600160a01b03821660009081526004602052604090205461248c9060ff1660026126ed565b506001600160a01b031660009081526004602052604090206001015490565b6005546000906124bf9060ff1615826126ed565b50600554610100900460ff1690565b6005546060906124e39060ff161560006126ed565b6005546124fa9062010000900460ff1660016126ed565b6000612507836000612b7f565b90506000612515828561494e565b9050600061252582600254612cde565b600354909150806001600160401b0381111561254357612543614938565b60405190808252806020026020018201604052801561256c578160200160208202803683370190505b50945060005b818110156126005760006003828154811061258f5761258f61490a565b60009182526020808320909101546001600160a01b031680835260049091526040822060010154909250906125c48683613636565b90506125d381151560056126ed565b808985815181106125e6576125e661490a565b602002602001018181525050836001019350505050612572565b5050505050919050565b336001600160a01b03166000356001600160e01b0319166001600160e01b03191660003660405161263c929190614acd565b60405180910390a2565b6005546126589060ff161560006126ed565b6005805460ff19166001179055565b600a54600160501b90046001600160a01b031633141561269957600554610d899062010000900460ff161560046126ed565b336001600160a01b037f00000000000000000000000000000000000000000000000000000000000000001614156126e357600554610d89906301000000900460ff161560076126ed565b610d89600c6138f7565b816126fb576126fb816138f7565b5050565b6005805460ff19169055565b6127136143c9565b6001600160a01b038281166000818152600460209081526040808320815160a081018352815460ff8082161515835261010082048116838701526201000082041682850152630100000090046001600160501b031660608201526001918201546080820152948452600c8352818420825180840190935280549096168083529501549181019190915291926127a790613940565b905060006040518060600160405280856040015160ff168152602001856080015181526020016127f086606001516001600160501b031661191487602001518760400151613a13565b905260408051808201909152908152602081019290925250949350505050565b6128266001600160a01b038316151560236126ed565b6001600160a01b03831660009081526020819052604090205461284d8282101560136126ed565b6001600160a01b03808516600090815260208190526040808220858503905591851681529081208054849290612884908490614920565b92505081905550826001600160a01b0316846001600160a01b0316600080516020614ea0833981519152846040516128be91815260200190565b60405180910390a350505050565b7f00000000000000000000000000000000000000000000000000000000000000006001600160a01b0316635c2dc4f06040518163ffffffff1660e01b815260040160006040518083038186803b15801561292557600080fd5b505afa158015611474573d6000803e3d6000fd5b6005546000906129539062010000900460ff1660016126ed565b6001600160a01b03831660009081526004602052604090205461297a9060ff1660026126ed565b6001600160a01b0383166000908152600460205260409020600101546129bb906129b1906119146002670de0b6b3a76400006148e8565b83111560396126ed565b6129c36143c9565b60606129ce856133b5565b6040805160808101825287815260095460208201529294509092506000919081016103e8612a05670de0b6b3a764000060036148c9565b612a0f91906148e8565b81526002546020918201526040805180820182526005546001600160401b03600160301b820416825260065482850152825160808101845260ff600160201b830481168252600754958201959095524281850152600160281b90910490931660608401529051632dbd333d60e01b81529293509173__Math__________________________________90632dbd333d90612ab590889088908890889088906004016149eb565b602060405180830381865af4158015612ad2573d6000803e3d6000fd5b505050506040513d601f19601f82011682018060405250810190612af6919061489a565b9550868560000151602001818151612b0e9190614920565b905250612b1b8585613a1f565b505050505092915050565b6107a781613b71565b6126fb8282613bd7565b600080612b4e670de0b6b3a7640000856148c9565b90506000612b5d6002856148e8565b612b679083614920565b90506000612b7585836148e8565b9695505050505050565b600080612b8c83856148c9565b90506000612ba36002670de0b6b3a76400006148e8565b612bad9083614920565b90506000612b75670de0b6b3a7640000836148e8565b8281600081836001600160a01b03166370a08231306040518263ffffffff1660e01b8152600401612bf4919061459a565b602060405180830381865afa158015612c11573d6000803e3d6000fd5b505050506040513d601f19601f82011682018060405250810190612c35919061489a565b612c3f9190614920565b9050612c566001600160a01b038716863087613be2565b6040516370a0823160e01b81526000906001600160a01b038516906370a0823190612c8590309060040161459a565b602060405180830381865afa158015612ca2573d6000803e3d6000fd5b505050506040513d601f19601f82011682018060405250810190612cc6919061489a565b9050612cd581831460346126ed565b50505050505050565b600080612cf3670de0b6b3a7640000856148c9565b9050612cff83826148e8565b949350505050565b612d0f614380565b612d176143a1565b6001600160a01b038716600090815260046020526040902054612d619060ff16801561085d57506001600160a01b03861660009081526004602052604090205460ff1660026126ed565b600554612d7790610100900460ff16600a6126ed565b6001600160a01b038516600090815260046020526040902060010154612db890612dae906119096003670de0b6b3a76400006148e8565b851115603a6126ed565b6000612dc38861270b565b90506000612dd08761270b565b825160208082015160409283015184519283015192840151600954945163a221ee4960e01b815295965073__Math__________________________________9563a221ee4995612e24959291600401614877565b602060405180830381865af4158015612e41573d6000803e3d6000fd5b505050506040513d601f19601f82011682018060405250810190612e65919061489a565b808452612e7690861015600b6126ed565b612e8282828842613c4d565b9350612e96888560000151111560086126ed565b835182516020015173__Math__________________________________9163a221ee4991612ec49190614920565b845160400151845160200151612edb908b9061494e565b8560000151604001516009546040518663ffffffff1660e01b8152600401612f07959493929190614877565b602060405180830381865af4158015612f24573d6000803e3d6000fd5b505050506040513d601f19601f82011682018060405250810190612f48919061489a565b602084018190528351612f5e91101560056126ed565b6000612f6e846000015188612b7f565b612f79906001614920565b90508085600001511015612f8b578085525b612fe5600854612fdc612fb28760200151600954670de0b6b3a7640000611914919061494e565b6020808801516040908101518951519289015190910151885151612fd7939190613da5565b612b39565b1115602c6126ed565b5060209182015160409081015184820152910151015160608201529550959350505050565b61301261260a565b61301a612646565b6130226128cc565b600a5461304290600160501b90046001600160a01b0316331460036126ed565b60055461305a9062010000900460ff161560046126ed565b600b54613072906001600160a01b03161560336126ed565b613091670de0b6b3a76400006001600160501b0384161015601e6126ed565b6130c36130a7670de0b6b3a764000060326148c9565b6001600160501b0316836001600160501b03161115601f6126ed565b6130e76130dd64e8d4a51000670de0b6b3a76400006148e8565b84101560206126ed565b6001600160a01b0384166000908152600460205260409020546001600160501b0363010000009091048116908316811015613190576131268184614a8f565b600a5461313c91906001600160501b0316614afc565b600a80546001600160501b0319166001600160501b039290921691909117905561318b613172670de0b6b3a764000060326148c9565b600a546001600160501b039182169116111560216126ed565b6131ee565b806001600160501b0316836001600160501b031610156131ee57600a5483906131c39083906001600160501b0316614a8f565b6131cd9190614afc565b600a80546001600160501b0319166001600160501b03929092169190911790555b6001600160a01b038516600090815260046020526040902080546cffffffffffffffffffff000000191663010000006001600160501b038616021781556001018054908590558085111561325557613250863361324b848961494e565b612bc3565b6132b7565b808510156132b7576000613269868361494e565b90506000613278826000612b7f565b90506132898833612125848661494e565b6132b4887f0000000000000000000000000000000000000000000000000000000000000000836133a1565b50505b60008060006132c586613e3e565b9250925092506132d489613fac565b6132de9083614b27565b6001600160a01b038a81166000818152600460209081526040808320805462ff000019166201000060ff989098169790970296909617909555845180860186528b85168152808201898152848452600c90925291859020915182546001600160a01b031916941693909317815591516001929092019190915590517f367d74750f13eacb165ab505e06111727ad81829a67dd3fd6115c4d294ff1c039061338c908990879087908790614b4c565b60405180910390a250505050506114746126ff565b610f0d6001600160a01b0384168383614014565b6133bd6143c9565b60606133c88361270b565b6003549092506000906133dd9060019061494e565b9050806001600160401b038111156133f7576133f7614938565b60405190808252806020026020018201604052801561343057816020015b61341d6143c9565b8152602001906001900390816134155790505b5091506000805b828210156134d257856001600160a01b03166003828154811061345c5761345c61490a565b6000918252602090912001546001600160a01b0316146134ca576134a66003828154811061348c5761348c61490a565b6000918252602090912001546001600160a01b031661270b565b8483815181106134b8576134b861490a565b60200260200101819052508160010191505b600101613437565b505050915091565b6000805b82518110156114745773__Math__________________________________63a221ee498483815181106135135761351361490a565b602002602001015160000151602001518584815181106135355761353561490a565b6020026020010151600001516040015187600001516020015188600001516040015160006040518663ffffffff1660e01b8152600401613579959493929190614877565b602060405180830381865af4158015613596573d6000803e3d6000fd5b505050506040513d601f19601f820116820180604052508101906135ba919061489a565b915061361b600854612fdc84612fd78786815181106135db576135db61490a565b602002602001015160200151604001518887815181106135fd576135fd61490a565b6020908102919091018101515151908b0151604001518b5151613da5565b6001016134de565b6126fb8282614044565b6107a78161404f565b60008061364383856148c9565b9050612cff670de0b6b3a7640000826148e8565b61365f614380565b6136676143a1565b6001600160a01b0387166000908152600460205260409020546136b19060ff16801561085d57506001600160a01b03861660009081526004602052604090205460ff1660026126ed565b6005546136c790610100900460ff16600a6126ed565b6001600160a01b038716600090815260046020526040902060010154613708906136fe906119146002670de0b6b3a76400006148e8565b87111560396126ed565b60006137138861270b565b905060006137208761270b565b825160208082015160409283015184519283015192840151600954945163a221ee4960e01b815295965073__Math__________________________________9563a221ee4995613774959291600401614877565b602060405180830381865af4158015613791573d6000803e3d6000fd5b505050506040513d601f19601f820116820180604052508101906137b5919061489a565b8084526137c690861015600b6126ed565b6137d282828a426140ae565b93506137e6868560000151101560096126ed565b73__Math__________________________________63a221ee49898460000151602001516138149190614920565b845160400151875185516020015161382c919061494e565b8560000151604001516009546040518663ffffffff1660e01b8152600401613858959493929190614877565b602060405180830381865af4158015613875573d6000803e3d6000fd5b505050506040513d601f19601f82011682018060405250810190613899919061489a565b6020840181905283516138af91101560056126ed565b60006138bf898560000151612cde565b90508085600001511115612f8b57808552612fe5600854612fdc612fb28760200151600954670de0b6b3a7640000611914919061494e565b6030600a820601600a820491506030600a8306018060081b82016753574141502300000160c01b91505062461bcd60e51b60005260206004526008602452806044525060646000fd5b6139486143fe565b6000806000846001600160a01b031663feaf968c6040518163ffffffff1660e01b815260040160a060405180830381865afa15801561398b573d6000803e3d6000fd5b505050506040513d601f19601f820116820180604052508101906139af9190614b7c565b50935050925092506139d1607882426139c8919061494e565b111560306126ed565b6139df6000831360106126ed565b604080516080810182526001600160a01b0390961686526001600160501b0390931660208601529184015260608301525090565b60006109f18284612b39565b6000805b82518110156114745773__Math__________________________________63a221ee49856000015160200151866000015160400151868581518110613a6a57613a6a61490a565b60200260200101516000015160200151878681518110613a8c57613a8c61490a565b6020026020010151600001516040015160006040518663ffffffff1660e01b8152600401613abe959493929190614877565b602060405180830381865af4158015613adb573d6000803e3d6000fd5b505050506040513d601f19601f82011682018060405250810190613aff919061489a565b9150613b69600854612fdc84612fd7886020015160400151896000015160000151898881518110613b3257613b3261490a565b602002602001015160200151604001518a8981518110613b5457613b5461490a565b60200260200101516000015160000151613da5565b600101613a23565b30600090815260208190526040902054613b8c908290614920565b30600090815260208190526040902055600254613baa908290614920565b6002556040518181523090600090600080516020614ea0833981519152906020015b60405180910390a350565b6126fb308383612810565b6040516001600160a01b03808516602483015283166044820152606481018290526114749085906323b872dd60e01b906084015b60408051601f198184030181529190526020810180516001600160e01b03166001600160e01b031990931692909217909152614195565b613c55614380565b60408051606081018252848152600954602082015260009181016103e8613c85670de0b6b3a764000060036148c9565b613c8f91906148e8565b90526040805180820182526005546001600160401b03600160301b8204168252600654602080840191909152835160808101855260ff600160201b840481168252600754828401528186018a9052600160281b90930490921660608301528a8101518401518b5151918b0151909401518a51519596509294919373__Math__________________________________9363b2a3e6d4938d938d93613d34939092613da5565b8787876040518763ffffffff1660e01b8152600401613d5896959493929190614bd4565b606060405180830381865af4158015613d75573d6000803e3d6000fd5b505050506040513d601f19601f82011682018060405250810190613d999190614c37565b98975050505050505050565b60008160ff168460ff161115613df157613dea613de484670de0b6b3a7640000613dcf8689614c92565b613dda90600a614d99565b61191491906148c9565b86612b39565b9050612cff565b8160ff168460ff161015613e3457613dea613e0c8487612b39565b670de0b6b3a7640000613e1f8786614c92565b613e2a90600a614d99565b612fd791906148c9565b613dea8386612b39565b60008060606000849050600080826001600160a01b031663feaf968c6040518163ffffffff1660e01b815260040160a060405180830381865afa158015613e89573d6000803e3d6000fd5b505050506040513d601f19601f82011682018060405250810190613ead9190614b7c565b50935050925050613ec5607882426139c8919061494e565b613ed36000831360106126ed565b81836001600160a01b031663313ce5676040518163ffffffff1660e01b8152600401602060405180830381865afa158015613f12573d6000803e3d6000fd5b505050506040513d601f19601f82011682018060405250810190613f369190614da8565b846001600160a01b0316637284e4166040518163ffffffff1660e01b8152600401600060405180830381865afa158015613f74573d6000803e3d6000fd5b505050506040513d6000823e601f3d908101601f19168201604052613f9c9190810190614dc5565b9550955095505050509193909250565b6000816001600160a01b031663313ce5676040518163ffffffff1660e01b8152600401602060405180830381865afa925050508015614008575060408051601f3d908101601f1916820190925261400591810190614da8565b60015b6107ff57506000919050565b6040516001600160a01b038316602482015260448101829052610f0d90849063a9059cbb60e01b90606401613c16565b6126fb823083612810565b3060009081526020819052604090205461406a90829061494e565b3060009081526020819052604090205560025461408890829061494e565b6002556040518181526000903090600080516020614ea083398151915290602001613bcc565b6140b6614380565b60408051606081018252848152600954602082015260009181016103e86140e6670de0b6b3a764000060036148c9565b6140f091906148e8565b90526040805180820182526005546001600160401b03600160301b8204168252600654602080840191909152835160808101855260ff600160201b840481168252600754828401528186018a9052600160281b90930490921660608301528a8101518401518b5151918b0151909401518a51519596509294919373__Math__________________________________9363f1913050938d938d93613d34939092613da5565b60006141ea826040518060400160405280602081526020017f5361666545524332303a206c6f772d6c6576656c2063616c6c206661696c6564815250856001600160a01b031661426c9092919063ffffffff16565b805190915015610f0d57808060200190518101906142089190614e66565b610f0d5760405162461bcd60e51b815260206004820152602a60248201527f5361666545524332303a204552433230206f7065726174696f6e20646964206e6044820152691bdd081cdd58d8d9595960b21b60648201526084015b60405180910390fd5b6060612cff8484600085856001600160a01b0385163b6142ce5760405162461bcd60e51b815260206004820152601d60248201527f416464726573733a2063616c6c20746f206e6f6e2d636f6e74726163740000006044820152606401614263565b600080866001600160a01b031685876040516142ea9190614e83565b60006040518083038185875af1925050503d8060008114614327576040519150601f19603f3d011682016040523d82523d6000602084013e61432c565b606091505b509150915061433c828286614347565b979650505050505050565b606083156143565750816109f1565b8251156143665782518084602001fd5b8160405162461bcd60e51b815260040161426391906144bc565b60405180606001604052806000815260200160008152602001600081525090565b6040518060800160405280600081526020016000815260200160008152602001600081525090565b6040805160a0810182526000918101828152606082018390526080820192909252908152602081016143f96143fe565b905290565b604051806080016040528060006001600160a01b0316815260200160006001600160501b0316815260200160008152602001600081525090565b60ff811681146107a757600080fd5b60006020828403121561445957600080fd5b81356109f181614438565b60005b8381101561447f578181015183820152602001614467565b838111156114745750506000910152565b600081518084526144a8816020860160208601614464565b601f01601f19169290920160200192915050565b6020815260006109f16020830184614490565b80356001600160a01b0381168114610ad557600080fd5b600080604083850312156144f957600080fd5b614502836144cf565b946020939093013593505050565b6000806040838503121561452357600080fd5b61452c836144cf565b915061453a602084016144cf565b90509250929050565b60008060006060848603121561455857600080fd5b614561846144cf565b925061456f602085016144cf565b9150604084013590509250925092565b60006020828403121561459157600080fd5b6109f1826144cf565b6001600160a01b0391909116815260200190565b6000602082840312156145c057600080fd5b5035919050565b6000602082840312156145d957600080fd5b81356001600160401b03811681146109f157600080fd5b80151581146107a757600080fd5b60006020828403121561461057600080fd5b81356109f1816145f0565b60008060006040848603121561463057600080fd5b8335925060208401356001600160401b038082111561464e57600080fd5b818601915086601f83011261466257600080fd5b81358181111561467157600080fd5b8760208260051b850101111561468657600080fd5b6020830194508093505050509250925092565b600081518084526020808501945080840160005b838110156146c9578151875295820195908201906001016146ad565b509495945050505050565b828152604060208201526000612cff6040830184614699565b600080600080600060a0868803121561470557600080fd5b61470e866144cf565b945060208601359350614723604087016144cf565b94979396509394606081013594506080013592915050565b825181526020808401518183015260408085015181840152835160608085019190915291840151608084015283015160a083015282015160c082015260e081016109f1565b6001600160501b03811681146107a757600080fd5b600080600080608085870312156147ab57600080fd5b6147b4856144cf565b93506020850135925060408501356147cb81614780565b91506147d9606086016144cf565b905092959194509250565b6000806000606084860312156147f957600080fd5b614802846144cf565b95602085013595506040909401359392505050565b6020808252825182820181905260009190848201906040850190845b818110156148585783516001600160a01b031683529284019291840191600101614833565b50909695505050505050565b6020815260006109f16020830184614699565b948552602085019390935260408401919091526060830152608082015260a00190565b6000602082840312156148ac57600080fd5b5051919050565b634e487b7160e01b600052601160045260246000fd5b60008160001904831182151516156148e3576148e36148b3565b500290565b60008261490557634e487b7160e01b600052601260045260246000fd5b500490565b634e487b7160e01b600052603260045260246000fd5b60008219821115614933576149336148b3565b500190565b634e487b7160e01b600052604160045260246000fd5b600082821015614960576149606148b3565b500390565b8051805160ff16835260208082015181850152604091820151828501529182015180516001600160a01b0316606080860191909152928101516001600160501b031660808501529081015160a0840152015160c090910152565b60ff8151168252602081015160208301526040810151604083015260ff60608201511660608301525050565b60006102408083016149fd848a614965565b60e084810192909252875190819052610260840191602091828a0160005b82811015614a3e57614a2e868351614965565b9483019490840190600101614a1b565b505088516101008701525050506020860151610120840152604086015161014084015260608601516101608401529050835161018083015260208401516101a0830152612b756101c08301846149bf565b60006001600160501b0383811690831681811015614aaf57614aaf6148b3565b039392505050565b634e487b7160e01b600052603160045260246000fd5b60208152816020820152818360408301376000818301604090810191909152601f909201601f19160101919050565b60006001600160501b03808316818516808303821115614b1e57614b1e6148b3565b01949350505050565b600060ff821660ff84168060ff03821115614b4457614b446148b3565b019392505050565b60018060a01b038516815283602082015260ff83166040820152608060608201526000612b756080830184614490565b600080600080600060a08688031215614b9457600080fd5b8551614b9f81614780565b809550506020860151935060408601519250606086015191506080860151614bc681614780565b809150509295509295909350565b6103008101614be38289614965565b614bf060e0830188614965565b6101c0820186905284516101e0830152602085015161020083015260408501516102208301528351610240830152602084015161026083015261433c6102808301846149bf565b600060608284031215614c4957600080fd5b604051606081018181106001600160401b0382111715614c6b57614c6b614938565b80604052508251815260208301516020820152604083015160408201528091505092915050565b600060ff821660ff841680821015614cac57614cac6148b3565b90039392505050565b600181815b80851115614cf0578160001904821115614cd657614cd66148b3565b80851615614ce357918102915b93841c9390800290614cba565b509250929050565b600082614d07575060016107ff565b81614d14575060006107ff565b8160018114614d2a5760028114614d3457614d50565b60019150506107ff565b60ff841115614d4557614d456148b3565b50506001821b6107ff565b5060208310610133831016604e8410600b8410161715614d73575081810a6107ff565b614d7d8383614cb5565b8060001904821115614d9157614d916148b3565b029392505050565b60006109f160ff841683614cf8565b600060208284031215614dba57600080fd5b81516109f181614438565b600060208284031215614dd757600080fd5b81516001600160401b0380821115614dee57600080fd5b818401915084601f830112614e0257600080fd5b815181811115614e1457614e14614938565b604051601f8201601f19908116603f01168101908382118183101715614e3c57614e3c614938565b81604052828152876020848701011115614e5557600080fd5b61433c836020830160208801614464565b600060208284031215614e7857600080fd5b81516109f1816145f0565b60008251614e95818460208701614464565b919091019291505056feddf252ad1be2c89b69c2b068fc378daa952ba7f163c4a11628f55a4df523b3ef8c5be1e5ebec7d5bd14f71427d1e84f3dd0314c0f7b2291e5b200ac8c7c3b925a26469706673582212200500981b356ba740425f7cf6c845a7370658dabbfb717b848962643ac68617f664736f6c634300080c0033a2646970667358221220b42c5bf457ddc47f2923ebcb4aa0ce1ffa6cf474f5c51e8fdfdd54ddb9efdfe564736f6c634300080c0033",
  "immutableReferences": {
    "1468": [
      {
        "length": 32,
        "start": 1231
      },
      {
        "length": 32,
        "start": 2094
      }
    ]
  },
  "source": "// SPDX-License-Identifier: GPL-3.0-or-later\n// This program is free software: you can redistribute it and/or modify\n// it under the terms of the GNU Affero General Public License as published by\n// the Free Software Foundation, either version 3 of the License, or any later version.\n\n// This program is distributed in the hope that it will be useful,\n// but WITHOUT ANY WARRANTY; without even the implied warranty of\n// MERCHANTABILITY or FITNESS FOR A PARTICULAR PURPOSE. See the\n// GNU Affero General Public License for more details.\n\n// You should have received a copy of the GNU Affero General Public License\n// along with this program. If not, see <http://www.gnu.org/licenses/>.\n\npragma solidity =0.8.12;\n\n// Builds new Pools, logging their addresses and providing `isPool(address) -> (bool)`\n\nimport \"./Pool.sol\";\nimport \"@openzeppelin/contracts/token/ERC20/utils/SafeERC20.sol\";\nimport \"./interfaces/IFactory.sol\";\nimport \"./Errors.sol\";\n\ncontract Factory is IFactory {\n\n    using SafeERC20 for IERC20; \n\n    function _onlySwaapLabs() private view {\n        _require(msg.sender == _swaaplabs, Err.NOT_SWAAPLABS);\n    }\n\n    modifier _onlySwaapLabs_() {\n        _onlySwaapLabs();\n        _;\n    }\n\n    modifier _onlyPool_(address pool) {\n        _require(_isPool[address(pool)], Err.NOT_POOL);\n        _;\n    }\n    \n    mapping(address=>bool) private _isPool;\n    \n    address private _pendingSwaaplabs;\n    address private _swaaplabs;\n    bool private _paused;\n    uint64 immutable private _pauseWindow;\n\n    constructor() {\n        _swaaplabs = msg.sender;\n        _pauseWindow = uint64(block.timestamp) + Const.PAUSE_WINDOW;\n    }\n\n    /**\n    * @notice Create new pool with default parameters\n    */\n    function newPool()\n    external\n    returns (address)\n    {\n        _require(!_paused, Err.PAUSED_FACTORY);\n        Pool pool = new Pool();\n        _isPool[address(pool)] = true;\n        emit LOG_NEW_POOL(msg.sender, address(pool));\n        pool.setControllerAndTransfer(msg.sender);\n        return address(pool);\n    }\n    \n    /**\n    * @notice Returns if an address corresponds to a pool created by the factory\n    */\n    function isPool(address b)\n    external view returns (bool)\n    {\n        return _isPool[b];\n    }\n\n    /**\n    * @notice Returns swaap labs' address\n    */\n    function getSwaapLabs()\n    external view\n    returns (address)\n    {\n        return _swaaplabs;\n    }\n\n    /**\n    * @notice Allows an owner to begin transferring ownership to a new address,\n    * pending.\n    */\n    function transferOwnership(address _to)\n    external\n    _onlySwaapLabs_\n    {\n        _pendingSwaaplabs = _to;\n\n        emit LOG_TRANSFER_REQUESTED(msg.sender, _to);\n    }\n\n    /**\n    * @notice Allows an ownership transfer to be completed by the recipient.\n    */\n    function acceptOwnership()\n    external\n    {\n        _require(msg.sender == _pendingSwaaplabs, Err.NOT_PENDING_SWAAPLABS);\n\n        address oldOwner = _swaaplabs;\n        _swaaplabs = msg.sender;\n        _pendingSwaaplabs = address(0);\n\n        emit LOG_NEW_SWAAPLABS(oldOwner, msg.sender);\n    }\n   \n    /**\n    * @notice Sends the exit fees accumulated to swaap labs\n    */\n    function collect(address erc20)\n    external\n    _onlySwaapLabs_\n    {\n        uint256 collected = IERC20(erc20).balanceOf(address(this));\n        IERC20(erc20).safeTransfer(msg.sender, collected);\n    }\n    \n    /**\n    * @notice Pause the factory's pools\n    * @dev Pause disables most of the pools functionalities (swap, joinPool & joinswap)\n    * and only allows LPs to withdraw their funds\n    */\n    function pauseProtocol() \n    external\n    _onlySwaapLabs_\n    {\n        _require(block.timestamp < _pauseWindow, Err.PAUSE_WINDOW_EXCEEDED);\n        _paused = true;\n    }\n\n    /**\n    * @notice Resume the factory's pools\n    * @dev Unpausing re-enables all the pools functionalities\n    */\n    function resumeProtocol()\n    external \n    _onlySwaapLabs_\n    {\n        _require(block.timestamp < _pauseWindow, Err.PAUSE_WINDOW_EXCEEDED);\n        _paused = false;\n    }\n\n    /**\n    * @notice Reverts pools if the factory is paused\n    * @dev This function is called by the pools whenever a swap or a joinPool is being made\n    */\n    function whenNotPaused()\n    external view {\n        _require(!_paused, Err.PAUSED_FACTORY);\n    }\n\n    /**\n    * @notice Revoke factory control over a pool's parameters\n    */\n    function revokePoolFactoryControl(address pool)\n    external\n    _onlySwaapLabs_\n    _onlyPool_(pool)\n    {\n        Pool(pool).revokeFactoryControl();\n    }\n\n    /**\n    * @notice Sets a pool's swap fee\n    */\n    function setPoolSwapFee(address pool, uint256 swapFee) \n    external\n    _onlySwaapLabs_\n    {\n        Pool(pool).setSwapFee(swapFee);\n    }\n    \n    /**\n    * @notice Sets a pool's dynamic coverage fees Z\n    */\n    function setPoolDynamicCoverageFeesZ(address pool, uint64 dynamicCoverageFeesZ)\n    external\n    _onlySwaapLabs_\n    _onlyPool_(pool)\n    {\n        Pool(pool).setDynamicCoverageFeesZ(dynamicCoverageFeesZ);\n    }\n\n    /**\n    * @notice Sets a pool's dynamic coverage fees horizon\n    */\n    function setPoolDynamicCoverageFeesHorizon(address pool, uint256 dynamicCoverageFeesHorizon)\n    external \n    _onlySwaapLabs_\n    _onlyPool_(pool)\n    {\n        Pool(pool).setDynamicCoverageFeesHorizon(dynamicCoverageFeesHorizon);\n    }\n\n    /**\n    * @notice Sets a pool's price statistics lookback in round\n    */    \n    function setPoolPriceStatisticsLookbackInRound(address pool, uint8 priceStatisticsLookbackInRound)\n    external\n    _onlySwaapLabs_\n    _onlyPool_(pool)\n    {\n        Pool(pool).setPriceStatisticsLookbackInRound(priceStatisticsLookbackInRound);\n    }\n\n    /**\n    * @notice Sets a pool's price statistics lookback in seconds\n    */    \n    function setPoolPriceStatisticsLookbackInSec(address pool, uint64 priceStatisticsLookbackInSec)\n    external\n    _onlySwaapLabs_\n    _onlyPool_(pool)\n    {\n        Pool(pool).setPriceStatisticsLookbackInSec(priceStatisticsLookbackInSec);\n    }\n\n    /**\n    * @notice Sets a pool's statistics lookback step in round\n    */\n    function setPoolPriceStatisticsLookbackStepInRound(address pool, uint8 priceStatisticsLookbackStepInRound)\n    external\n    _onlySwaapLabs_\n    _onlyPool_(pool)\n    {\n        Pool(pool).setPriceStatisticsLookbackStepInRound(priceStatisticsLookbackStepInRound);\n    }\n\n    /**\n    * @notice Sets a pool's maximum price unpeg ratio\n    */\n    function setPoolMaxPriceUnpegRatio(address pool, uint256 maxPriceUnpegRatio)\n    external\n    _onlySwaapLabs_\n    _onlyPool_(pool)\n    {\n        Pool(pool).setMaxPriceUnpegRatio(maxPriceUnpegRatio);\n    }\n\n}",
  "sourcePath": "/Users/davidbouba/dev/swaap-labs/RV-swaap-core-v1/contracts/Factory.sol",
  "compiler": {
    "name": "solc",
    "version": "0.8.12+commit.f00d7308.Emscripten.clang"
  },
  "schemaVersion": "3.4.7",
  "updatedAt": "2022-06-13T15:16:18.197Z",
  "devdoc": {
    "kind": "dev",
    "methods": {
      "pauseProtocol()": {
        "details": "Pause disables most of the pools functionalities (swap, joinPool & joinswap) and only allows LPs to withdraw their funds"
      },
      "resumeProtocol()": {
        "details": "Unpausing re-enables all the pools functionalities"
      },
      "whenNotPaused()": {
        "details": "This function is called by the pools whenever a swap or a joinPool is being made"
      }
    },
    "version": 1
  },
  "userdoc": {
    "events": {
      "LOG_NEW_POOL(address,address)": {
        "notice": "Emitted when a controller creates a pool"
      },
      "LOG_NEW_SWAAPLABS(address,address)": {
        "notice": "Emitted when a new address accepts the Swaap labs role"
      },
      "LOG_TRANSFER_REQUESTED(address,address)": {
        "notice": "Emitted when a Swaap labs transfer is requested"
      }
    },
    "kind": "user",
    "methods": {
      "acceptOwnership()": {
        "notice": "Allows an ownership transfer to be completed by the recipient."
      },
      "collect(address)": {
        "notice": "Sends the exit fees accumulated to swaap labs"
      },
      "getSwaapLabs()": {
        "notice": "Returns swaap labs' address"
      },
      "isPool(address)": {
        "notice": "Returns if an address corresponds to a pool created by the factory"
      },
      "newPool()": {
        "notice": "Create new pool with default parameters"
      },
      "pauseProtocol()": {
        "notice": "Pause the factory's pools"
      },
      "resumeProtocol()": {
        "notice": "Resume the factory's pools"
      },
      "revokePoolFactoryControl(address)": {
        "notice": "Revoke factory control over a pool's parameters"
      },
      "setPoolDynamicCoverageFeesHorizon(address,uint256)": {
        "notice": "Sets a pool's dynamic coverage fees horizon"
      },
      "setPoolDynamicCoverageFeesZ(address,uint64)": {
        "notice": "Sets a pool's dynamic coverage fees Z"
      },
      "setPoolMaxPriceUnpegRatio(address,uint256)": {
        "notice": "Sets a pool's maximum price unpeg ratio"
      },
      "setPoolPriceStatisticsLookbackInRound(address,uint8)": {
        "notice": "Sets a pool's price statistics lookback in round"
      },
      "setPoolPriceStatisticsLookbackInSec(address,uint64)": {
        "notice": "Sets a pool's price statistics lookback in seconds"
      },
      "setPoolPriceStatisticsLookbackStepInRound(address,uint8)": {
        "notice": "Sets a pool's statistics lookback step in round"
      },
      "setPoolSwapFee(address,uint256)": {
        "notice": "Sets a pool's swap fee"
      },
      "transferOwnership(address)": {
        "notice": "Allows an owner to begin transferring ownership to a new address, pending."
      },
      "whenNotPaused()": {
        "notice": "Reverts pools if the factory is paused"
      }
    },
    "version": 1
  }
}