{
  "contractName": "Pool",
  "abi": [
    {
      "inputs": [],
      "stateMutability": "nonpayable",
      "type": "constructor"
    },
    {
      "anonymous": false,
      "inputs": [
        {
          "indexed": true,
          "internalType": "address",
          "name": "owner",
          "type": "address"
        },
        {
          "indexed": true,
          "internalType": "address",
          "name": "spender",
          "type": "address"
        },
        {
          "indexed": false,
          "internalType": "uint256",
          "name": "value",
          "type": "uint256"
        }
      ],
      "name": "Approval",
      "type": "event"
    },
    {
      "anonymous": true,
      "inputs": [
        {
          "indexed": true,
          "internalType": "bytes4",
          "name": "sig",
          "type": "bytes4"
        },
        {
          "indexed": true,
          "internalType": "address",
          "name": "caller",
          "type": "address"
        },
        {
          "indexed": false,
          "internalType": "bytes",
          "name": "data",
          "type": "bytes"
        }
      ],
      "name": "LOG_CALL",
      "type": "event"
    },
    {
      "anonymous": false,
      "inputs": [
        {
          "indexed": true,
          "internalType": "address",
          "name": "caller",
          "type": "address"
        },
        {
          "indexed": true,
          "internalType": "address",
          "name": "tokenOut",
          "type": "address"
        },
        {
          "indexed": false,
          "internalType": "uint256",
          "name": "tokenAmountOut",
          "type": "uint256"
        }
      ],
      "name": "LOG_EXIT",
      "type": "event"
    },
    {
      "anonymous": false,
      "inputs": [
        {
          "indexed": true,
          "internalType": "address",
          "name": "caller",
          "type": "address"
        },
        {
          "indexed": true,
          "internalType": "address",
          "name": "tokenIn",
          "type": "address"
        },
        {
          "indexed": false,
          "internalType": "uint256",
          "name": "tokenAmountIn",
          "type": "uint256"
        }
      ],
      "name": "LOG_JOIN",
      "type": "event"
    },
    {
      "anonymous": true,
      "inputs": [
        {
          "indexed": true,
          "internalType": "address",
          "name": "token",
          "type": "address"
        },
        {
          "indexed": false,
          "internalType": "address",
          "name": "oracle",
          "type": "address"
        },
        {
          "indexed": false,
          "internalType": "uint256",
          "name": "value",
          "type": "uint256"
        }
      ],
      "name": "LOG_PRICE",
      "type": "event"
    },
    {
      "anonymous": false,
      "inputs": [
        {
          "indexed": true,
          "internalType": "address",
          "name": "caller",
          "type": "address"
        },
        {
          "indexed": true,
          "internalType": "address",
          "name": "tokenIn",
          "type": "address"
        },
        {
          "indexed": true,
          "internalType": "address",
          "name": "tokenOut",
          "type": "address"
        },
        {
          "indexed": false,
          "internalType": "uint256",
          "name": "tokenAmountIn",
          "type": "uint256"
        },
        {
          "indexed": false,
          "internalType": "uint256",
          "name": "tokenAmountOut",
          "type": "uint256"
        },
        {
          "indexed": false,
          "internalType": "uint256",
          "name": "spread",
          "type": "uint256"
        }
      ],
      "name": "LOG_SWAP",
      "type": "event"
    },
    {
      "anonymous": false,
      "inputs": [
        {
          "indexed": true,
          "internalType": "address",
          "name": "from",
          "type": "address"
        },
        {
          "indexed": true,
          "internalType": "address",
          "name": "to",
          "type": "address"
        },
        {
          "indexed": false,
          "internalType": "uint256",
          "name": "value",
          "type": "uint256"
        }
      ],
      "name": "Transfer",
      "type": "event"
    },
    {
      "inputs": [
        {
          "internalType": "address",
          "name": "src",
          "type": "address"
        },
        {
          "internalType": "address",
          "name": "dst",
          "type": "address"
        }
      ],
      "name": "allowance",
      "outputs": [
        {
          "internalType": "uint256",
          "name": "",
          "type": "uint256"
        }
      ],
      "stateMutability": "view",
      "type": "function"
    },
    {
      "inputs": [
        {
          "internalType": "address",
          "name": "dst",
          "type": "address"
        },
        {
          "internalType": "uint256",
          "name": "amt",
          "type": "uint256"
        }
      ],
      "name": "approve",
      "outputs": [
        {
          "internalType": "bool",
          "name": "",
          "type": "bool"
        }
      ],
      "stateMutability": "nonpayable",
      "type": "function"
    },
    {
      "inputs": [
        {
          "internalType": "address",
          "name": "whom",
          "type": "address"
        }
      ],
      "name": "balanceOf",
      "outputs": [
        {
          "internalType": "uint256",
          "name": "",
          "type": "uint256"
        }
      ],
      "stateMutability": "view",
      "type": "function"
    },
    {
      "inputs": [],
      "name": "decimals",
      "outputs": [
        {
          "internalType": "uint8",
          "name": "",
          "type": "uint8"
        }
      ],
      "stateMutability": "view",
      "type": "function"
    },
    {
      "inputs": [
        {
          "internalType": "address",
          "name": "dst",
          "type": "address"
        },
        {
          "internalType": "uint256",
          "name": "amt",
          "type": "uint256"
        }
      ],
      "name": "decreaseApproval",
      "outputs": [
        {
          "internalType": "bool",
          "name": "",
          "type": "bool"
        }
      ],
      "stateMutability": "nonpayable",
      "type": "function"
    },
    {
      "inputs": [
        {
          "internalType": "address",
          "name": "dst",
          "type": "address"
        },
        {
          "internalType": "uint256",
          "name": "amt",
          "type": "uint256"
        }
      ],
      "name": "increaseApproval",
      "outputs": [
        {
          "internalType": "bool",
          "name": "",
          "type": "bool"
        }
      ],
      "stateMutability": "nonpayable",
      "type": "function"
    },
    {
      "inputs": [],
      "name": "name",
      "outputs": [
        {
          "internalType": "string",
          "name": "",
          "type": "string"
        }
      ],
      "stateMutability": "view",
      "type": "function"
    },
    {
      "inputs": [],
      "name": "symbol",
      "outputs": [
        {
          "internalType": "string",
          "name": "",
          "type": "string"
        }
      ],
      "stateMutability": "view",
      "type": "function"
    },
    {
      "inputs": [],
      "name": "totalSupply",
      "outputs": [
        {
          "internalType": "uint256",
          "name": "",
          "type": "uint256"
        }
      ],
      "stateMutability": "view",
      "type": "function"
    },
    {
      "inputs": [
        {
          "internalType": "address",
          "name": "dst",
          "type": "address"
        },
        {
          "internalType": "uint256",
          "name": "amt",
          "type": "uint256"
        }
      ],
      "name": "transfer",
      "outputs": [
        {
          "internalType": "bool",
          "name": "",
          "type": "bool"
        }
      ],
      "stateMutability": "nonpayable",
      "type": "function"
    },
    {
      "inputs": [
        {
          "internalType": "address",
          "name": "src",
          "type": "address"
        },
        {
          "internalType": "address",
          "name": "dst",
          "type": "address"
        },
        {
          "internalType": "uint256",
          "name": "amt",
          "type": "uint256"
        }
      ],
      "name": "transferFrom",
      "outputs": [
        {
          "internalType": "bool",
          "name": "",
          "type": "bool"
        }
      ],
      "stateMutability": "nonpayable",
      "type": "function"
    },
    {
      "inputs": [],
      "name": "isPublicSwap",
      "outputs": [
        {
          "internalType": "bool",
          "name": "",
          "type": "bool"
        }
      ],
      "stateMutability": "view",
      "type": "function"
    },
    {
      "inputs": [],
      "name": "isFinalized",
      "outputs": [
        {
          "internalType": "bool",
          "name": "",
          "type": "bool"
        }
      ],
      "stateMutability": "view",
      "type": "function"
    },
    {
      "inputs": [
        {
          "internalType": "address",
          "name": "t",
          "type": "address"
        }
      ],
      "name": "isBound",
      "outputs": [
        {
          "internalType": "bool",
          "name": "",
          "type": "bool"
        }
      ],
      "stateMutability": "view",
      "type": "function"
    },
    {
      "inputs": [],
      "name": "getNumTokens",
      "outputs": [
        {
          "internalType": "uint256",
          "name": "",
          "type": "uint256"
        }
      ],
      "stateMutability": "view",
      "type": "function"
    },
    {
      "inputs": [],
      "name": "getCurrentTokens",
      "outputs": [
        {
          "internalType": "address[]",
          "name": "tokens",
          "type": "address[]"
        }
      ],
      "stateMutability": "view",
      "type": "function"
    },
    {
      "inputs": [],
      "name": "getFinalTokens",
      "outputs": [
        {
          "internalType": "address[]",
          "name": "tokens",
          "type": "address[]"
        }
      ],
      "stateMutability": "view",
      "type": "function"
    },
    {
      "inputs": [
        {
          "internalType": "address",
          "name": "token",
          "type": "address"
        }
      ],
      "name": "getDenormalizedWeight",
      "outputs": [
        {
          "internalType": "uint256",
          "name": "",
          "type": "uint256"
        }
      ],
      "stateMutability": "view",
      "type": "function"
    },
    {
      "inputs": [],
      "name": "getTotalDenormalizedWeight",
      "outputs": [
        {
          "internalType": "uint256",
          "name": "",
          "type": "uint256"
        }
      ],
      "stateMutability": "view",
      "type": "function"
    },
    {
      "inputs": [
        {
          "internalType": "address",
          "name": "token",
          "type": "address"
        }
      ],
      "name": "getNormalizedWeight",
      "outputs": [
        {
          "internalType": "uint256",
          "name": "",
          "type": "uint256"
        }
      ],
      "stateMutability": "view",
      "type": "function"
    },
    {
      "inputs": [
        {
          "internalType": "address",
          "name": "token",
          "type": "address"
        }
      ],
      "name": "getBalance",
      "outputs": [
        {
          "internalType": "uint256",
          "name": "",
          "type": "uint256"
        }
      ],
      "stateMutability": "view",
      "type": "function"
    },
    {
      "inputs": [],
      "name": "getSwapFee",
      "outputs": [
        {
          "internalType": "uint256",
          "name": "",
          "type": "uint256"
        }
      ],
      "stateMutability": "view",
      "type": "function"
    },
    {
      "inputs": [],
      "name": "getController",
      "outputs": [
        {
          "internalType": "address",
          "name": "",
          "type": "address"
        }
      ],
      "stateMutability": "view",
      "type": "function"
    },
    {
      "inputs": [
        {
          "internalType": "uint256",
          "name": "swapFee",
          "type": "uint256"
        }
      ],
      "name": "setSwapFee",
      "outputs": [],
      "stateMutability": "nonpayable",
      "type": "function"
    },
    {
      "inputs": [
        {
          "internalType": "address",
          "name": "manager",
          "type": "address"
        }
      ],
      "name": "setController",
      "outputs": [],
      "stateMutability": "nonpayable",
      "type": "function"
    },
    {
      "inputs": [
        {
          "internalType": "bool",
          "name": "public_",
          "type": "bool"
        }
      ],
      "name": "setPublicSwap",
      "outputs": [],
      "stateMutability": "nonpayable",
      "type": "function"
    },
    {
      "inputs": [],
      "name": "finalize",
      "outputs": [],
      "stateMutability": "nonpayable",
      "type": "function"
    },
    {
      "inputs": [
        {
          "internalType": "address",
          "name": "token",
          "type": "address"
        }
      ],
      "name": "gulp",
      "outputs": [],
      "stateMutability": "nonpayable",
      "type": "function"
    },
    {
      "inputs": [
        {
          "internalType": "uint256",
          "name": "poolAmountOut",
          "type": "uint256"
        },
        {
          "internalType": "uint256[]",
          "name": "maxAmountsIn",
          "type": "uint256[]"
        }
      ],
      "name": "joinPool",
      "outputs": [],
      "stateMutability": "nonpayable",
      "type": "function"
    },
    {
      "inputs": [
        {
          "internalType": "uint256",
          "name": "poolAmountIn",
          "type": "uint256"
        },
        {
          "internalType": "uint256[]",
          "name": "minAmountsOut",
          "type": "uint256[]"
        }
      ],
      "name": "exitPool",
      "outputs": [],
      "stateMutability": "nonpayable",
      "type": "function"
    },
    {
      "inputs": [
        {
          "internalType": "uint256",
          "name": "_dynamicCoverageFeesZ",
          "type": "uint256"
        }
      ],
      "name": "setDynamicCoverageFeesZ",
      "outputs": [],
      "stateMutability": "nonpayable",
      "type": "function"
    },
    {
      "inputs": [
        {
          "internalType": "uint256",
          "name": "_dynamicCoverageFeesHorizon",
          "type": "uint256"
        }
      ],
      "name": "setDynamicCoverageFeesHorizon",
      "outputs": [],
      "stateMutability": "nonpayable",
      "type": "function"
    },
    {
      "inputs": [
        {
          "internalType": "uint256",
          "name": "_priceStatisticsLookbackInRound",
          "type": "uint256"
        }
      ],
      "name": "setPriceStatisticsLookbackInRound",
      "outputs": [],
      "stateMutability": "nonpayable",
      "type": "function"
    },
    {
      "inputs": [
        {
          "internalType": "uint256",
          "name": "_priceStatisticsLookbackInSec",
          "type": "uint256"
        }
      ],
      "name": "setPriceStatisticsLookbackInSec",
      "outputs": [],
      "stateMutability": "nonpayable",
      "type": "function"
    },
    {
      "inputs": [],
      "name": "getCoverageParameters",
      "outputs": [
        {
          "internalType": "uint256",
          "name": "",
          "type": "uint256"
        },
        {
          "internalType": "uint256",
          "name": "",
          "type": "uint256"
        },
        {
          "internalType": "uint256",
          "name": "",
          "type": "uint256"
        },
        {
          "internalType": "uint256",
          "name": "",
          "type": "uint256"
        }
      ],
      "stateMutability": "view",
      "type": "function"
    },
    {
      "inputs": [
        {
          "internalType": "address",
          "name": "token",
          "type": "address"
        }
      ],
      "name": "getTokenPriceDecimals",
      "outputs": [
        {
          "internalType": "uint8",
          "name": "",
          "type": "uint8"
        }
      ],
      "stateMutability": "view",
      "type": "function"
    },
    {
      "inputs": [
        {
          "internalType": "address",
          "name": "token",
          "type": "address"
        }
      ],
      "name": "getTokenOraclePrice",
      "outputs": [
        {
          "internalType": "uint256",
          "name": "",
          "type": "uint256"
        }
      ],
      "stateMutability": "view",
      "type": "function"
    },
    {
      "inputs": [
        {
          "internalType": "address",
          "name": "token",
          "type": "address"
        }
      ],
      "name": "getTokenOracleInitialPrice",
      "outputs": [
        {
          "internalType": "uint256",
          "name": "",
          "type": "uint256"
        }
      ],
      "stateMutability": "view",
      "type": "function"
    },
    {
      "inputs": [
        {
          "internalType": "address",
          "name": "token",
          "type": "address"
        }
      ],
      "name": "getTokenPriceMMM",
      "outputs": [
        {
          "internalType": "address",
          "name": "",
          "type": "address"
        }
      ],
      "stateMutability": "view",
      "type": "function"
    },
    {
      "inputs": [
        {
          "internalType": "address",
          "name": "token",
          "type": "address"
        }
      ],
      "name": "getDenormalizedWeightMMM",
      "outputs": [
        {
          "internalType": "uint256",
          "name": "",
          "type": "uint256"
        }
      ],
      "stateMutability": "view",
      "type": "function"
    },
    {
      "inputs": [],
      "name": "getTotalDenormalizedWeightMMM",
      "outputs": [
        {
          "internalType": "uint256",
          "name": "",
          "type": "uint256"
        }
      ],
      "stateMutability": "view",
      "type": "function"
    },
    {
      "inputs": [
        {
          "internalType": "address",
          "name": "token",
          "type": "address"
        }
      ],
      "name": "getNormalizedWeightMMM",
      "outputs": [
        {
          "internalType": "uint256",
          "name": "",
          "type": "uint256"
        }
      ],
      "stateMutability": "view",
      "type": "function"
    },
    {
      "inputs": [
        {
          "internalType": "address",
          "name": "token",
          "type": "address"
        },
        {
          "internalType": "uint256",
          "name": "balance",
          "type": "uint256"
        },
        {
          "internalType": "uint256",
          "name": "denorm",
          "type": "uint256"
        },
        {
          "internalType": "address",
          "name": "_priceFeedAddress",
          "type": "address"
        }
      ],
      "name": "bindMMM",
      "outputs": [],
      "stateMutability": "nonpayable",
      "type": "function"
    },
    {
      "inputs": [
        {
          "internalType": "address",
          "name": "token",
          "type": "address"
        },
        {
          "internalType": "uint256",
          "name": "balance",
          "type": "uint256"
        },
        {
          "internalType": "uint256",
          "name": "denorm",
          "type": "uint256"
        },
        {
          "internalType": "address",
          "name": "_priceFeedAddress",
          "type": "address"
        }
      ],
      "name": "rebindMMM",
      "outputs": [],
      "stateMutability": "nonpayable",
      "type": "function"
    },
    {
      "inputs": [
        {
          "internalType": "address",
          "name": "token",
          "type": "address"
        }
      ],
      "name": "unbindMMM",
      "outputs": [],
      "stateMutability": "nonpayable",
      "type": "function"
    },
    {
      "inputs": [
        {
          "internalType": "address",
          "name": "tokenIn",
          "type": "address"
        },
        {
          "internalType": "address",
          "name": "tokenOut",
          "type": "address"
        }
      ],
      "name": "getSpotPriceMMM",
      "outputs": [
        {
          "internalType": "uint256",
          "name": "spotPrice",
          "type": "uint256"
        }
      ],
      "stateMutability": "view",
      "type": "function"
    },
    {
      "inputs": [
        {
          "internalType": "address",
          "name": "tokenIn",
          "type": "address"
        },
        {
          "internalType": "address",
          "name": "tokenOut",
          "type": "address"
        }
      ],
      "name": "getSpotPriceSansFeeMMM",
      "outputs": [
        {
          "internalType": "uint256",
          "name": "spotPrice",
          "type": "uint256"
        }
      ],
      "stateMutability": "view",
      "type": "function"
    },
    {
      "inputs": [
        {
          "internalType": "address",
          "name": "tokenIn",
          "type": "address"
        },
        {
          "internalType": "uint256",
          "name": "tokenAmountIn",
          "type": "uint256"
        },
        {
          "internalType": "address",
          "name": "tokenOut",
          "type": "address"
        },
        {
          "internalType": "uint256",
          "name": "minAmountOut",
          "type": "uint256"
        },
        {
          "internalType": "uint256",
          "name": "maxPrice",
          "type": "uint256"
        }
      ],
      "name": "swapExactAmountInMMM",
      "outputs": [
        {
          "internalType": "uint256",
          "name": "tokenAmountOut",
          "type": "uint256"
        },
        {
          "internalType": "uint256",
          "name": "spotPriceAfter",
          "type": "uint256"
        }
      ],
      "stateMutability": "nonpayable",
      "type": "function"
    },
    {
      "inputs": [
        {
          "internalType": "address",
          "name": "tokenIn",
          "type": "address"
        },
        {
          "internalType": "uint256",
          "name": "tokenAmountIn",
          "type": "uint256"
        },
        {
          "internalType": "address",
          "name": "tokenOut",
          "type": "address"
        }
      ],
      "name": "getAmountOutGivenInMMM",
      "outputs": [
        {
          "internalType": "uint256",
          "name": "tokenAmountOut",
          "type": "uint256"
        }
      ],
      "stateMutability": "view",
      "type": "function"
    }
  ],
  "bytecode": "0x60c0604052601060808190526f29bbb0b0b8102837b7b6102a37b5b2b760811b60a090815262000033916003919062000130565b506040805180820190915260038082526214d41560ea1b6020909201918252620000609160049162000130565b506005805460ff19166012179055600a62000085670de0b6b3a76400006006620001f7565b620000919190620001d6565b600d55620000aa670de0b6b3a764000061012c620001f7565b600e556004600f55610e10601055348015620000c557600080fd5b5060068054336001600160a01b031990911681179091556005805462010000600160b01b0319166201000090920291909117905562000110620f4240670de0b6b3a7640000620001d6565b6007556006805460ff60a01b191690556008805460ff1916905562000260565b8280546200013e9062000223565b90600052602060002090601f016020900481019282620001625760008555620001ad565b82601f106200017d57805160ff1916838001178555620001ad565b82800160010185558215620001ad579182015b82811115620001ad57825182559160200191906001019062000190565b50620001bb929150620001bf565b5090565b5b80821115620001bb5760008155600101620001c0565b600082620001f257634e487b7160e01b81526012600452602481fd5b500490565b60008160001904831182151516156200021e57634e487b7160e01b81526011600452602481fd5b500290565b6002810460018216806200023857607f821691505b602082108114156200025a57634e487b7160e01b600052602260045260246000fd5b50919050565b614efb80620002706000396000f3fe608060405234801561001057600080fd5b506004361061023b5760003560e01c80630180be901461024057806306fdde0314610255578063095ea7b31461027357806311b8be09146102935780631289f5cd146102a857806318160ddd146102bb578063186094db146102c357806323b872dd146102d65780632f37b624146102e95780633018205f146102fc578063313ce56714610311578063314d204f1461032657806334e19907146103395780633b21a69f1461034c57806349b595521461035f5780634bb278f3146103725780634d26d83b1461037a5780634f69c0d41461038d578063538e285c146103a05780635d131725146103b357806366188463146103c657806370a08231146103d95780637150b770146103ec57806375e90915146103ff5780637d18203b14610412578063812d8628146104255780638c28cbe81461043d5780638d4e40831461045057806392eefe9b14610458578063936c34771461046b578063948d8ce61461047357806395d89b4114610486578063a8b346801461048e578063a9059cbb146104a1578063b02f0b73146104b4578063be3bbd2e146104c7578063c3435171146104dc578063cc77828d146104ef578063cd2ed8fb146104f7578063d0fffbdb146104ff578063d4cadf6814610520578063d73dd62314610528578063dd62ed3e1461053b578063e24436d51461054e578063ea45766b14610561578063f1b8a9b714610574578063f8b2cb4f14610587578063fde924f71461059a578063fedf8152146105a2575b600080fd5b61025361024e3660046141fb565b6105b5565b005b61025d6109ab565b60405161026a919061451e565b60405180910390f35b61028661028136600461414a565b610a3d565b60405161026a91906144e4565b61029b610a96565b60405161026a9190614bea565b61029b6102b63660046140c3565b610aa5565b61029b610b34565b61029b6102d13660046140dd565b610b3a565b6102866102e436600461410f565b610b50565b6102866102f73660046140c3565b610c82565b610304610ca0565b60405161026a9190614446565b610319610cdb565b60405161026a9190614c55565b6102536103343660046142d1565b610ce4565b6102536103473660046142d1565b610e18565b61031961035a3660046140c3565b610f74565b61025361036d366004614240565b610ffb565b6102536110e2565b61029b6103883660046140dd565b611227565b61025361039b366004614301565b611237565b6102536103ae3660046142d1565b611592565b61029b6103c13660046140c3565b6116a4565b6102866103d436600461414a565b6116e5565b61029b6103e73660046140c3565b6117ae565b61029b6103fa3660046140c3565b6117c9565b61030461040d3660046140c3565b61180a565b6102536104203660046141fb565b61188c565b61042d611a22565b60405161026a9493929190614c17565b61025361044b3660046140c3565b611a6c565b610286611bbb565b6102536104663660046140c3565b611bc4565b61029b611cb4565b61029b6104813660046140c3565b611ce6565b61025d611d68565b61025361049c3660046142d1565b611d77565b6102866104af36600461414a565b611e87565b6102536104c2366004614301565b611e9d565b6104cf6122b2565b60405161026a9190614497565b6102536104ea3660046140c3565b61235e565b6104cf612735565b61029b612760565b61051261050d3660046141ae565b612766565b60405161026a929190614bf3565b61029b612785565b61028661053636600461414a565b6127b7565b61029b6105493660046140dd565b61282c565b61025361055c3660046142d1565b612857565b61029b61056f3660046140c3565b612957565b61029b6105823660046140c3565b6129d9565b61029b6105953660046140c3565b612ae6565b610286612b68565b61029b6105b0366004614173565b612b78565b336001600160a01b03166000356001600160e01b0319166001600160e01b0319166000366040516105e79291906144ef565b60405180910390a2600554610100900460ff16156106205760405162461bcd60e51b81526004016106179061483b565b60405180910390fd5b6005805461ff001916610100179055600654336001600160a01b039091161461065b5760405162461bcd60e51b815260040161061790614571565b6001600160a01b0384166000908152600a602052604090205460ff166106935760405162461bcd60e51b815260040161061790614860565b60085460ff16156106b65760405162461bcd60e51b81526004016106179061473f565b670de0b6b3a76400008210156106de5760405162461bcd60e51b8152600401610617906148d9565b6106f1670de0b6b3a76400006032614db2565b8211156107105760405162461bcd60e51b8152600401610617906146f4565b61072764e8d4a51000670de0b6b3a7640000614c7b565b8310156107465760405162461bcd60e51b8152600401610617906147be565b6001600160a01b0384166000908152600a6020526040902060020154808311156107bd576107748184614dd1565b600b546107819190614c63565b600b55610797670de0b6b3a76400006032614db2565b600b5411156107b85760405162461bcd60e51b815260040161061790614769565b6107e2565b808310156107e2578281600b546107d49190614dd1565b6107de9190614c63565b600b555b6001600160a01b0385166000908152600a60205260409020600281018490556003018054908590558085111561082b5761082686336108218489614dd1565b612bad565b610904565b8085101561090457600061083f8683614dd1565b9050600073__Num___________________________________638c051bf38360006040518363ffffffff1660e01b815260040161087d929190614bf3565b60206040518083038186803b15801561089557600080fd5b505af41580156108a9573d6000803e3d6000fd5b505050506040513d601f19601f820116820180604052508101906108cd91906142e9565b90506108e388336108de8486614dd1565b612c51565b6005546109019089906201000090046001600160a01b031683612c51565b50505b6040805180820182526001600160a01b038581168252600060208084018281528b84168352600c909152939020915182546001600160a01b03191690821617808355925160019092019190915561095b9116612c82565b6001600160a01b038088166000818152600c60205260409081902060018101859055549051919361099093919091169161447e565b60405180910390a150506005805461ff001916905550505050565b6060600380546109ba90614e0b565b80601f01602080910402602001604051908101604052809291908181526020018280546109e690614e0b565b8015610a335780601f10610a0857610100808354040283529160200191610a33565b820191906000526020600020905b815481529060010190602001808311610a1657829003601f168201915b5050505050905090565b3360008181526001602090815260408083206001600160a01b03871680855292528083208590555191929091600080516020614ea683398151915290610a84908690614bea565b60405180910390a35060015b92915050565b6000610aa0612d05565b905090565b600554600090610100900460ff1615610ad05760405162461bcd60e51b81526004016106179061483b565b6001600160a01b0382166000908152600a602052604090205460ff16610b085760405162461bcd60e51b815260040161061790614860565b6001600160a01b038083166000908152600c6020526040902054610b2c9116612c82565b90505b919050565b60025490565b6000610b498383600042612da0565b9392505050565b6000336001600160a01b0385161480610b8c57506001600160a01b03841660009081526001602090815260408083203384529091529020548211155b610ba85760405162461bcd60e51b8152600401610617906146c1565b610bb3848484612f58565b336001600160a01b03851614801590610bf157506001600160a01b038416600090815260016020908152604080832033845290915290205460001914155b15610c78576001600160a01b0384166000908152600160209081526040808320338452909152902054610c25908390614dd1565b6001600160a01b038581166000908152600160209081526040808320338085529252918290208490559051918616929091600080516020614ea683398151915291610c6f91614bea565b60405180910390a35b5060019392505050565b6001600160a01b03166000908152600a602052604090205460ff1690565b600554600090610100900460ff1615610ccb5760405162461bcd60e51b81526004016106179061483b565b506006546001600160a01b031690565b60055460ff1690565b336001600160a01b03166000356001600160e01b0319166001600160e01b031916600036604051610d169291906144ef565b60405180910390a2600554610100900460ff1615610d465760405162461bcd60e51b81526004016106179061483b565b6005805461ff00191661010017905560085460ff1615610d785760405162461bcd60e51b81526004016106179061473f565b6006546001600160a01b03163314610da25760405162461bcd60e51b815260040161061790614571565b610db5670de0b6b3a76400006001614db2565b811015610dd45760405162461bcd60e51b81526004016106179061497e565b610de9670de0b6b3a764000062015180614db2565b811115610e085760405162461bcd60e51b81526004016106179061492c565b600e556005805461ff0019169055565b336001600160a01b03166000356001600160e01b0319166001600160e01b031916600036604051610e4a9291906144ef565b60405180910390a2600554610100900460ff1615610e7a5760405162461bcd60e51b81526004016106179061483b565b6005805461ff00191661010017905560085460ff1615610eac5760405162461bcd60e51b81526004016106179061473f565b6006546001600160a01b03163314610ed65760405162461bcd60e51b815260040161061790614571565b610eeb620f4240670de0b6b3a7640000614c7b565b811015610f0a5760405162461bcd60e51b81526004016106179061469c565b610f1d600a670de0b6b3a7640000614c7b565b811115610f3c5760405162461bcd60e51b815260040161061790614887565b670de0b6b3a7640000811115610f645760405162461bcd60e51b815260040161061790614afa565b6007556005805461ff0019169055565b600554600090610100900460ff1615610f9f5760405162461bcd60e51b81526004016106179061483b565b6001600160a01b0382166000908152600a602052604090205460ff16610fd75760405162461bcd60e51b815260040161061790614860565b6001600160a01b038083166000908152600c6020526040902054610b2c9116613057565b336001600160a01b03166000356001600160e01b0319166001600160e01b03191660003660405161102d9291906144ef565b60405180910390a2600554610100900460ff161561105d5760405162461bcd60e51b81526004016106179061483b565b6005805461ff00191661010017905560085460ff161561108f5760405162461bcd60e51b81526004016106179061473f565b6006546001600160a01b031633146110b95760405162461bcd60e51b815260040161061790614571565b60068054911515600160a01b0260ff60a01b199092169190911790556005805461ff0019169055565b336001600160a01b03166000356001600160e01b0319166001600160e01b0319166000366040516111149291906144ef565b60405180910390a2600554610100900460ff16156111445760405162461bcd60e51b81526004016106179061483b565b6005805461ff00191661010017905560085460ff16156111765760405162461bcd60e51b81526004016106179061473f565b6006546001600160a01b031633146111a05760405162461bcd60e51b815260040161061790614571565b600954600211156111c35760405162461bcd60e51b815260040161061790614aa5565b6008805460ff191660011790556006805460ff60a01b1916600160a01b1790556111fe6111f9670de0b6b3a76400006064614db2565b6130ca565b61121a33611215670de0b6b3a76400006064614db2565b6130d6565b6005805461ff0019169055565b6000610b49838360075442612da0565b336001600160a01b03166000356001600160e01b0319166001600160e01b0319166000366040516112699291906144ef565b60405180910390a2600554610100900460ff16156112995760405162461bcd60e51b81526004016106179061483b565b6005805461ff00191661010017905560085460ff166112ca5760405162461bcd60e51b815260040161061790614901565b60006112d4610b34565b9050600073__Num___________________________________637673eb1186846040518363ffffffff1660e01b8152600401611311929190614bf3565b60206040518083038186803b15801561132957600080fd5b505af415801561133d573d6000803e3d6000fd5b505050506040513d601f19601f8201168201806040525081019061136191906142e9565b9050806113805760405162461bcd60e51b815260040161061790614647565b60005b60095481101561156c576000600982815481106113b057634e487b7160e01b600052603260045260246000fd5b60009182526020808320909101546001600160a01b0316808352600a9091526040808320600301549051638c051bf360e01b8152919350919073__Num___________________________________90638c051bf3906114159088908690600401614bf3565b60206040518083038186803b15801561142d57600080fd5b505af4158015611441573d6000803e3d6000fd5b505050506040513d601f19601f8201168201806040525081019061146591906142e9565b9050806114845760405162461bcd60e51b815260040161061790614647565b8787858181106114a457634e487b7160e01b600052603260045260246000fd5b905060200201358111156114ca5760405162461bcd60e51b815260040161061790614815565b6001600160a01b0383166000908152600a60205260409020600301546114f1908290614c63565b6001600160a01b0384166000818152600a60205260409081902060030192909255905133907f63982df10efd8dfaaaa0fcc7f50b2d93b7cba26ccc48adee2873220d485dc39a90611543908590614bea565b60405180910390a3611556833383612bad565b505050808061156490614e46565b915050611383565b50611576856130ca565b61158033866130d6565b50506005805461ff0019169055505050565b336001600160a01b03166000356001600160e01b0319166001600160e01b0319166000366040516115c49291906144ef565b60405180910390a2600554610100900460ff16156115f45760405162461bcd60e51b81526004016106179061483b565b6005805461ff00191661010017905560085460ff16156116265760405162461bcd60e51b81526004016106179061473f565b6006546001600160a01b031633146116505760405162461bcd60e51b815260040161061790614571565b60018110156116715760405162461bcd60e51b815260040161061790614955565b620151808111156116945760405162461bcd60e51b8152600401610617906149a7565b6010556005805461ff0019169055565b6001600160a01b0381166000908152600a602052604081205460ff166116dc5760405162461bcd60e51b815260040161061790614860565b610b2c826130e4565b3360009081526001602090815260408083206001600160a01b03861684529091528120548083111561173a573360009081526001602090815260408083206001600160a01b0388168452909152812055611769565b6117448382614dd1565b3360009081526001602090815260408083206001600160a01b03891684529091529020555b3360008181526001602090815260408083206001600160a01b038916808552925291829020549151909291600080516020614ea683398151915291610c6f9190614bea565b6001600160a01b031660009081526020819052604090205490565b6001600160a01b0381166000908152600a602052604081205460ff166118015760405162461bcd60e51b815260040161061790614860565b610b2c82613239565b600554600090610100900460ff16156118355760405162461bcd60e51b81526004016106179061483b565b6001600160a01b0382166000908152600a602052604090205460ff1661186d5760405162461bcd60e51b815260040161061790614860565b506001600160a01b039081166000908152600c60205260409020541690565b336001600160a01b03166000356001600160e01b0319166001600160e01b0319166000366040516118be9291906144ef565b60405180910390a26006546001600160a01b031633146118f05760405162461bcd60e51b815260040161061790614571565b6001600160a01b0384166000908152600a602052604090205460ff16156119295760405162461bcd60e51b8152600401610617906145cf565b60085460ff161561194c5760405162461bcd60e51b81526004016106179061473f565b60095460081161196e5760405162461bcd60e51b8152600401610617906145f5565b6040805160808101825260018082526009805460208085019182526000858701818152606087018281526001600160a01b038d16808452600a9094529782209651875460ff1916901515178755925186860155915160028601559451600390940193909355805491820181559091527f6e1540171b6c0c960b71a7020d9f60077f6af931a8bbf590da0223dacf75c7af0180546001600160a01b0319169091179055611a1c848484846105b5565b50505050565b600080600080600560019054906101000a900460ff1615611a555760405162461bcd60e51b81526004016106179061483b565b5050600d54600e54600f5460105492959194509250565b336001600160a01b03166000356001600160e01b0319166001600160e01b031916600036604051611a9e9291906144ef565b60405180910390a2600554610100900460ff1615611ace5760405162461bcd60e51b81526004016106179061483b565b6005805461ff0019166101001790556001600160a01b0381166000908152600a602052604090205460ff16611b155760405162461bcd60e51b815260040161061790614860565b6040516370a0823160e01b81526001600160a01b038216906370a0823190611b41903090600401614446565b60206040518083038186803b158015611b5957600080fd5b505afa158015611b6d573d6000803e3d6000fd5b505050506040513d601f19601f82011682018060405250810190611b9191906142e9565b6001600160a01b039091166000908152600a60205260409020600301556005805461ff0019169055565b60085460ff1690565b336001600160a01b03166000356001600160e01b0319166001600160e01b031916600036604051611bf69291906144ef565b60405180910390a2600554610100900460ff1615611c265760405162461bcd60e51b81526004016106179061483b565b6005805461ff001916610100179055600654336001600160a01b0390911614611c615760405162461bcd60e51b815260040161061790614571565b6001600160a01b038116611c875760405162461bcd60e51b815260040161061790614acd565b600680546001600160a01b0319166001600160a01b03929092169190911790556005805461ff0019169055565b600554600090610100900460ff1615611cdf5760405162461bcd60e51b81526004016106179061483b565b50600b5490565b600554600090610100900460ff1615611d115760405162461bcd60e51b81526004016106179061483b565b6001600160a01b0382166000908152600a602052604090205460ff16611d495760405162461bcd60e51b815260040161061790614860565b506001600160a01b03166000908152600a602052604090206002015490565b6060600480546109ba90614e0b565b336001600160a01b03166000356001600160e01b0319166001600160e01b031916600036604051611da99291906144ef565b60405180910390a2600554610100900460ff1615611dd95760405162461bcd60e51b81526004016106179061483b565b6005805461ff00191661010017905560085460ff1615611e0b5760405162461bcd60e51b81526004016106179061473f565b6006546001600160a01b03163314611e355760405162461bcd60e51b815260040161061790614571565b6001811015611e565760405162461bcd60e51b815260040161061790614670565b6064811115611e775760405162461bcd60e51b815260040161061790614a26565b600f556005805461ff0019169055565b6000611e94338484612f58565b50600192915050565b336001600160a01b03166000356001600160e01b0319166001600160e01b031916600036604051611ecf9291906144ef565b60405180910390a2600554610100900460ff1615611eff5760405162461bcd60e51b81526004016106179061483b565b6005805461ff00191661010017905560085460ff16611f305760405162461bcd60e51b815260040161061790614901565b6000611f3a610b34565b9050600073__Num___________________________________638c051bf38660006040518363ffffffff1660e01b8152600401611f78929190614bf3565b60206040518083038186803b158015611f9057600080fd5b505af4158015611fa4573d6000803e3d6000fd5b505050506040513d601f19601f82011682018060405250810190611fc891906142e9565b90506000611fd68287614dd1565b9050600073__Num___________________________________637673eb1183866040518363ffffffff1660e01b8152600401612013929190614bf3565b60206040518083038186803b15801561202b57600080fd5b505af415801561203f573d6000803e3d6000fd5b505050506040513d601f19601f8201168201806040525081019061206391906142e9565b9050806120825760405162461bcd60e51b815260040161061790614647565b61208c338861328f565b6005546120a8906201000090046001600160a01b0316846130d6565b6120b182613299565b60005b60095481101561229d576000600982815481106120e157634e487b7160e01b600052603260045260246000fd5b60009182526020808320909101546001600160a01b0316808352600a9091526040808320600301549051638c051bf360e01b8152919350919073__Num___________________________________90638c051bf3906121469088908690600401614bf3565b60206040518083038186803b15801561215e57600080fd5b505af4158015612172573d6000803e3d6000fd5b505050506040513d601f19601f8201168201806040525081019061219691906142e9565b9050806121b55760405162461bcd60e51b815260040161061790614647565b8989858181106121d557634e487b7160e01b600052603260045260246000fd5b905060200201358110156121fb5760405162461bcd60e51b815260040161061790614797565b6001600160a01b0383166000908152600a6020526040902060030154612222908290614dd1565b6001600160a01b0384166000818152600a60205260409081902060030192909255905133907fe74c91552b64c2e2e7bd255639e004e693bd3e1d01cc33e65610b86afcc1ffed90612274908590614bea565b60405180910390a3612287833383612c51565b505050808061229590614e46565b9150506120b4565b50506005805461ff0019169055505050505050565b600554606090610100900460ff16156122dd5760405162461bcd60e51b81526004016106179061483b565b60085460ff166122ff5760405162461bcd60e51b815260040161061790614901565b6009805480602002602001604051908101604052809291908181526020018280548015610a3357602002820191906000526020600020905b81546001600160a01b03168152600190910190602001808311612337575050505050905090565b336001600160a01b03166000356001600160e01b0319166001600160e01b0319166000366040516123909291906144ef565b60405180910390a2600554610100900460ff16156123c05760405162461bcd60e51b81526004016106179061483b565b6005805461ff001916610100179055600654336001600160a01b03909116146123fb5760405162461bcd60e51b815260040161061790614571565b6001600160a01b0381166000908152600a602052604090205460ff166124335760405162461bcd60e51b815260040161061790614860565b60085460ff16156124565760405162461bcd60e51b81526004016106179061473f565b6001600160a01b0381166000908152600a6020526040808220600301549051638c051bf360e01b815290919073__Num___________________________________90638c051bf3906124ae9085908590600401614bf3565b60206040518083038186803b1580156124c657600080fd5b505af41580156124da573d6000803e3d6000fd5b505050506040513d601f19601f820116820180604052508101906124fe91906142e9565b6001600160a01b0384166000908152600a6020526040902060020154600b5491925061252991614dd1565b600b556001600160a01b0383166000908152600a6020526040812060019081015460095490929161255991614dd1565b90506009818154811061257c57634e487b7160e01b600052603260045260246000fd5b600091825260209091200154600980546001600160a01b0390921691849081106125b657634e487b7160e01b600052603260045260246000fd5b9060005260206000200160006101000a8154816001600160a01b0302191690836001600160a01b0316021790555081600a60006009858154811061260a57634e487b7160e01b600052603260045260246000fd5b60009182526020808320909101546001600160a01b03168352820192909252604001902060010155600980548061265157634e487b7160e01b600052603160045260246000fd5b60008281526020808220600019908401810180546001600160a01b0319908116909155930190935560408051608081018252828152808501838152818301848152606083018581526001600160a01b038d8116808852600a8a528688209551865460ff1916901515178655935160018681019190915592516002860155905160039094019390935583518085018552858152808801868152928652600c909752929093209451855490941693169290921783555191015561271785336108de8688614dd1565b6005546115809086906201000090046001600160a01b031685612c51565b600554606090610100900460ff16156122ff5760405162461bcd60e51b81526004016106179061483b565b60095490565b6000806127778787878787426132a2565b915091509550959350505050565b600554600090610100900460ff16156127b05760405162461bcd60e51b81526004016106179061483b565b5060075490565b3360009081526001602090815260408083206001600160a01b03861684529091528120546127e6908390614c63565b3360008181526001602090815260408083206001600160a01b03891680855292529182902084905590519092600080516020614ea683398151915291610a849190614bea565b6001600160a01b03918216600090815260016020908152604080832093909416825291909152205490565b336001600160a01b03166000356001600160e01b0319166001600160e01b0319166000366040516128899291906144ef565b60405180910390a2600554610100900460ff16156128b95760405162461bcd60e51b81526004016106179061483b565b6005805461ff00191661010017905560085460ff16156128eb5760405162461bcd60e51b81526004016106179061473f565b6006546001600160a01b031633146129155760405162461bcd60e51b815260040161061790614571565b612928670de0b6b3a76400006004614db2565b8111156129475760405162461bcd60e51b81526004016106179061471c565b600d556005805461ff0019169055565b600554600090610100900460ff16156129825760405162461bcd60e51b81526004016106179061483b565b6001600160a01b0382166000908152600a602052604090205460ff166129ba5760405162461bcd60e51b815260040161061790614860565b506001600160a01b03166000908152600c602052604090206001015490565b600554600090610100900460ff1615612a045760405162461bcd60e51b81526004016106179061483b565b6001600160a01b0382166000908152600a602052604090205460ff16612a3c5760405162461bcd60e51b815260040161061790614860565b6001600160a01b0382166000908152600a60205260409081902060020154600b549151637673eb1160e01b8152909173__Num___________________________________91637673eb1191612a9691859190600401614bf3565b60206040518083038186803b158015612aae57600080fd5b505af4158015612ac2573d6000803e3d6000fd5b505050506040513d601f19601f82011682018060405250810190610b4991906142e9565b600554600090610100900460ff1615612b115760405162461bcd60e51b81526004016106179061483b565b6001600160a01b0382166000908152600a602052604090205460ff16612b495760405162461bcd60e51b815260040161061790614860565b506001600160a01b03166000908152600a602052604090206003015490565b600654600160a01b900460ff1690565b600080612b848561379b565b90506000612b918461379b565b90506000612ba183838842613a25565b51979650505050505050565b6040516323b872dd60e01b81526000906001600160a01b038516906323b872dd90612be09086903090879060040161445a565b602060405180830381600087803b158015612bfa57600080fd5b505af1158015612c0e573d6000803e3d6000fd5b505050506040513d601f19601f82011682018060405250810190612c32919061425c565b905080611a1c5760405162461bcd60e51b815260040161061790614a52565b60405163a9059cbb60e01b81526000906001600160a01b0385169063a9059cbb90612be0908690869060040161447e565b600080826001600160a01b031663feaf968c6040518163ffffffff1660e01b815260040160a06040518083038186803b158015612cbe57600080fd5b505afa158015612cd2573d6000803e3d6000fd5b505050506040513d601f19601f82011682018060405250810190612cf69190614379565b505050915050610b4981613c43565b600554600090610100900460ff1615612d305760405162461bcd60e51b81526004016106179061483b565b6000805b600954811015612d9a57612d7c60098281548110612d6257634e487b7160e01b600052603260045260246000fd5b6000918252602090912001546001600160a01b03166130e4565b612d869083614c63565b915080612d9281614e46565b915050612d34565b50905090565b600554600090610100900460ff1615612dcb5760405162461bcd60e51b81526004016106179061483b565b6001600160a01b0385166000908152600a602052604090205460ff16612e035760405162461bcd60e51b815260040161061790614860565b6001600160a01b0384166000908152600a602052604090205460ff16612e3b5760405162461bcd60e51b815260040161061790614860565b6000612e468661379b565b90506000612e538661379b565b905060006040518060400160405280600d548152602001600e54815250905060006040518060600160405280600f548152602001601054815260200187815250905073__Math__________________________________63f51041018560200151866040015186602001518760400151612ed58a604001518a60400151613c58565b8d89896040518963ffffffff1660e01b8152600401612efb989796959493929190614b89565b60206040518083038186803b158015612f1357600080fd5b505af4158015612f27573d6000803e3d6000fd5b505050506040513d601f19601f82011682018060405250810190612f4b91906142e9565b9998505050505050505050565b6001600160a01b038316600090815260208190526040902054811115612f905760405162461bcd60e51b8152600401610617906147e7565b6001600160a01b038216612fb65760405162461bcd60e51b815260040161061790614a7b565b6001600160a01b038316600090815260208190526040902054612fda908290614dd1565b6001600160a01b03808516600090815260208190526040808220939093559084168152205461300a908290614c63565b6001600160a01b038084166000818152602081905260409081902093909355915190851690600080516020614e868339815191529061304a908590614bea565b60405180910390a3505050565b6000816001600160a01b031663313ce5676040518163ffffffff1660e01b815260040160206040518083038186803b15801561309257600080fd5b505afa1580156130a6573d6000803e3d6000fd5b505050506040513d601f19601f82011682018060405250810190610b2c91906143c8565b6130d381613efe565b50565b6130e08282613f68565b5050565b6001600160a01b038082166000908152600a6020908152604080832060020154600c909252822054919273__Num___________________________________92638c051bf392918491637673eb119161313d9116612c82565b6001600160a01b0388166000908152600c6020526040908190206001015490516001600160e01b031960e085901b16815261317c929190600401614bf3565b60206040518083038186803b15801561319457600080fd5b505af41580156131a8573d6000803e3d6000fd5b505050506040513d601f19601f820116820180604052508101906131cc91906142e9565b6040518363ffffffff1660e01b81526004016131e9929190614bf3565b60206040518083038186803b15801561320157600080fd5b505af4158015613215573d6000803e3d6000fd5b505050506040513d601f19601f82011682018060405250810190610b2c91906142e9565b600554600090610100900460ff16156132645760405162461bcd60e51b81526004016106179061483b565b73__Num___________________________________637673eb11613287846130e4565b6131cc612d05565b6130e08282613f73565b6130d381613f7e565b604051600090819033906001600160e01b0319833516906132c690849036906144ef565b60405180910390a2600554610100900460ff16156132f65760405162461bcd60e51b81526004016106179061483b565b6005805461ff0019166101001790556001600160a01b0388166000908152600a602052604090205460ff1661333d5760405162461bcd60e51b815260040161061790614860565b6001600160a01b0386166000908152600a602052604090205460ff166133755760405162461bcd60e51b815260040161061790614860565b600654600160a01b900460ff1661339e5760405162461bcd60e51b8152600401610617906149f9565b60006133a98961379b565b905060006133b68861379b565b60208084015180519082015182840151805193015160075460405163a221ee4960e01b815295965060009573__Math__________________________________9563a221ee499561341295909490939192909190600401614c32565b60206040518083038186803b15801561342a57600080fd5b505af415801561343e573d6000803e3d6000fd5b505050506040513d601f19601f8201168201806040525081019061346291906142e9565b9050868111156134845760405162461bcd60e51b8152600401610617906148ac565b600061349284848d8a613a25565b905088816000015110156134b85760405162461bcd60e51b815260040161061790614797565b6020840151516134c9908c90614c63565b6001600160a01b038d166000908152600a6020908152604090912060030191909155815190840151516134fc9190614dd1565b600a60008c6001600160a01b03166001600160a01b031681526020019081526020016000206003018190555073__Math__________________________________63a221ee49600a60008f6001600160a01b03166001600160a01b0316815260200190815260200160002060030154866020015160200151600a60008f6001600160a01b03166001600160a01b03168152602001908152602001600020600301548760200151602001516007546040518663ffffffff1660e01b81526004016135c9959493929190614c32565b60206040518083038186803b1580156135e157600080fd5b505af41580156135f5573d6000803e3d6000fd5b505050506040513d601f19601f8201168201806040525081019061361991906142e9565b94508185101561363b5760405162461bcd60e51b815260040161061790614647565b8785111561365b5760405162461bcd60e51b8152600401610617906149d0565b8051604051637673eb1160e01b815273__Num___________________________________91637673eb1191613694918f91600401614bf3565b60206040518083038186803b1580156136ac57600080fd5b505af41580156136c0573d6000803e3d6000fd5b505050506040513d601f19601f820116820180604052508101906136e491906142e9565b8211156137035760405162461bcd60e51b815260040161061790614647565b896001600160a01b03168c6001600160a01b0316336001600160a01b03167f50ef2fc267012b5c84b56835f16ffd5331ac5a151a3760d74908721ba78b0efe8e8560000151866020015160405161375c93929190614c01565b60405180910390a461376f8c338d612bad565b61377e8a338360000151612c51565b516005805461ff00191690559b939a509298505050505050505050565b6137a361400c565b6001600160a01b038083166000818152600a602090815260408083208151608081018352815460ff1615158152600180830154828601526002830154828501526003909201546060820152948452600c8352818420825180840184528154909716808852910154928601929092528051633fabe5a360e21b8152905193949383928392909163feaf968c9160048082019260a092909190829003018186803b15801561384e57600080fd5b505afa158015613862573d6000803e3d6000fd5b505050506040513d601f19601f820116820180604052508101906138869190614379565b5093505092509250600060405180604001604052808760600151815260200173__Num___________________________________638c051bf3896040015173__Num___________________________________637673eb116138e78a613c43565b8c602001516040518363ffffffff1660e01b8152600401613909929190614bf3565b60206040518083038186803b15801561392157600080fd5b505af4158015613935573d6000803e3d6000fd5b505050506040513d601f19601f8201168201806040525081019061395991906142e9565b6040518363ffffffff1660e01b8152600401613976929190614bf3565b60206040518083038186803b15801561398e57600080fd5b505af41580156139a2573d6000803e3d6000fd5b505050506040513d601f19601f820116820180604052508101906139c691906142e9565b90526040805160808101825296516001600160a01b0390811688526001600160501b0390961660208089019190915287820195909552606080880194909452805193840181529890941682525090810191909152938401525090919050565b613a2d614041565b84516001600160a01b03166000908152600a602052604090206003015473__Num___________________________________90638c051bf390613a796002670de0b6b3a7640000614c7b565b6040518363ffffffff1660e01b8152600401613a96929190614bf3565b60206040518083038186803b158015613aae57600080fd5b505af4158015613ac2573d6000803e3d6000fd5b505050506040513d601f19601f82011682018060405250810190613ae691906142e9565b831115613b055760405162461bcd60e51b81526004016106179061461d565b84516001600160a01b03166000908152600a6020526040902060030154831115613b415760405162461bcd60e51b81526004016106179061459d565b60408051808201825284815260075460208083019190915282518084018452600d548152600e54818301528351606081018552600f54815260105481840152808501879052898301518a860151938a0151958a015194959294919373__Math__________________________________93635df6a2c693613bc28382613c58565b8989896040518963ffffffff1660e01b8152600401613be8989796959493929190614b21565b604080518083038186803b158015613bff57600080fd5b505af4158015613c13573d6000803e3d6000fd5b505050506040513d601f19601f82011682018060405250810190613c379190614278565b98975050505050505050565b6000808213613c5457506000610b2f565b5090565b60008083600001516001600160a01b031663313ce5676040518163ffffffff1660e01b815260040160206040518083038186803b158015613c9857600080fd5b505afa158015613cac573d6000803e3d6000fd5b505050506040513d601f19601f82011682018060405250810190613cd091906143c8565b9050600083600001516001600160a01b031663313ce5676040518163ffffffff1660e01b815260040160206040518083038186803b158015613d1157600080fd5b505afa158015613d25573d6000803e3d6000fd5b505050506040513d601f19601f82011682018060405250810190613d4991906143c8565b9050600073__Num___________________________________637673eb11613d748760400151613c43565b613d818960400151613c43565b6040518363ffffffff1660e01b8152600401613d9e929190614bf3565b60206040518083038186803b158015613db657600080fd5b505af4158015613dca573d6000803e3d6000fd5b505050506040513d601f19601f82011682018060405250810190613dee91906142e9565b90508160ff168360ff161415613e08579250610a90915050565b8160ff168360ff161115613ed05773__Num___________________________________638c051bf382670de0b6b3a7640000613e448688614de8565b613e4f90600a614ce1565b613e599190614db2565b6040518363ffffffff1660e01b8152600401613e76929190614bf3565b60206040518083038186803b158015613e8e57600080fd5b505af4158015613ea2573d6000803e3d6000fd5b505050506040513d601f19601f82011682018060405250810190613ec691906142e9565b9350505050610a90565b73__Num___________________________________637673eb1182670de0b6b3a7640000613e448787614de8565b30600090815260208190526040902054613f19908290614c63565b30600090815260208190526040902055600254613f37908290614c63565b6002556040513090600090600080516020614e8683398151915290613f5d908590614bea565b60405180910390a350565b6130e0308383612f58565b6130e0823083612f58565b30600090815260208190526040902054811115613fad5760405162461bcd60e51b8152600401610617906147e7565b30600090815260208190526040902054613fc8908290614dd1565b30600090815260208190526040902055600254613fe6908290614dd1565b6002556040516000903090600080516020614e8683398151915290613f5d908590614bea565b604051806060016040528060006001600160a01b0316815260200161402f614041565b815260200161403c61405b565b905290565b604051806040016040528060008152602001600081525090565b604051806080016040528060006001600160a01b0316815260200160006001600160501b0316815260200160008152602001600081525090565b80356001600160a01b0381168114610b2f57600080fd5b80516001600160501b0381168114610b2f57600080fd5b6000602082840312156140d4578081fd5b610b4982614095565b600080604083850312156140ef578081fd5b6140f883614095565b915061410660208401614095565b90509250929050565b600080600060608486031215614123578081fd5b61412c84614095565b925061413a60208501614095565b9150604084013590509250925092565b6000806040838503121561415c578182fd5b61416583614095565b946020939093013593505050565b600080600060608486031215614187578283fd5b61419084614095565b9250602084013591506141a560408501614095565b90509250925092565b600080600080600060a086880312156141c5578081fd5b6141ce86614095565b9450602086013593506141e360408701614095565b94979396509394606081013594506080013592915050565b60008060008060808587031215614210578384fd5b61421985614095565b9350602085013592506040850135915061423560608601614095565b905092959194509250565b600060208284031215614251578081fd5b8135610b4981614e77565b60006020828403121561426d578081fd5b8151610b4981614e77565b600060408284031215614289578081fd5b604080519081016001600160401b03811182821017156142b757634e487b7160e01b83526041600452602483fd5b604052825181526020928301519281019290925250919050565b6000602082840312156142e2578081fd5b5035919050565b6000602082840312156142fa578081fd5b5051919050565b600080600060408486031215614315578081fd5b8335925060208401356001600160401b0380821115614332578283fd5b818601915086601f830112614345578283fd5b813581811115614353578384fd5b8760208083028501011115614366578384fd5b6020830194508093505050509250925092565b600080600080600060a08688031215614390578283fd5b614399866140ac565b94506020860151935060408601519250606086015191506143bc608087016140ac565b90509295509295909350565b6000602082840312156143d9578081fd5b815160ff81168114610b49578182fd5b80518252602090810151910152565b8051825260208082015190830152604090810151910152565b80516001600160a01b031682526020808201516001600160501b03169083015260408082015190830152606090810151910152565b6001600160a01b0391909116815260200190565b6001600160a01b039384168152919092166020820152604081019190915260600190565b6001600160a01b03929092168252602082015260400190565b6020808252825182820181905260009190848201906040850190845b818110156144d85783516001600160a01b0316835292840192918401916001016144b3565b50909695505050505050565b901515815260200190565b60006020825282602083015282846040840137818301604090810191909152601f909201601f19160101919050565b6000602080835283518082850152825b8181101561454a5785810183015185820160400152820161452e565b8181111561455b5783604083870101525b50601f01601f1916929092016040019392505050565b60208082526012908201527122a9292fa727aa2fa1a7a72a2927a62622a960711b604082015260600190565b6020808252601890820152774552525f494e53554646494349454e545f5245534552564560401b604082015260600190565b6020808252600c908201526b11549497d254d7d093d5539160a21b604082015260600190565b6020808252600e908201526d4552525f4d41585f544f4b454e5360901b604082015260600190565b60208082526010908201526f4552525f4d41585f494e5f524154494f60801b604082015260600190565b6020808252600f908201526e08aa4a4be9a82a890be82a0a0a49eb608b1b604082015260600190565b6020808252601290820152714552525f4d494e5f4c425f504552494f445360701b604082015260600190565b6020808252600b908201526a4552525f4d494e5f46454560a81b604082015260600190565b60208082526019908201527822a9292fa827a7a62faa27a5a2a72fa120a22fa1a0a62622a960391b604082015260600190565b6020808252600e908201526d11549497d3505617d5d15251d21560921b604082015260600190565b60208082526009908201526822a9292fa6a0ac2fad60b91b604082015260600190565b60208082526010908201526f11549497d254d7d1925390531256915160821b604082015260600190565b60208082526014908201527311549497d3505617d513d5105317d5d15251d21560621b604082015260600190565b6020808252600d908201526c11549497d31253525517d3d555609a1b604082015260600190565b6020808252600f908201526e4552525f4d494e5f42414c414e434560881b604082015260600190565b60208082526014908201527311549497d25394d551919250d251539517d0905360621b604082015260600190565b6020808252600c908201526b22a9292fa624a6a4aa2fa4a760a11b604082015260600190565b6020808252600b908201526a4552525f5245454e54525960a81b604082015260600190565b6020808252600d908201526c11549497d393d517d093d55391609a1b604082015260600190565b6020808252600b908201526a4552525f4d41585f46454560a81b604082015260600190565b6020808252601390820152724552525f4241445f4c494d49545f505249434560681b604082015260600190565b6020808252600e908201526d11549497d3525397d5d15251d21560921b604082015260600190565b60208082526011908201527011549497d393d517d19253905312569151607a1b604082015260600190565b6020808252600f908201526e22a9292fa6a0ac2fa427a924ad27a760891b604082015260600190565b6020808252600f908201526e4552525f4d494e5f4c425f5345435360881b604082015260600190565b6020808252600f908201526e22a9292fa6a4a72fa427a924ad27a760891b604082015260600190565b6020808252600f908201526e4552525f4d41585f4c425f5345435360881b604082015260600190565b6020808252600f908201526e4552525f4c494d49545f505249434560881b604082015260600190565b6020808252601390820152724552525f535741505f4e4f545f5055424c494360681b604082015260600190565b6020808252601290820152714552525f4d41585f4c425f504552494f445360701b604082015260600190565b6020808252600f908201526e4552525f45524332305f46414c534560881b604082015260600190565b60208082526010908201526f4552525f4e554c4c5f4144445245535360801b604082015260600190565b6020808252600e908201526d4552525f4d494e5f544f4b454e5360901b604082015260600190565b60208082526013908201527222a9292fa72aa6262fa1a7a72a2927a62622a960691b604082015260600190565b6020808252600d908201526c4552525f4645455f494e465f3160981b604082015260600190565b6102808101614b30828b6143e9565b614b3d604083018a614411565b614b4a60c08301896143e9565b614b58610100830188614411565b85610180830152614b6d6101a08301866143e9565b614b7b6101e08301856143e9565b612f4b6102208301846143f8565b6102608101614b98828b6143e9565b614ba5604083018a614411565b614bb260c08301896143e9565b614bc0610100830188614411565b85610180830152846101a0830152614bdc6101c08301856143e9565b612f4b6102008301846143f8565b90815260200190565b918252602082015260400190565b9283526020830191909152604082015260600190565b93845260208401929092526040830152606082015260800190565b948552602085019390935260408401919091526060830152608082015260a00190565b60ff91909116815260200190565b60008219821115614c7657614c76614e61565b500190565b600082614c9657634e487b7160e01b81526012600452602481fd5b500490565b80825b6001808611614cad5750614cd8565b818704821115614cbf57614cbf614e61565b80861615614ccc57918102915b9490941c938002614c9e565b94509492505050565b6000610b4960001960ff851684600082614cfd57506001610b49565b81614d0a57506000610b49565b8160018114614d205760028114614d2a57614d57565b6001915050610b49565b60ff841115614d3b57614d3b614e61565b6001841b915084821115614d5157614d51614e61565b50610b49565b5060208310610133831016604e8410600b8410161715614d8a575081810a83811115614d8557614d85614e61565b610b49565b614d978484846001614c9b565b808604821115614da957614da9614e61565b02949350505050565b6000816000190483118215151615614dcc57614dcc614e61565b500290565b600082821015614de357614de3614e61565b500390565b600060ff821660ff841680821015614e0257614e02614e61565b90039392505050565b600281046001821680614e1f57607f821691505b60208210811415614e4057634e487b7160e01b600052602260045260246000fd5b50919050565b6000600019821415614e5a57614e5a614e61565b5060010190565b634e487b7160e01b600052601160045260246000fd5b80151581146130d357600080fdfeddf252ad1be2c89b69c2b068fc378daa952ba7f163c4a11628f55a4df523b3ef8c5be1e5ebec7d5bd14f71427d1e84f3dd0314c0f7b2291e5b200ac8c7c3b925a2646970667358221220a3781f869fb0e31eb525c1ffc5deeba19a39c7c1960e766328b2c816d3cf46dc64736f6c63430008000033",
  "immutableReferences": {},
  "source": "// SPDX-License-Identifier: GPL-3.0-or-later\n// This program is free software: you can redistribute it and/or modify\n// it under the terms of the GNU General Public License as published by\n// the Free Software Foundation, either version 3 of the License, or\n// (at your option) any later version.\n\n// This program is distributed in the hope that it will be useful,\n// but WITHOUT ANY WARRANTY; without even the implied warranty of\n// MERCHANTABILITY or FITNESS FOR A PARTICULAR PURPOSE.  See the\n// GNU General Public License for more details.\n\n// You should have received a copy of the GNU General Public License\n// along with this program.  If not, see <http://www.gnu.org/licenses/>.\n\npragma solidity =0.8.0;\n\nimport \"./Const.sol\";\nimport \"./PoolToken.sol\";\nimport \"./Math.sol\";\n\nimport \"./Num.sol\";\nimport \"./structs/Struct.sol\";\n\n\ncontract Pool is PoolToken {\n\n    struct Record {\n        bool bound;   // is token bound to pool\n        uint256 index;   // private\n        uint256 denorm;  // denormalized weight\n        uint256 balance;\n    }\n\n    event LOG_SWAP(\n        address indexed caller,\n        address indexed tokenIn,\n        address indexed tokenOut,\n        uint256         tokenAmountIn,\n        uint256         tokenAmountOut,\n        uint256         spread\n    );\n\n    event LOG_JOIN(\n        address indexed caller,\n        address indexed tokenIn,\n        uint256         tokenAmountIn\n    );\n\n    event LOG_EXIT(\n        address indexed caller,\n        address indexed tokenOut,\n        uint256         tokenAmountOut\n    );\n\n    event LOG_CALL(\n        bytes4  indexed sig,\n        address indexed caller,\n        bytes           data\n    ) anonymous;\n\n    modifier _logs_() {\n        emit LOG_CALL(msg.sig, msg.sender, msg.data);\n        _;\n    }\n\n    modifier _lock_() {\n        require(!_mutex, \"ERR_REENTRY\");\n        _mutex = true;\n        _;\n        _mutex = false;\n    }\n\n    modifier _viewlock_() {\n        require(!_mutex, \"ERR_REENTRY\");\n        _;\n    }\n\n    bool private _mutex;\n\n    address private _factory;    // Factory address to push token exitFee to\n    address private _controller; // has CONTROL role\n    bool private _publicSwap; // true if PUBLIC can call SWAP functions\n\n    // `setSwapFee` and `finalize` require CONTROL\n    // `finalize` sets `PUBLIC can SWAP`, `PUBLIC can JOIN`\n    uint256 private _swapFee;\n    bool private _finalized;\n\n    address[] private _tokens;\n    mapping(address=>Record) private _records;\n    uint256 private _totalWeight;\n\n    constructor() {\n        _controller = msg.sender;\n        _factory = msg.sender;\n        _swapFee = Const.MIN_FEE;\n        _publicSwap = false;\n        _finalized = false;\n    }\n\n    function isPublicSwap()\n    external view\n    returns (bool)\n    {\n        return _publicSwap;\n    }\n\n    function isFinalized()\n    external view\n    returns (bool)\n    {\n        return _finalized;\n    }\n\n    function isBound(address t)\n    external view\n    returns (bool)\n    {\n        return _records[t].bound;\n    }\n\n    function getNumTokens()\n    external view\n    returns (uint256)\n    {\n        return _tokens.length;\n    }\n\n    function getCurrentTokens()\n    external view _viewlock_\n    returns (address[] memory tokens)\n    {\n        return _tokens;\n    }\n\n    function getFinalTokens()\n    external view\n    _viewlock_\n    returns (address[] memory tokens)\n    {\n        require(_finalized, \"ERR_NOT_FINALIZED\");\n        return _tokens;\n    }\n\n    function getDenormalizedWeight(address token)\n    external view\n    _viewlock_\n    returns (uint256)\n    {\n\n        require(_records[token].bound, \"ERR_NOT_BOUND\");\n        return _records[token].denorm;\n    }\n\n    function getTotalDenormalizedWeight()\n    external view\n    _viewlock_\n    returns (uint256)\n    {\n        return _totalWeight;\n    }\n\n    function getNormalizedWeight(address token)\n    external view\n    _viewlock_\n    returns (uint256)\n    {\n\n        require(_records[token].bound, \"ERR_NOT_BOUND\");\n        uint256 denorm = _records[token].denorm;\n        return Num.bdiv(denorm, _totalWeight);\n    }\n\n    function getBalance(address token)\n    external view\n    _viewlock_\n    returns (uint256)\n    {\n\n        require(_records[token].bound, \"ERR_NOT_BOUND\");\n        return _records[token].balance;\n    }\n\n    function getSwapFee()\n    external view\n    _viewlock_\n    returns (uint256)\n    {\n        return _swapFee;\n    }\n\n    function getController()\n    external view\n    _viewlock_\n    returns (address)\n    {\n        return _controller;\n    }\n\n    function setSwapFee(uint256 swapFee)\n    external\n    _logs_\n    _lock_\n    {\n        require(!_finalized, \"ERR_IS_FINALIZED\");\n        require(msg.sender == _controller, \"ERR_NOT_CONTROLLER\");\n        require(swapFee >= Const.MIN_FEE, \"ERR_MIN_FEE\");\n        require(swapFee <= Const.MAX_FEE, \"ERR_MAX_FEE\");\n        require(swapFee >= 0, \"ERR_FEE_SUP_0\");\n        require(swapFee <= Const.BONE, \"ERR_FEE_INF_1\");\n        _swapFee = swapFee;\n    }\n\n    function setController(address manager)\n    external\n    _logs_\n    _lock_\n    {\n        require(msg.sender == _controller, \"ERR_NOT_CONTROLLER\");\n        require(manager != address(0), \"ERR_NULL_CONTROLLER\");\n        _controller = manager;\n    }\n\n    function setPublicSwap(bool public_)\n    external\n    _logs_\n    _lock_\n    {\n        require(!_finalized, \"ERR_IS_FINALIZED\");\n        require(msg.sender == _controller, \"ERR_NOT_CONTROLLER\");\n        _publicSwap = public_;\n    }\n\n    function finalize()\n    public\n    _logs_\n    _lock_\n    {\n        require(!_finalized, \"ERR_IS_FINALIZED\");\n        require(msg.sender == _controller, \"ERR_NOT_CONTROLLER\");\n        require(_tokens.length >= Const.MIN_BOUND_TOKENS, \"ERR_MIN_TOKENS\");\n\n        _finalized = true;\n        _publicSwap = true;\n\n        _mintPoolShare(Const.INIT_POOL_SUPPLY);\n        _pushPoolShare(msg.sender, Const.INIT_POOL_SUPPLY);\n    }\n\n    // Absorb any tokens that have been sent to this contract into the pool\n    function gulp(address token)\n    external\n    _logs_\n    _lock_\n    {\n        require(_records[token].bound, \"ERR_NOT_BOUND\");\n        _records[token].balance = IERC20(token).balanceOf(address(this));\n    }\n\n    function joinPool(uint256 poolAmountOut, uint256[] calldata maxAmountsIn)\n    public\n    _logs_\n    _lock_\n    {\n        require(_finalized, \"ERR_NOT_FINALIZED\");\n\n        uint256 poolTotal = totalSupply();\n        uint256 ratio = Num.bdiv(poolAmountOut, poolTotal);\n        require(ratio != 0, \"ERR_MATH_APPROX\");\n\n        for (uint256 i = 0; i < _tokens.length; i++) {\n            address t = _tokens[i];\n            uint256 bal = _records[t].balance;\n            uint256 tokenAmountIn = Num.bmul(ratio, bal);\n            require(tokenAmountIn != 0, \"ERR_MATH_APPROX\");\n            require(tokenAmountIn <= maxAmountsIn[i], \"ERR_LIMIT_IN\");\n            _records[t].balance = _records[t].balance + tokenAmountIn;\n            emit LOG_JOIN(msg.sender, t, tokenAmountIn);\n            _pullUnderlying(t, msg.sender, tokenAmountIn);\n        }\n        _mintPoolShare(poolAmountOut);\n        _pushPoolShare(msg.sender, poolAmountOut);\n    }\n\n    function exitPool(uint256 poolAmountIn, uint256[] calldata minAmountsOut)\n    external\n    _logs_\n    _lock_\n    {\n        require(_finalized, \"ERR_NOT_FINALIZED\");\n\n        uint256 poolTotal = totalSupply();\n        uint256 exitFee = Num.bmul(poolAmountIn, Const.EXIT_FEE);\n        uint256 pAiAfterExitFee = poolAmountIn - exitFee;\n        uint256 ratio = Num.bdiv(pAiAfterExitFee, poolTotal);\n        require(ratio != 0, \"ERR_MATH_APPROX\");\n\n        _pullPoolShare(msg.sender, poolAmountIn);\n        _pushPoolShare(_factory, exitFee);\n        _burnPoolShare(pAiAfterExitFee);\n\n        for (uint256 i = 0; i < _tokens.length; i++) {\n            address t = _tokens[i];\n            uint256 bal = _records[t].balance;\n            uint256 tokenAmountOut = Num.bmul(ratio, bal);\n            require(tokenAmountOut != 0, \"ERR_MATH_APPROX\");\n            require(tokenAmountOut >= minAmountsOut[i], \"ERR_LIMIT_OUT\");\n            _records[t].balance = _records[t].balance - tokenAmountOut;\n            emit LOG_EXIT(msg.sender, t, tokenAmountOut);\n            _pushUnderlying(t, msg.sender, tokenAmountOut);\n        }\n\n    }\n\n    // ==\n    // 'Underlying' token-manipulation functions make external calls but are NOT locked\n    // You must `_lock_` or otherwise ensure reentry-safety\n\n    function _pullUnderlying(address erc20, address from, uint256 amount)\n    internal\n    {\n        bool xfer = IERC20(erc20).transferFrom(from, address(this), amount);\n        require(xfer, \"ERR_ERC20_FALSE\");\n    }\n\n    function _pushUnderlying(address erc20, address to, uint256 amount)\n    internal\n    {\n        bool xfer = IERC20(erc20).transfer(to, amount);\n        require(xfer, \"ERR_ERC20_FALSE\");\n    }\n\n    function _pullPoolShare(address from, uint256 amount)\n    internal\n    {\n        _pull(from, amount);\n    }\n\n    function _pushPoolShare(address to, uint256 amount)\n    internal\n    {\n        _push(to, amount);\n    }\n\n    function _mintPoolShare(uint256 amount)\n    internal\n    {\n        _mint(amount);\n    }\n\n    function _burnPoolShare(uint256 amount)\n    internal\n    {\n        _burn(amount);\n    }\n\n    struct Price {\n        IAggregatorV3 oracle;\n        uint256 initialPrice;\n    }\n\n    event LOG_PRICE(\n        address indexed token,\n        address oracle,\n        uint256 value\n    ) anonymous;\n\n    mapping(address=>Price) private _prices;\n\n    uint256 dynamicCoverageFeesZ = Const.BASE_Z;\n    uint256 dynamicCoverageFeesHorizon = Const.BASE_HORIZON;\n\n    uint256 priceStatisticsLookbackInRound = Const.BASE_LOOKBACK_IN_ROUND;\n    uint256 priceStatisticsLookbackInSec = Const.BASE_LOOKBACK_IN_SEC;\n\n    function setDynamicCoverageFeesZ(uint256 _dynamicCoverageFeesZ)\n    external\n    _logs_\n    _lock_\n    {\n        require(!_finalized, \"ERR_IS_FINALIZED\");\n        require(msg.sender == _controller, \"ERR_NOT_CONTROLLER\");\n        require(_dynamicCoverageFeesZ >= 0, \"ERR_MIN_Z\");\n        require(_dynamicCoverageFeesZ <= Const.MAX_Z, \"ERR_MAX_Z\");\n        dynamicCoverageFeesZ = _dynamicCoverageFeesZ;\n    }\n\n    function setDynamicCoverageFeesHorizon(uint256 _dynamicCoverageFeesHorizon)\n    external\n    _logs_\n    _lock_\n    {\n        require(!_finalized, \"ERR_IS_FINALIZED\");\n        require(msg.sender == _controller, \"ERR_NOT_CONTROLLER\");\n        require(_dynamicCoverageFeesHorizon >= Const.MIN_HORIZON, \"ERR_MIN_HORIZON\");\n        require(_dynamicCoverageFeesHorizon <= Const.MAX_HORIZON, \"ERR_MAX_HORIZON\");\n        dynamicCoverageFeesHorizon = _dynamicCoverageFeesHorizon;\n    }\n\n    function setPriceStatisticsLookbackInRound(uint256 _priceStatisticsLookbackInRound)\n    external\n    _logs_\n    _lock_\n    {\n        require(!_finalized, \"ERR_IS_FINALIZED\");\n        require(msg.sender == _controller, \"ERR_NOT_CONTROLLER\");\n        require(_priceStatisticsLookbackInRound >= Const.MIN_LOOKBACK_IN_ROUND, \"ERR_MIN_LB_PERIODS\");\n        require(_priceStatisticsLookbackInRound <= Const.MAX_LOOKBACK_IN_ROUND, \"ERR_MAX_LB_PERIODS\");\n        priceStatisticsLookbackInRound = _priceStatisticsLookbackInRound;\n    }\n\n    function setPriceStatisticsLookbackInSec(uint256 _priceStatisticsLookbackInSec)\n    external\n    _logs_\n    _lock_\n    {\n        require(!_finalized, \"ERR_IS_FINALIZED\");\n        require(msg.sender == _controller, \"ERR_NOT_CONTROLLER\");\n        require(_priceStatisticsLookbackInSec >= Const.MIN_LOOKBACK_IN_SEC, \"ERR_MIN_LB_SECS\");\n        require(_priceStatisticsLookbackInSec <= Const.MAX_LOOKBACK_IN_SEC, \"ERR_MAX_LB_SECS\");\n        priceStatisticsLookbackInSec = _priceStatisticsLookbackInSec;\n    }\n\n    function getCoverageParameters()\n    external view\n    _viewlock_\n    returns (uint256, uint256, uint256, uint256)\n    {\n        return (\n            dynamicCoverageFeesZ,\n            dynamicCoverageFeesHorizon,\n            priceStatisticsLookbackInRound,\n            priceStatisticsLookbackInSec\n        );\n    }\n\n    function getTokenPriceDecimals(address token)\n    external view\n    _viewlock_\n    returns (uint8)\n    {\n        require(_records[token].bound, \"ERR_NOT_BOUND\");\n        return _getTokenPriceDecimals(_prices[token].oracle);\n    }\n\n    function getTokenOraclePrice(address token)\n    external view\n    _viewlock_\n    returns (uint256)\n    {\n\n        require(_records[token].bound, \"ERR_NOT_BOUND\");\n        return _getTokenCurrentPrice(_prices[token].oracle);\n    }\n\n    function getTokenOracleInitialPrice(address token)\n    external view\n    _viewlock_\n    returns (uint256)\n    {\n\n        require(_records[token].bound, \"ERR_NOT_BOUND\");\n        return _prices[token].initialPrice;\n    }\n\n    function getTokenPriceMMM(address token)\n    external view\n    _viewlock_\n    returns (address)\n    {\n\n        require(_records[token].bound, \"ERR_NOT_BOUND\");\n        return address(_prices[token].oracle);\n    }\n\n    function getDenormalizedWeightMMM(address token)\n    external view\n    returns (uint256)\n    {\n        require(_records[token].bound, \"ERR_NOT_BOUND\");\n        return _getAdjustedTokenWeight(token);\n    }\n\n    function getTotalDenormalizedWeightMMM()\n    external view\n    returns (uint256)\n    {\n        return _getTotalDenormalizedWeightMMM();\n    }\n\n    function getNormalizedWeightMMM(address token)\n    external view\n    returns (uint256)\n    {\n\n        require(_records[token].bound, \"ERR_NOT_BOUND\");\n        return _getNormalizedWeightMMM(token);\n    }\n\n    function _getTotalDenormalizedWeightMMM()\n    internal view\n    _viewlock_\n    returns (uint256)\n    {\n        uint256 _totalWeightMMM;\n        for (uint256 i = 0; i < _tokens.length; i++) {\n            _totalWeightMMM += _getAdjustedTokenWeight(_tokens[i]);\n        }\n        return _totalWeightMMM;\n    }\n\n    function _getNormalizedWeightMMM(address token)\n    internal view\n    _viewlock_\n    returns (uint256)\n    {\n\n        return Num.bdiv(_getAdjustedTokenWeight(token), _getTotalDenormalizedWeightMMM());\n    }\n\n    function bindMMM(address token, uint256 balance, uint256 denorm, address _priceFeedAddress)\n    external\n    _logs_\n        // _lock_  Bind does not lock because it jumps to `rebind`, which does\n    {\n        require(msg.sender == _controller, \"ERR_NOT_CONTROLLER\");\n        require(!_records[token].bound, \"ERR_IS_BOUND\");\n        require(!_finalized, \"ERR_IS_FINALIZED\");\n\n        require(_tokens.length < Const.MAX_BOUND_TOKENS, \"ERR_MAX_TOKENS\");\n\n        _records[token] = Record(\n            {\n                bound: true,\n                index: _tokens.length,\n                denorm: 0,    // balance and denorm will be validated\n                balance: 0   // and set by `rebind`\n            }\n        );\n        _tokens.push(token);\n        rebindMMM(token, balance, denorm, _priceFeedAddress);\n    }\n\n    function rebindMMM(address token, uint256 balance, uint256 denorm, address _priceFeedAddress)\n    public\n    _logs_\n    _lock_\n    {\n\n        require(msg.sender == _controller, \"ERR_NOT_CONTROLLER\");\n        require(_records[token].bound, \"ERR_NOT_BOUND\");\n        require(!_finalized, \"ERR_IS_FINALIZED\");\n\n        require(denorm >= Const.MIN_WEIGHT, \"ERR_MIN_WEIGHT\");\n        require(denorm <= Const.MAX_WEIGHT, \"ERR_MAX_WEIGHT\");\n        require(balance >= Const.MIN_BALANCE, \"ERR_MIN_BALANCE\");\n\n        // Adjust the denorm and totalWeight\n        uint256 oldWeight = _records[token].denorm;\n        if (denorm > oldWeight) {\n            _totalWeight = _totalWeight + (denorm - oldWeight);\n            require(_totalWeight <= Const.MAX_TOTAL_WEIGHT, \"ERR_MAX_TOTAL_WEIGHT\");\n        } else if (denorm < oldWeight) {\n            _totalWeight = (_totalWeight - oldWeight) + denorm;\n        }\n        _records[token].denorm = denorm;\n\n        // Adjust the balance record and actual token balance\n        uint256 oldBalance = _records[token].balance;\n        _records[token].balance = balance;\n        if (balance > oldBalance) {\n            _pullUnderlying(token, msg.sender, balance - oldBalance);\n        } else if (balance < oldBalance) {\n            // In this case liquidity is being withdrawn, so charge EXIT_FEE\n            uint256 tokenBalanceWithdrawn = oldBalance - balance;\n            uint256 tokenExitFee = Num.bmul(tokenBalanceWithdrawn, Const.EXIT_FEE);\n            _pushUnderlying(token, msg.sender, tokenBalanceWithdrawn - tokenExitFee);\n            _pushUnderlying(token, _factory, tokenExitFee);\n        }\n\n        // Add token price\n        _prices[token] = Price(\n            {\n                oracle: IAggregatorV3(_priceFeedAddress),\n                initialPrice: 0 // set right below\n            }\n        );\n        _prices[token].initialPrice = _getTokenCurrentPrice(_prices[token].oracle);\n        emit LOG_PRICE(token, address(_prices[token].oracle), _prices[token].initialPrice);\n    }\n\n    function unbindMMM(address token)\n    external\n    _logs_\n    _lock_\n    {\n\n        require(msg.sender == _controller, \"ERR_NOT_CONTROLLER\");\n        require(_records[token].bound, \"ERR_NOT_BOUND\");\n        require(!_finalized, \"ERR_IS_FINALIZED\");\n\n        uint256 tokenBalance = _records[token].balance;\n        uint256 tokenExitFee = Num.bmul(tokenBalance, Const.EXIT_FEE);\n\n        _totalWeight = _totalWeight - _records[token].denorm;\n\n        // Swap the token-to-unbind with the last token,\n        // then delete the last token\n        uint256 index = _records[token].index;\n        uint256 last = _tokens.length - 1;\n        _tokens[index] = _tokens[last];\n        _records[_tokens[index]].index = index;\n        _tokens.pop();\n        _records[token] = Record(\n            {\n                bound: false,\n                index: 0,\n                denorm: 0,\n                balance: 0\n            }\n        );\n        _prices[token] = Price({oracle: IAggregatorV3(address(0)), initialPrice: 0});\n\n        _pushUnderlying(token, msg.sender, tokenBalance - tokenExitFee);\n        _pushUnderlying(token, _factory, tokenExitFee);\n\n    }\n\n    function _getSpotPriceMMMWithTimestamp(address tokenIn, address tokenOut, uint256 swapFee, uint256 timestamp)\n    internal view _viewlock_\n    returns (uint256 spotPrice)\n    {\n        require(_records[tokenIn].bound, \"ERR_NOT_BOUND\");\n        require(_records[tokenOut].bound, \"ERR_NOT_BOUND\");\n\n        Struct.TokenGlobal memory tokenGlobalIn = getTokenLatestInfo(tokenIn);\n        Struct.TokenGlobal memory tokenGlobalOut = getTokenLatestInfo(tokenOut);\n        \n        Struct.GBMParameters memory gbmParameters = Struct.GBMParameters(dynamicCoverageFeesZ, dynamicCoverageFeesHorizon);\n        Struct.HistoricalPricesParameters memory hpParameters = Struct.HistoricalPricesParameters(\n            priceStatisticsLookbackInRound,\n            priceStatisticsLookbackInSec,\n            timestamp\n        );\n\n        return Math.calcSpotPriceMMM(\n            tokenGlobalIn.info, tokenGlobalIn.latestRound,\n            tokenGlobalOut.info, tokenGlobalOut.latestRound,\n            getTokenOutPriceInTokenInTerms(tokenGlobalIn.latestRound, tokenGlobalOut.latestRound),\n            swapFee, gbmParameters,\n            hpParameters\n        );\n    }\n\n    function getSpotPriceMMM(address tokenIn, address tokenOut)\n    external view\n    returns (uint256 spotPrice)\n    {\n        return _getSpotPriceMMMWithTimestamp(tokenIn, tokenOut, _swapFee, block.timestamp);\n    }\n\n    function getSpotPriceSansFeeMMM(address tokenIn, address tokenOut)\n    external view\n    returns (uint256 spotPrice)\n    {\n        return _getSpotPriceMMMWithTimestamp(tokenIn, tokenOut, 0, block.timestamp);\n    }\n\n    function swapExactAmountInMMM(\n        address tokenIn,\n        uint256 tokenAmountIn,\n        address tokenOut,\n        uint256 minAmountOut,\n        uint256 maxPrice\n    )\n    external\n    returns (uint256 tokenAmountOut, uint256 spotPriceAfter)\n    {\n        return _swapExactAmountInMMMWithTimestamp(\n            tokenIn,\n            tokenAmountIn,\n            tokenOut,\n            minAmountOut,\n            maxPrice,\n            block.timestamp\n        );\n    }\n\n    function _swapExactAmountInMMMWithTimestamp(\n        address tokenIn,\n        uint256 tokenAmountIn,\n        address tokenOut,\n        uint256 minAmountOut,\n        uint256 maxPrice,\n        uint256 timestamp\n    )\n    internal\n    _logs_\n    _lock_\n    returns (uint256 tokenAmountOut, uint256 spotPriceAfter)\n    {\n\n        require(_records[tokenIn].bound, \"ERR_NOT_BOUND\");\n        require(_records[tokenOut].bound, \"ERR_NOT_BOUND\");\n        require(_publicSwap, \"ERR_SWAP_NOT_PUBLIC\");\n\n        Struct.TokenGlobal memory tokenGlobalIn = getTokenLatestInfo(tokenIn);\n        Struct.TokenGlobal memory tokenGlobalOut = getTokenLatestInfo(tokenOut);\n\n        uint256 spotPriceBefore = Math.calcSpotPrice(\n            tokenGlobalIn.info.balance,\n            tokenGlobalIn.info.weight,\n            tokenGlobalOut.info.balance,\n            tokenGlobalOut.info.weight,\n            _swapFee\n        );\n        require(spotPriceBefore <= maxPrice, \"ERR_BAD_LIMIT_PRICE\");\n\n        Struct.SwapResult memory swapResult = _getAmountOutGivenInMMMWithTimestamp(\n            tokenGlobalIn,\n            tokenGlobalOut,\n            tokenAmountIn,\n            timestamp\n        );\n        require(swapResult.amount >= minAmountOut, \"ERR_LIMIT_OUT\");\n\n        _records[address(tokenIn)].balance = tokenGlobalIn.info.balance + tokenAmountIn;\n        _records[address(tokenOut)].balance = tokenGlobalOut.info.balance - swapResult.amount;\n\n        spotPriceAfter = Math.calcSpotPrice(\n            _records[address(tokenIn)].balance,\n            tokenGlobalIn.info.weight,\n            _records[address(tokenOut)].balance,\n            tokenGlobalOut.info.weight,\n            _swapFee\n        );\n        require(spotPriceAfter >= spotPriceBefore, \"ERR_MATH_APPROX\");\n        require(spotPriceAfter <= maxPrice, \"ERR_LIMIT_PRICE\");\n        require(spotPriceBefore <= Num.bdiv(tokenAmountIn, swapResult.amount), \"ERR_MATH_APPROX\");\n\n        emit LOG_SWAP(msg.sender, tokenIn, tokenOut, tokenAmountIn, swapResult.amount, swapResult.spread);\n\n        _pullUnderlying(tokenIn, msg.sender, tokenAmountIn);\n        _pushUnderlying(tokenOut, msg.sender, swapResult.amount);\n\n        return (tokenAmountOut = swapResult.amount, spotPriceAfter = spotPriceAfter);\n    }\n\n    function getAmountOutGivenInMMM(\n        address tokenIn,\n        uint256 tokenAmountIn,\n        address tokenOut\n    )\n    public view\n    returns (uint256 tokenAmountOut)\n    {\n\n        Struct.TokenGlobal memory tokenGlobalIn = getTokenLatestInfo(tokenIn);\n        Struct.TokenGlobal memory tokenGlobalOut = getTokenLatestInfo(tokenOut);\n\n        Struct.SwapResult memory swapResult = _getAmountOutGivenInMMMWithTimestamp(\n            tokenGlobalIn,\n            tokenGlobalOut,\n            tokenAmountIn,\n            block.timestamp\n        );\n\n        return tokenAmountOut = swapResult.amount;\n    }\n\n    function _getAmountOutGivenInMMMWithTimestamp(\n        Struct.TokenGlobal memory tokenGlobalIn,\n        Struct.TokenGlobal memory tokenGlobalOut,\n        uint256 tokenAmountIn,\n        uint256 timestamp\n    )\n    internal view\n    returns (Struct.SwapResult memory)\n    {\n\n        require(tokenAmountIn <= Num.bmul(_records[tokenGlobalIn.token].balance, Const.MAX_IN_RATIO), \"ERR_MAX_IN_RATIO\");\n        require(tokenAmountIn <= _records[tokenGlobalIn.token].balance, \"ERR_INSUFFICIENT_RESERVE\");\n\n        Struct.SwapParameters memory swapParameters = Struct.SwapParameters(tokenAmountIn, _swapFee);\n        Struct.GBMParameters memory gbmParameters = Struct.GBMParameters(dynamicCoverageFeesZ, dynamicCoverageFeesHorizon);\n        Struct.HistoricalPricesParameters memory hpParameters = Struct.HistoricalPricesParameters(\n            priceStatisticsLookbackInRound,\n            priceStatisticsLookbackInSec,\n            timestamp\n        );\n\n        return Math.calcOutGivenInMMM(\n            tokenGlobalIn.info,\n            tokenGlobalIn.latestRound,\n            tokenGlobalOut.info,\n            tokenGlobalOut.latestRound,\n            getTokenOutPriceInTokenInTerms(tokenGlobalIn.latestRound, tokenGlobalOut.latestRound),\n            swapParameters,\n            gbmParameters,\n            hpParameters\n        );\n\n    }\n\n    function _getAdjustedTokenWeight(address token)\n    internal view returns (uint256) {\n        // we adjust the token's target weight (in value) based on its appreciation since the inception of the pool.\n        return Num.bmul(\n            _records[token].denorm,\n            Num.bdiv(\n                _getTokenCurrentPrice(_prices[token].oracle),\n                _prices[token].initialPrice\n            )\n        );\n    }\n\n    function getTokenLatestInfo(address token)\n    internal view returns (Struct.TokenGlobal memory tokenGlobal) {\n        Record memory record = _records[token];\n        Price memory price = _prices[token];\n        (uint80 latestRoundId, int256 latestPrice, , uint256 latestTimestamp,) = price.oracle.latestRoundData();\n        Struct.TokenRecord memory info = Struct.TokenRecord(\n            record.balance,\n            // we adjust the token's target weight (in value) based on its appreciation since the inception of the pool.\n            Num.bmul(\n                record.denorm,\n                Num.bdiv(\n                    _toUInt256Unsafe(latestPrice),\n                    price.initialPrice\n                )\n            )\n        );\n        Struct.LatestRound memory latestRound = Struct.LatestRound(address(price.oracle), latestRoundId, latestPrice, latestTimestamp);\n        return (\n            tokenGlobal = Struct.TokenGlobal(\n                token,\n                info,\n                latestRound\n            )\n        );\n    }\n\n    function _getTokenCurrentPrice(IAggregatorV3 priceFeed) internal view returns (uint256) {\n        (, int256 price, , ,) = priceFeed.latestRoundData();\n        return _toUInt256Unsafe(price);\n    }\n\n    function _getTokenPriceDecimals(IAggregatorV3 priceFeed) internal view returns (uint8) {\n        return priceFeed.decimals();\n    }\n\n    function _toUInt256Unsafe(int256 value) internal pure returns (uint256) {\n        if (value <= 0) {\n            return uint256(0);\n        }\n        return uint256(value);\n    }\n\n    function getTokenOutPriceInTokenInTerms(\n        Struct.LatestRound memory tokenIn, Struct.LatestRound memory tokenOut\n    )\n    internal\n    view\n    returns (uint256) {\n        uint8 decimalIn = IAggregatorV3(tokenIn.oracle).decimals();\n        uint8 decimalOut = IAggregatorV3(tokenOut.oracle).decimals();\n        uint256 rawDiv = Num.bdiv(_toUInt256Unsafe(tokenOut.price), _toUInt256Unsafe(tokenIn.price));\n        if (decimalIn == decimalOut) {\n            return rawDiv;\n        } else if (decimalIn > decimalOut) {\n            return Num.bmul(\n                rawDiv,\n                10**(decimalIn - decimalOut)*Const.BONE\n            );\n        } else {\n            return Num.bdiv(\n                rawDiv,\n                10**(decimalOut - decimalIn)*Const.BONE\n            );\n        }\n    }\n\n}",
  "sourcePath": "/home/nik/code/swaap/swaap-core-v1/contracts/Pool.sol",
  "compiler": {
    "name": "solc",
    "version": "0.8.0+commit.c7dfd78e.Emscripten.clang"
  },
  "schemaVersion": "3.4.3",
  "updatedAt": "2022-02-03T13:45:19.870Z",
  "devdoc": {
    "kind": "dev",
    "methods": {},
    "version": 1
  },
  "userdoc": {
    "kind": "user",
    "methods": {},
    "version": 1
  }
}