{
  "contractName": "Pool",
  "abi": [
    {
      "inputs": [],
      "stateMutability": "nonpayable",
      "type": "constructor"
    },
    {
      "anonymous": false,
      "inputs": [
        {
          "indexed": true,
          "internalType": "address",
          "name": "owner",
          "type": "address"
        },
        {
          "indexed": true,
          "internalType": "address",
          "name": "spender",
          "type": "address"
        },
        {
          "indexed": false,
          "internalType": "uint256",
          "name": "value",
          "type": "uint256"
        }
      ],
      "name": "Approval",
      "type": "event"
    },
    {
      "anonymous": true,
      "inputs": [
        {
          "indexed": true,
          "internalType": "bytes4",
          "name": "sig",
          "type": "bytes4"
        },
        {
          "indexed": true,
          "internalType": "address",
          "name": "caller",
          "type": "address"
        },
        {
          "indexed": false,
          "internalType": "bytes",
          "name": "data",
          "type": "bytes"
        }
      ],
      "name": "LOG_CALL",
      "type": "event"
    },
    {
      "anonymous": false,
      "inputs": [
        {
          "indexed": true,
          "internalType": "address",
          "name": "caller",
          "type": "address"
        },
        {
          "indexed": true,
          "internalType": "address",
          "name": "tokenOut",
          "type": "address"
        },
        {
          "indexed": false,
          "internalType": "uint256",
          "name": "tokenAmountOut",
          "type": "uint256"
        }
      ],
      "name": "LOG_EXIT",
      "type": "event"
    },
    {
      "anonymous": false,
      "inputs": [
        {
          "indexed": true,
          "internalType": "address",
          "name": "caller",
          "type": "address"
        },
        {
          "indexed": true,
          "internalType": "address",
          "name": "tokenIn",
          "type": "address"
        },
        {
          "indexed": false,
          "internalType": "uint256",
          "name": "tokenAmountIn",
          "type": "uint256"
        }
      ],
      "name": "LOG_JOIN",
      "type": "event"
    },
    {
      "anonymous": false,
      "inputs": [
        {
          "indexed": true,
          "internalType": "address",
          "name": "from",
          "type": "address"
        },
        {
          "indexed": true,
          "internalType": "address",
          "name": "to",
          "type": "address"
        }
      ],
      "name": "LOG_NEW_CONTROLLER",
      "type": "event"
    },
    {
      "anonymous": false,
      "inputs": [
        {
          "indexed": true,
          "internalType": "address",
          "name": "token",
          "type": "address"
        },
        {
          "indexed": false,
          "internalType": "address",
          "name": "oracle",
          "type": "address"
        },
        {
          "indexed": false,
          "internalType": "uint256",
          "name": "price",
          "type": "uint256"
        },
        {
          "indexed": false,
          "internalType": "uint8",
          "name": "decimals",
          "type": "uint8"
        },
        {
          "indexed": false,
          "internalType": "string",
          "name": "description",
          "type": "string"
        }
      ],
      "name": "LOG_NEW_ORACLE_STATE",
      "type": "event"
    },
    {
      "anonymous": false,
      "inputs": [
        {
          "indexed": true,
          "internalType": "address",
          "name": "caller",
          "type": "address"
        },
        {
          "indexed": true,
          "internalType": "address",
          "name": "tokenIn",
          "type": "address"
        },
        {
          "indexed": true,
          "internalType": "address",
          "name": "tokenOut",
          "type": "address"
        },
        {
          "indexed": false,
          "internalType": "uint256",
          "name": "tokenAmountIn",
          "type": "uint256"
        },
        {
          "indexed": false,
          "internalType": "uint256",
          "name": "tokenAmountOut",
          "type": "uint256"
        },
        {
          "indexed": false,
          "internalType": "uint256",
          "name": "spread",
          "type": "uint256"
        },
        {
          "indexed": false,
          "internalType": "uint256",
          "name": "taxBaseIn",
          "type": "uint256"
        },
        {
          "indexed": false,
          "internalType": "uint256",
          "name": "priceIn",
          "type": "uint256"
        },
        {
          "indexed": false,
          "internalType": "uint256",
          "name": "priceOut",
          "type": "uint256"
        }
      ],
      "name": "LOG_SWAP",
      "type": "event"
    },
    {
      "anonymous": false,
      "inputs": [
        {
          "indexed": true,
          "internalType": "address",
          "name": "from",
          "type": "address"
        },
        {
          "indexed": true,
          "internalType": "address",
          "name": "to",
          "type": "address"
        },
        {
          "indexed": false,
          "internalType": "uint256",
          "name": "value",
          "type": "uint256"
        }
      ],
      "name": "Transfer",
      "type": "event"
    },
    {
      "inputs": [
        {
          "internalType": "address",
          "name": "src",
          "type": "address"
        },
        {
          "internalType": "address",
          "name": "dst",
          "type": "address"
        }
      ],
      "name": "allowance",
      "outputs": [
        {
          "internalType": "uint256",
          "name": "",
          "type": "uint256"
        }
      ],
      "stateMutability": "view",
      "type": "function"
    },
    {
      "inputs": [
        {
          "internalType": "address",
          "name": "dst",
          "type": "address"
        },
        {
          "internalType": "uint256",
          "name": "amt",
          "type": "uint256"
        }
      ],
      "name": "approve",
      "outputs": [
        {
          "internalType": "bool",
          "name": "",
          "type": "bool"
        }
      ],
      "stateMutability": "nonpayable",
      "type": "function"
    },
    {
      "inputs": [
        {
          "internalType": "address",
          "name": "whom",
          "type": "address"
        }
      ],
      "name": "balanceOf",
      "outputs": [
        {
          "internalType": "uint256",
          "name": "",
          "type": "uint256"
        }
      ],
      "stateMutability": "view",
      "type": "function"
    },
    {
      "inputs": [],
      "name": "decimals",
      "outputs": [
        {
          "internalType": "uint8",
          "name": "",
          "type": "uint8"
        }
      ],
      "stateMutability": "pure",
      "type": "function"
    },
    {
      "inputs": [
        {
          "internalType": "address",
          "name": "dst",
          "type": "address"
        },
        {
          "internalType": "uint256",
          "name": "amt",
          "type": "uint256"
        }
      ],
      "name": "decreaseApproval",
      "outputs": [
        {
          "internalType": "bool",
          "name": "",
          "type": "bool"
        }
      ],
      "stateMutability": "nonpayable",
      "type": "function"
    },
    {
      "inputs": [
        {
          "internalType": "address",
          "name": "dst",
          "type": "address"
        },
        {
          "internalType": "uint256",
          "name": "amt",
          "type": "uint256"
        }
      ],
      "name": "increaseApproval",
      "outputs": [
        {
          "internalType": "bool",
          "name": "",
          "type": "bool"
        }
      ],
      "stateMutability": "nonpayable",
      "type": "function"
    },
    {
      "inputs": [],
      "name": "name",
      "outputs": [
        {
          "internalType": "string",
          "name": "",
          "type": "string"
        }
      ],
      "stateMutability": "pure",
      "type": "function"
    },
    {
      "inputs": [],
      "name": "symbol",
      "outputs": [
        {
          "internalType": "string",
          "name": "",
          "type": "string"
        }
      ],
      "stateMutability": "pure",
      "type": "function"
    },
    {
      "inputs": [],
      "name": "totalSupply",
      "outputs": [
        {
          "internalType": "uint256",
          "name": "",
          "type": "uint256"
        }
      ],
      "stateMutability": "view",
      "type": "function"
    },
    {
      "inputs": [
        {
          "internalType": "address",
          "name": "dst",
          "type": "address"
        },
        {
          "internalType": "uint256",
          "name": "amt",
          "type": "uint256"
        }
      ],
      "name": "transfer",
      "outputs": [
        {
          "internalType": "bool",
          "name": "",
          "type": "bool"
        }
      ],
      "stateMutability": "nonpayable",
      "type": "function"
    },
    {
      "inputs": [
        {
          "internalType": "address",
          "name": "src",
          "type": "address"
        },
        {
          "internalType": "address",
          "name": "dst",
          "type": "address"
        },
        {
          "internalType": "uint256",
          "name": "amt",
          "type": "uint256"
        }
      ],
      "name": "transferFrom",
      "outputs": [
        {
          "internalType": "bool",
          "name": "",
          "type": "bool"
        }
      ],
      "stateMutability": "nonpayable",
      "type": "function"
    },
    {
      "inputs": [],
      "name": "isPublicSwap",
      "outputs": [
        {
          "internalType": "bool",
          "name": "",
          "type": "bool"
        }
      ],
      "stateMutability": "view",
      "type": "function"
    },
    {
      "inputs": [],
      "name": "isFinalized",
      "outputs": [
        {
          "internalType": "bool",
          "name": "",
          "type": "bool"
        }
      ],
      "stateMutability": "view",
      "type": "function"
    },
    {
      "inputs": [
        {
          "internalType": "address",
          "name": "t",
          "type": "address"
        }
      ],
      "name": "isBound",
      "outputs": [
        {
          "internalType": "bool",
          "name": "",
          "type": "bool"
        }
      ],
      "stateMutability": "view",
      "type": "function"
    },
    {
      "inputs": [],
      "name": "getTokens",
      "outputs": [
        {
          "internalType": "address[]",
          "name": "tokens",
          "type": "address[]"
        }
      ],
      "stateMutability": "view",
      "type": "function"
    },
    {
      "inputs": [
        {
          "internalType": "address",
          "name": "token",
          "type": "address"
        }
      ],
      "name": "getDenormalizedWeight",
      "outputs": [
        {
          "internalType": "uint256",
          "name": "",
          "type": "uint256"
        }
      ],
      "stateMutability": "view",
      "type": "function"
    },
    {
      "inputs": [
        {
          "internalType": "address",
          "name": "token",
          "type": "address"
        }
      ],
      "name": "getBalance",
      "outputs": [
        {
          "internalType": "uint256",
          "name": "",
          "type": "uint256"
        }
      ],
      "stateMutability": "view",
      "type": "function"
    },
    {
      "inputs": [],
      "name": "getSwapFee",
      "outputs": [
        {
          "internalType": "uint256",
          "name": "",
          "type": "uint256"
        }
      ],
      "stateMutability": "view",
      "type": "function"
    },
    {
      "inputs": [],
      "name": "getController",
      "outputs": [
        {
          "internalType": "address",
          "name": "",
          "type": "address"
        }
      ],
      "stateMutability": "view",
      "type": "function"
    },
    {
      "inputs": [
        {
          "internalType": "uint256",
          "name": "swapFee",
          "type": "uint256"
        }
      ],
      "name": "setSwapFee",
      "outputs": [],
      "stateMutability": "nonpayable",
      "type": "function"
    },
    {
      "inputs": [
        {
          "internalType": "address",
          "name": "controller",
          "type": "address"
        }
      ],
      "name": "setControllerAndTransfer",
      "outputs": [],
      "stateMutability": "nonpayable",
      "type": "function"
    },
    {
      "inputs": [
        {
          "internalType": "address",
          "name": "pendingController",
          "type": "address"
        }
      ],
      "name": "transferOwnership",
      "outputs": [],
      "stateMutability": "nonpayable",
      "type": "function"
    },
    {
      "inputs": [],
      "name": "acceptOwnership",
      "outputs": [],
      "stateMutability": "nonpayable",
      "type": "function"
    },
    {
      "inputs": [],
      "name": "revokeFactoryControl",
      "outputs": [],
      "stateMutability": "nonpayable",
      "type": "function"
    },
    {
      "inputs": [],
      "name": "giveFactoryControl",
      "outputs": [],
      "stateMutability": "nonpayable",
      "type": "function"
    },
    {
      "inputs": [
        {
          "internalType": "bool",
          "name": "publicSwap",
          "type": "bool"
        }
      ],
      "name": "setPublicSwap",
      "outputs": [],
      "stateMutability": "nonpayable",
      "type": "function"
    },
    {
      "inputs": [],
      "name": "finalize",
      "outputs": [],
      "stateMutability": "nonpayable",
      "type": "function"
    },
    {
      "inputs": [
        {
          "internalType": "address",
          "name": "token",
          "type": "address"
        }
      ],
      "name": "gulp",
      "outputs": [],
      "stateMutability": "nonpayable",
      "type": "function"
    },
    {
      "inputs": [
        {
          "internalType": "address",
          "name": "tokenIn",
          "type": "address"
        },
        {
          "internalType": "uint256",
          "name": "tokenAmountIn",
          "type": "uint256"
        }
      ],
      "name": "getJoinPool",
      "outputs": [
        {
          "internalType": "uint256",
          "name": "poolAmountOut",
          "type": "uint256"
        },
        {
          "internalType": "uint256[]",
          "name": "tokenAmountsIn",
          "type": "uint256[]"
        }
      ],
      "stateMutability": "view",
      "type": "function"
    },
    {
      "inputs": [
        {
          "internalType": "uint256",
          "name": "poolAmountOut",
          "type": "uint256"
        },
        {
          "internalType": "uint256[]",
          "name": "maxAmountsIn",
          "type": "uint256[]"
        }
      ],
      "name": "joinPool",
      "outputs": [],
      "stateMutability": "nonpayable",
      "type": "function"
    },
    {
      "inputs": [
        {
          "internalType": "uint256",
          "name": "poolAmountIn",
          "type": "uint256"
        }
      ],
      "name": "getExitPool",
      "outputs": [
        {
          "internalType": "uint256[]",
          "name": "tokenAmountsOut",
          "type": "uint256[]"
        }
      ],
      "stateMutability": "view",
      "type": "function"
    },
    {
      "inputs": [
        {
          "internalType": "uint256",
          "name": "poolAmountIn",
          "type": "uint256"
        },
        {
          "internalType": "uint256[]",
          "name": "minAmountsOut",
          "type": "uint256[]"
        }
      ],
      "name": "exitPool",
      "outputs": [],
      "stateMutability": "nonpayable",
      "type": "function"
    },
    {
      "inputs": [
        {
          "internalType": "address",
          "name": "tokenIn",
          "type": "address"
        },
        {
          "internalType": "uint256",
          "name": "tokenAmountIn",
          "type": "uint256"
        }
      ],
      "name": "getJoinswapExternAmountInMMM",
      "outputs": [
        {
          "internalType": "uint256",
          "name": "poolAmountOut",
          "type": "uint256"
        }
      ],
      "stateMutability": "view",
      "type": "function"
    },
    {
      "inputs": [
        {
          "internalType": "address",
          "name": "tokenIn",
          "type": "address"
        },
        {
          "internalType": "uint256",
          "name": "tokenAmountIn",
          "type": "uint256"
        },
        {
          "internalType": "uint256",
          "name": "minPoolAmountOut",
          "type": "uint256"
        }
      ],
      "name": "joinswapExternAmountInMMM",
      "outputs": [
        {
          "internalType": "uint256",
          "name": "poolAmountOut",
          "type": "uint256"
        }
      ],
      "stateMutability": "nonpayable",
      "type": "function"
    },
    {
      "inputs": [
        {
          "internalType": "address",
          "name": "tokenOut",
          "type": "address"
        },
        {
          "internalType": "uint256",
          "name": "poolAmountIn",
          "type": "uint256"
        },
        {
          "internalType": "uint256",
          "name": "minAmountOut",
          "type": "uint256"
        }
      ],
      "name": "exitswapPoolAmountInMMM",
      "outputs": [
        {
          "internalType": "uint256",
          "name": "tokenAmountOut",
          "type": "uint256"
        }
      ],
      "stateMutability": "nonpayable",
      "type": "function"
    },
    {
      "inputs": [
        {
          "internalType": "uint64",
          "name": "dynamicCoverageFeesZ",
          "type": "uint64"
        }
      ],
      "name": "setDynamicCoverageFeesZ",
      "outputs": [],
      "stateMutability": "nonpayable",
      "type": "function"
    },
    {
      "inputs": [
        {
          "internalType": "uint256",
          "name": "dynamicCoverageFeesHorizon",
          "type": "uint256"
        }
      ],
      "name": "setDynamicCoverageFeesHorizon",
      "outputs": [],
      "stateMutability": "nonpayable",
      "type": "function"
    },
    {
      "inputs": [
        {
          "internalType": "uint8",
          "name": "priceStatisticsLookbackInRound",
          "type": "uint8"
        }
      ],
      "name": "setPriceStatisticsLookbackInRound",
      "outputs": [],
      "stateMutability": "nonpayable",
      "type": "function"
    },
    {
      "inputs": [
        {
          "internalType": "uint256",
          "name": "priceStatisticsLookbackInSec",
          "type": "uint256"
        }
      ],
      "name": "setPriceStatisticsLookbackInSec",
      "outputs": [],
      "stateMutability": "nonpayable",
      "type": "function"
    },
    {
      "inputs": [
        {
          "internalType": "uint8",
          "name": "priceStatisticsLookbackStepInRound",
          "type": "uint8"
        }
      ],
      "name": "setPriceStatisticsLookbackStepInRound",
      "outputs": [],
      "stateMutability": "nonpayable",
      "type": "function"
    },
    {
      "inputs": [
        {
          "internalType": "uint256",
          "name": "maxPriceUnpegRatio",
          "type": "uint256"
        }
      ],
      "name": "setMaxPriceUnpegRatio",
      "outputs": [],
      "stateMutability": "nonpayable",
      "type": "function"
    },
    {
      "inputs": [],
      "name": "getCoverageParameters",
      "outputs": [
        {
          "internalType": "uint8",
          "name": "priceStatisticsLBInRound",
          "type": "uint8"
        },
        {
          "internalType": "uint8",
          "name": "priceStatisticsLBStepInRound",
          "type": "uint8"
        },
        {
          "internalType": "uint64",
          "name": "dynamicCoverageFeesZ",
          "type": "uint64"
        },
        {
          "internalType": "uint256",
          "name": "dynamicCoverageFeesHorizon",
          "type": "uint256"
        },
        {
          "internalType": "uint256",
          "name": "priceStatisticsLBInSec",
          "type": "uint256"
        },
        {
          "internalType": "uint256",
          "name": "maxPriceUnpegRatio",
          "type": "uint256"
        }
      ],
      "stateMutability": "view",
      "type": "function"
    },
    {
      "inputs": [
        {
          "internalType": "address",
          "name": "token",
          "type": "address"
        }
      ],
      "name": "getTokenOracleInitialPrice",
      "outputs": [
        {
          "internalType": "uint256",
          "name": "",
          "type": "uint256"
        }
      ],
      "stateMutability": "view",
      "type": "function"
    },
    {
      "inputs": [
        {
          "internalType": "address",
          "name": "token",
          "type": "address"
        }
      ],
      "name": "getTokenPriceOracle",
      "outputs": [
        {
          "internalType": "address",
          "name": "",
          "type": "address"
        }
      ],
      "stateMutability": "view",
      "type": "function"
    },
    {
      "inputs": [
        {
          "internalType": "address",
          "name": "token",
          "type": "address"
        },
        {
          "internalType": "uint256",
          "name": "balance",
          "type": "uint256"
        },
        {
          "internalType": "uint80",
          "name": "denorm",
          "type": "uint80"
        },
        {
          "internalType": "address",
          "name": "priceFeedAddress",
          "type": "address"
        }
      ],
      "name": "bindMMM",
      "outputs": [],
      "stateMutability": "nonpayable",
      "type": "function"
    },
    {
      "inputs": [
        {
          "internalType": "address",
          "name": "token",
          "type": "address"
        },
        {
          "internalType": "uint256",
          "name": "balance",
          "type": "uint256"
        },
        {
          "internalType": "uint80",
          "name": "denorm",
          "type": "uint80"
        },
        {
          "internalType": "address",
          "name": "priceFeedAddress",
          "type": "address"
        }
      ],
      "name": "rebindMMM",
      "outputs": [],
      "stateMutability": "nonpayable",
      "type": "function"
    },
    {
      "inputs": [
        {
          "internalType": "address",
          "name": "token",
          "type": "address"
        }
      ],
      "name": "unbindMMM",
      "outputs": [],
      "stateMutability": "nonpayable",
      "type": "function"
    },
    {
      "inputs": [
        {
          "internalType": "address",
          "name": "tokenIn",
          "type": "address"
        },
        {
          "internalType": "address",
          "name": "tokenOut",
          "type": "address"
        }
      ],
      "name": "getSpotPriceSansFee",
      "outputs": [
        {
          "internalType": "uint256",
          "name": "spotPrice",
          "type": "uint256"
        }
      ],
      "stateMutability": "view",
      "type": "function"
    },
    {
      "inputs": [
        {
          "internalType": "address",
          "name": "tokenIn",
          "type": "address"
        },
        {
          "internalType": "uint256",
          "name": "tokenAmountIn",
          "type": "uint256"
        },
        {
          "internalType": "address",
          "name": "tokenOut",
          "type": "address"
        },
        {
          "internalType": "uint256",
          "name": "minAmountOut",
          "type": "uint256"
        },
        {
          "internalType": "uint256",
          "name": "maxPrice",
          "type": "uint256"
        }
      ],
      "name": "swapExactAmountInMMM",
      "outputs": [
        {
          "internalType": "uint256",
          "name": "tokenAmountOut",
          "type": "uint256"
        },
        {
          "internalType": "uint256",
          "name": "spotPriceAfter",
          "type": "uint256"
        }
      ],
      "stateMutability": "nonpayable",
      "type": "function"
    },
    {
      "inputs": [
        {
          "internalType": "address",
          "name": "tokenIn",
          "type": "address"
        },
        {
          "internalType": "uint256",
          "name": "tokenAmountIn",
          "type": "uint256"
        },
        {
          "internalType": "address",
          "name": "tokenOut",
          "type": "address"
        },
        {
          "internalType": "uint256",
          "name": "minAmountOut",
          "type": "uint256"
        },
        {
          "internalType": "uint256",
          "name": "maxPrice",
          "type": "uint256"
        }
      ],
      "name": "getAmountOutGivenInMMM",
      "outputs": [
        {
          "components": [
            {
              "internalType": "uint256",
              "name": "amount",
              "type": "uint256"
            },
            {
              "internalType": "uint256",
              "name": "spread",
              "type": "uint256"
            },
            {
              "internalType": "uint256",
              "name": "taxBaseIn",
              "type": "uint256"
            }
          ],
          "internalType": "struct Struct.SwapResult",
          "name": "swapResult",
          "type": "tuple"
        },
        {
          "components": [
            {
              "internalType": "uint256",
              "name": "spotPriceBefore",
              "type": "uint256"
            },
            {
              "internalType": "uint256",
              "name": "spotPriceAfter",
              "type": "uint256"
            },
            {
              "internalType": "uint256",
              "name": "priceIn",
              "type": "uint256"
            },
            {
              "internalType": "uint256",
              "name": "priceOut",
              "type": "uint256"
            }
          ],
          "internalType": "struct Struct.PriceResult",
          "name": "priceResult",
          "type": "tuple"
        }
      ],
      "stateMutability": "view",
      "type": "function"
    },
    {
      "inputs": [
        {
          "internalType": "address",
          "name": "tokenIn",
          "type": "address"
        },
        {
          "internalType": "uint256",
          "name": "maxAmountIn",
          "type": "uint256"
        },
        {
          "internalType": "address",
          "name": "tokenOut",
          "type": "address"
        },
        {
          "internalType": "uint256",
          "name": "tokenAmountOut",
          "type": "uint256"
        },
        {
          "internalType": "uint256",
          "name": "maxPrice",
          "type": "uint256"
        }
      ],
      "name": "swapExactAmountOutMMM",
      "outputs": [
        {
          "internalType": "uint256",
          "name": "tokenAmountIn",
          "type": "uint256"
        },
        {
          "internalType": "uint256",
          "name": "spotPriceAfter",
          "type": "uint256"
        }
      ],
      "stateMutability": "nonpayable",
      "type": "function"
    },
    {
      "inputs": [
        {
          "internalType": "address",
          "name": "tokenIn",
          "type": "address"
        },
        {
          "internalType": "uint256",
          "name": "maxAmountIn",
          "type": "uint256"
        },
        {
          "internalType": "address",
          "name": "tokenOut",
          "type": "address"
        },
        {
          "internalType": "uint256",
          "name": "tokenAmountOut",
          "type": "uint256"
        },
        {
          "internalType": "uint256",
          "name": "maxPrice",
          "type": "uint256"
        }
      ],
      "name": "getAmountInGivenOutMMM",
      "outputs": [
        {
          "components": [
            {
              "internalType": "uint256",
              "name": "amount",
              "type": "uint256"
            },
            {
              "internalType": "uint256",
              "name": "spread",
              "type": "uint256"
            },
            {
              "internalType": "uint256",
              "name": "taxBaseIn",
              "type": "uint256"
            }
          ],
          "internalType": "struct Struct.SwapResult",
          "name": "swapResult",
          "type": "tuple"
        },
        {
          "components": [
            {
              "internalType": "uint256",
              "name": "spotPriceBefore",
              "type": "uint256"
            },
            {
              "internalType": "uint256",
              "name": "spotPriceAfter",
              "type": "uint256"
            },
            {
              "internalType": "uint256",
              "name": "priceIn",
              "type": "uint256"
            },
            {
              "internalType": "uint256",
              "name": "priceOut",
              "type": "uint256"
            }
          ],
          "internalType": "struct Struct.PriceResult",
          "name": "priceResult",
          "type": "tuple"
        }
      ],
      "stateMutability": "view",
      "type": "function"
    }
  ],
  "bytecode": "0x60a06040523480156200001157600080fd5b50600a8054600160501b600160f01b031916336a010000000000000000000081029190911790915560805262000053620f4240670de0b6b3a764000062000115565b6009556005805461ffff60201b19166504050000000017905562000081670de0b6b3a7640000600662000138565b600580546001600160401b0392909216660100000000000002600160301b600160701b0319909216919091178155620000c490670de0b6b3a76400009062000138565b600655610e10600755620000e26028670de0b6b3a764000062000115565b620000f690670de0b6b3a76400006200015a565b60085562000175565b634e487b7160e01b600052601160045260246000fd5b6000826200013357634e487b7160e01b600052601260045260246000fd5b500490565b6000816000190483118215151615620001555762000155620000ff565b500290565b60008219821115620001705762000170620000ff565b500190565b608051614f15620001c260003960008181611205015281816119f501528181611b0d01528181611c4001528181612130015281816126a4015281816128ce015261328f0152614f156000f3fe608060405234801561001057600080fd5b50600436106102cc5760003560e01c806386d460621161017d578063b849a206116100d9578063d73dd62311610092578063d73dd623146106ae578063dd62ed3e146106c1578063ea45766b146106fa578063f2fde38b1461070d578063f8b2cb4f14610720578063fde924f714610733578063fe834dfd1461073b57600080fd5b8063b849a20614610647578063c09fa8b41461065a578063c34351711461066d578063d04ee53f14610680578063d0fffbdb14610693578063d4cadf68146106a657600080fd5b80639d4e7e3a116101365780639d4e7e3a146105cb578063a1f26854146105d3578063a9059cbb146105e6578063aa6ca808146105f9578063ab323b491461060e578063acb21b3114610621578063b02f0b731461063457600080fd5b806386d4606214610543578063895c253a146105565780638c28cbe81461057e5780638d4e408314610591578063948d8ce61461059957806395d89b41146105ac57600080fd5b80633c515d991161022c578063626f7291116101e5578063626f72911461046d578063661884631461048e5780636a9b7c88146104a157806370a08231146104c25780637104e93e146104eb57806379ba5097146104f3578063812d8628146104fb57600080fd5b80633c515d99146104065780633cc339601461041957806349b595521461042c5780634bb278f31461043f5780634f69c0d414610447578063538e285c1461045a57600080fd5b806329dcbe5f1161028957806329dcbe5f146103835780632f37b624146103965780633018205f146103a9578063313ce567146103be578063314d204f146103cd57806334e19907146103e05780633b4ea29d146103f357600080fd5b8063045dbae0146102d157806306fdde03146102e6578063095ea7b3146103245780631446a7ff1461034757806318160ddd1461036857806323b872dd14610370575b600080fd5b6102e46102df366004614447565b61075b565b005b60408051808201909152601081526f29bbb0b0b8102837b7b6102a37b5b2b760811b60208201525b60405161031b91906144bc565b60405180910390f35b6103376103323660046144e6565b6107aa565b604051901515815260200161031b565b61035a610355366004614510565b610805565b60405190815260200161031b565b60025461035a565b61033761037e366004614543565b610919565b6102e461039136600461457f565b6109f8565b6103376103a436600461457f565b610aa3565b6103b1610ada565b60405161031b919061459a565b6040516012815260200161031b565b6102e46103db3660046145ae565b610b05565b6102e46103ee3660046145ae565b610b4a565b61035a6104013660046144e6565b610bb1565b6102e46104143660046145c7565b610bd7565b6102e4610427366004614447565b610c1f565b6102e461043a3660046145fe565b610c7c565b6102e4610cdf565b6102e461045536600461461b565b610d8b565b6102e46104683660046145ae565b610f12565b61048061047b3660046144e6565b610f46565b60405161031b9291906146d4565b61033761049c3660046144e6565b6110d3565b6104b46104af3660046146ed565b6111a9565b60405161031b92919061473b565b61035a6104d036600461457f565b6001600160a01b031660009081526020819052604090205490565b6102e46111ef565b6102e4611242565b6105036112c9565b6040805160ff97881681529690951660208701526001600160401b03909316938501939093526060840152608083019190915260a082015260c00161031b565b6102e4610551366004614795565b61132f565b6105696105643660046146ed565b61147a565b6040805192835260208301919091520161031b565b6102e461058c36600461457f565b6115b2565b61033761167a565b61035a6105a736600461457f565b61169e565b60408051808201909152600381526214d41560ea1b602082015261030e565b6102e4611705565b61035a6105e13660046147e4565b61173c565b6103376105f43660046144e6565b611a31565b610601611a47565b60405161031b9190614817565b6102e461061c366004614795565b611abc565b6102e461062f3660046145ae565b611aef565b6102e461064236600461461b565b611bc0565b61035a6106553660046147e4565b611da0565b6104b46106683660046146ed565b611e75565b6102e461067b36600461457f565b611eac565b6103b161068e36600461457f565b612161565b6105696106a13660046146ed565b6121bb565b61035a6122ff565b6103376106bc3660046144e6565b61231a565b61035a6106cf366004614510565b6001600160a01b03918216600090815260016020908152604080832093909416825291909152205490565b61035a61070836600461457f565b61238e565b6102e461071b36600461457f565b6123e8565b61035a61072e36600461457f565b612451565b6103376124ab565b61074e6107493660046145ae565b6124ce565b60405161031b9190614864565b61076361260a565b61076b612646565b610773612667565b610785600160ff8316101560356126ed565b6005805465ff00000000001916600160281b60ff8416021790556107a76126ff565b50565b3360008181526001602090815260408083206001600160a01b03871680855292528083208590555191929091600080516020614ec0833981519152906107f39086815260200190565b60405180910390a35060015b92915050565b6005546000906108199060ff1615826126ed565b6001600160a01b0383166000908152600460205260409020546108649060ff16801561085d57506001600160a01b03831660009081526004602052604090205460ff165b60026126ed565b600061086f8461270b565b9050600061087c8461270b565b825160208082015160409283015184519283015192840151935163a221ee4960e01b815294955073__Math__________________________________9463a221ee49946108cf9491600090600401614877565b602060405180830381865af41580156108ec573d6000803e3d6000fd5b505050506040513d601f19601f82011682018060405250810190610910919061489a565b95945050505050565b6000336001600160a01b0385161480159061095957506001600160a01b038416600090815260016020908152604080832033845290915290205460001914155b156109e2576001600160a01b03841660009081526001602090815260408083203384529091529020546109908382101560156126ed565b6001600160a01b038581166000908152600160209081526040808320338085529083529281902087860390819055905190815292871692600080516020614ec0833981519152910160405180910390a3505b6109ed848484612810565b5060015b9392505050565b610a00612646565b600a54610a2090600160501b90046001600160a01b0316331460036126ed565b610a366001600160a01b0382161515600d6126ed565b600a8054600160501b600160f01b031916600160501b6001600160a01b03841690810291909117909155600b80546001600160a01b031916905560405133907fe9cdd2997ec8c6ef6ac8fa0a086751d7333153fd3c16c2d7ddd28a183bf5020b90600090a36107a76126ff565b600554600090610ab79060ff1615826126ed565b506001600160a01b03811660009081526004602052604090205460ff165b919050565b600554600090610aee9060ff1615826126ed565b50600a54600160501b90046001600160a01b031690565b610b0d61260a565b610b15612646565b610b1d612667565b610b3d610b33670de0b6b3a764000060016148c9565b82101560166126ed565b60068190556107a76126ff565b610b5261260a565b610b5a612646565b610b62612667565b610b84610b7a620f4240670de0b6b3a76400006148e8565b821015600e6126ed565b610ba4610b9a600a670de0b6b3a76400006148e8565b821115600f6126ed565b60098190556107a76126ff565b600554600090610bc59060ff1615826126ed565b610bcd6128cc565b6109f18383612939565b610bdf61260a565b610be7612646565b610bef612667565b600580546dffffffffffffffff0000000000001916600160301b6001600160401b038416021790556107a76126ff565b610c2761260a565b610c2f612646565b610c37612667565b610c49600160ff8316101560186126ed565b610c5b606460ff8316111560196126ed565b6005805464ff000000001916600160201b60ff8416021790556107a76126ff565b610c8461260a565b610c8c612646565b600554610ca49062010000900460ff161560046126ed565b600a54610cc490600160501b90046001600160a01b0316331460036126ed565b6005805461ff001916610100831515021790556107a76126ff565b610ce761260a565b610cef612646565b600554610d079062010000900460ff161560046126ed565b600a54610d2790600160501b90046001600160a01b0316331460036126ed565b600354610d39906002111560126126ed565b6005805462ffff00191662010100179055610d65610d60670de0b6b3a764000060646148c9565b612b26565b610d8133610d7c670de0b6b3a764000060646148c9565b612b2f565b610d896126ff565b565b610d9361260a565b610d9b612646565b610da36128cc565b600554610dba9062010000900460ff1660016126ed565b600354610dca90821460366126ed565b6000610dd884600254612b39565b9050610de781151560056126ed565b60005b82811015610ef057600060038281548110610e0757610e0761490a565b60009182526020808320909101546001600160a01b03168083526004909152604082206001015490925090610e3c8583612b7f565b9050610e4b81151560056126ed565b610e71878786818110610e6057610e6061490a565b9050602002013582111560086126ed565b610e7b8183614920565b6001600160a01b0384166000818152600460205260409081902060010192909255905133907f63982df10efd8dfaaaa0fcc7f50b2d93b7cba26ccc48adee2873220d485dc39a90610ecf9085815260200190565b60405180910390a3610ee2833383612bc3565b836001019350505050610dea565b50610efa84612b26565b610f043385612b2f565b50610f0d6126ff565b505050565b610f1a61260a565b610f22612646565b610f2a612667565b610f396001821015601a6126ed565b60078190556107a76126ff565b600554600090606090610f5d9060ff1615836126ed565b610f656128cc565b600554610f7c9062010000900460ff1660016126ed565b6001600160a01b038416600090815260046020526040902054610fa39060ff1660026126ed565b6001600160a01b038416600090815260046020526040812060010154610fca908590612cde565b600254909150610fda8282612b7f565b9350610fe68482612b39565b9150610ff582151560056126ed565b600354806001600160401b0381111561101057611010614938565b604051908082528060200260200182016040528015611039578160200160208202803683370190505b50935060005b818110156110c85760006003828154811061105c5761105c61490a565b60009182526020808320909101546001600160a01b031680835260049091526040909120600101549091506110918682612b7f565b98506110a089151560056126ed565b888784815181106110b3576110b361490a565b6020908102919091010152505060010161103f565b505050509250929050565b3360009081526001602090815260408083206001600160a01b038616845290915281205480831115611128573360009081526001602090815260408083206001600160a01b0388168452909152812055611157565b611132838261494e565b3360009081526001602090815260408083206001600160a01b03891684529091529020555b3360008181526001602090815260408083206001600160a01b03891680855290835292819020549051908152919291600080516020614ec0833981519152910160405180910390a35060019392505050565b6111b1614380565b6111b96143a1565b6005546111cb9060ff161560006126ed565b6111d36128cc565b6111e08787878787612d07565b915091505b9550959350505050565b6111f761260a565b61122d336001600160a01b037f0000000000000000000000000000000000000000000000000000000000000000161460066126ed565b6005805463ff00000019166301000000179055565b600b5461125b906001600160a01b03163314602f6126ed565b600a8054600160501b600160f01b03198116600160501b3381810292909217909355600b80546001600160a01b0319169055604051929091046001600160a01b03169182907fe9cdd2997ec8c6ef6ac8fa0a086751d7333153fd3c16c2d7ddd28a183bf5020b90600090a350565b6000806000806000806112ed600560009054906101000a900460ff161560006126ed565b5050600554600654600754600854600160201b840460ff90811699600160281b86049091169850600160301b9094046001600160401b03169650919450925090565b6001600160a01b0384166000908152600460205260409020546113579060ff1615601c6126ed565b60035461136890600811601d6126ed565b6040805160a08101825260018082526003805460ff9081166020808601918252600086880181815260608801828152608089018381526001600160a01b038f1680855260049095529983209851895495519251915161ffff1990961690151561ff0019161761010092871692909202919091176cffffffffffffffffffffff000019166201000091909516026cffffffffffffffffffff00000019169390931763010000006001600160501b0390931692909202919091178555945193830193909355805491820181559091527fc2575a0e9e593c00f959f8c92f12db2869c3395a3b0502d05e2516446f71f85b0180546001600160a01b03191690911790556114748484848461300a565b50505050565b60008061148561260a565b61148d612646565b6114956128cc565b6000806114a58989898989612d07565b81516001600160a01b038c166000908152600460205260408120600101805494965092945090926114d7908490614920565b90915550506001600160a01b0387166000908152600460205260408120600101805488929061150790849061494e565b909155505081516020808401516040808601518582015160608088015184519788529587018d90529286019390935290840152608083015260a08201526001600160a01b0380891691908b169033907fbdafe88494b31fc7436fe7992b0f377e874287e841e62eed1ad77e84f3c5b1719060c00160405180910390a461159289338460000151612bc3565b61159d8733886133a1565b905160209091015190925090506111e56126ff565b6115ba61260a565b6115c2612646565b6001600160a01b0381166000908152600460205260409020546115e99060ff1660026126ed565b6040516370a0823160e01b81526001600160a01b038216906370a082319061161590309060040161459a565b602060405180830381865afa158015611632573d6000803e3d6000fd5b505050506040513d601f19601f82011682018060405250810190611656919061489a565b6001600160a01b0382166000908152600460205260409020600101556107a76126ff565b60055460009061168e9060ff1615826126ed565b5060055462010000900460ff1690565b6005546000906116b29060ff1615826126ed565b6001600160a01b0382166000908152600460205260409020546116d99060ff1660026126ed565b506001600160a01b0316600090815260046020526040902054630100000090046001600160501b031690565b61170d61260a565b600a5461172d90600160501b90046001600160a01b0316331460036126ed565b6005805463ff00000019169055565b600061174661260a565b61174e612646565b6117566128cc565b60055461176d9062010000900460ff1660016126ed565b6001600160a01b0384166000908152600460205260409020546117949060ff1660026126ed565b61179c6143c9565b60606117a7866133b5565b6040805160808101825288815260095460208201529294509092506000919081016103e86117de670de0b6b3a764000060036148c9565b6117e891906148e8565b81526002546020918201526040805180820182526005546001600160401b03600160301b820416825260065482850152825160808101845260ff600160201b830481168252600754958201959095524281850152600160281b90910490931660608401529051631adb96dd60e31b81529293509173__Math__________________________________9063d6dcb6e89061188e90889088908890889088906004016149eb565b602060405180830381865af41580156118ab573d6000803e3d6000fd5b505050506040513d601f19601f820116820180604052508101906118cf919061489a565b6001600160a01b038a1660009081526004602052604090206001015490965061192390611919906119096003670de0b6b3a76400006148e8565b611914906001614920565b612b7f565b871115603a6126ed565b5050506119348484101560096126ed565b82826000015160200181815161194a919061494e565b90525061195782826134da565b81516020908101516001600160a01b0388166000908152600490925260408220600101556119858682612b7f565b9050866001600160a01b0316336001600160a01b03167fe74c91552b64c2e2e7bd255639e004e693bd3e1d01cc33e65610b86afcc1ffed866040516119cc91815260200190565b60405180910390a36119de3387613623565b6119f06119eb828861494e565b61362d565b611a1a7f000000000000000000000000000000000000000000000000000000000000000082612b2f565b611a258733866133a1565b5050505b6109f16126ff565b6000611a3e338484612810565b50600192915050565b600554606090611a5c9060ff161560006126ed565b6003805480602002602001604051908101604052809291908181526020018280548015611ab257602002820191906000526020600020905b81546001600160a01b03168152600190910190602001808311611a94575b5050505050905090565b6001600160a01b038416600090815260046020526040902054611ae39060ff1660026126ed565b6114748484848461300a565b611af761260a565b611aff612646565b611b35336001600160a01b037f0000000000000000000000000000000000000000000000000000000000000000161460066126ed565b600554611b4e906301000000900460ff161560076126ed565b611b81611b65610320670de0b6b3a76400006148e8565b611b7790670de0b6b3a7640000614920565b82101560376126ed565b611bb3611b97600a670de0b6b3a76400006148e8565b611ba990670de0b6b3a7640000614920565b82111560386126ed565b60088190556107a76126ff565b611bc861260a565b611bd0612646565b600554611be79062010000900460ff1660016126ed565b600354611bf790821460366126ed565b6000611c04846000612b7f565b90506000611c12828661494e565b90506000611c2282600254612cde565b9050611c3181151560056126ed565b611c3b3387613623565b611c657f000000000000000000000000000000000000000000000000000000000000000084612b2f565b611c6e8261362d565b60005b84811015611d9457600060038281548110611c8e57611c8e61490a565b60009182526020808320909101546001600160a01b03168083526004909152604082206001015490925090611cc38583613636565b9050611cd281151560056126ed565b611cf8898986818110611ce757611ce761490a565b9050602002013582101560096126ed565b6001600160a01b038316600090815260046020526040902060010154611d1f90829061494e565b6001600160a01b0384166000818152600460205260409081902060010192909255905133907fe74c91552b64c2e2e7bd255639e004e693bd3e1d01cc33e65610b86afcc1ffed90611d739085815260200190565b60405180910390a3611d868333836133a1565b836001019350505050611c71565b50505050610f0d6126ff565b6000611daa61260a565b611db2612646565b611dba6128cc565b611dc48484612939565b9050611dd48282101560096126ed565b6001600160a01b038416600090815260046020526040902060010154611dfb908490614920565b6001600160a01b0385166000818152600460205260409081902060010192909255905133907f63982df10efd8dfaaaa0fcc7f50b2d93b7cba26ccc48adee2873220d485dc39a90611e4f9087815260200190565b60405180910390a3611e62843385612bc3565b611e6b81612b26565b611a293382612b2f565b611e7d614380565b611e856143a1565b600554611e979060ff161560006126ed565b611e9f6128cc565b6111e08787878787613657565b611eb461260a565b611ebc612646565b600a54611edc90600160501b90046001600160a01b0316331460036126ed565b6001600160a01b038116600090815260046020526040902054611f039060ff1660026126ed565b600554611f1b9062010000900460ff161560046126ed565b6001600160a01b03811660009081526004602052604081206001015490611f428282612b7f565b6001600160a01b038416600090815260046020526040902054600a54919250611f7e916001600160501b03630100000090920482169116614a8f565b600a80546001600160501b0319166001600160501b03929092169190911790556001600160a01b03831660009081526004602052604081205460035461010090910460ff169190611fd19060019061494e565b905060038181548110611fe657611fe661490a565b600091825260209091200154600380546001600160a01b039092169160ff85169081106120155761201561490a565b9060005260206000200160006101000a8154816001600160a01b0302191690836001600160a01b03160217905550816004600060038560ff168154811061205e5761205e61490a565b60009182526020808320909101546001600160a01b031683528201929092526040019020805460ff929092166101000261ff001990921691909117905560038054806120ac576120ac614ab7565b60008281526020808220830160001990810180546001600160a01b031990811690915593019093556001600160a01b038816815260048352604080822080546cffffffffffffffffffffffffff191681556001908101839055600c90945281208054909216825591015561212a8533612125868861494e565b6133a1565b612155857f0000000000000000000000000000000000000000000000000000000000000000856133a1565b505050506107a76126ff565b6005546000906121759060ff1615826126ed565b6001600160a01b03821660009081526004602052604090205461219c9060ff1660026126ed565b506001600160a01b039081166000908152600c60205260409020541690565b6000806121c661260a565b6121ce612646565b6121d66128cc565b6000806121e68989898989613657565b6001600160a01b038b16600090815260046020526040812060010180549395509193508a92612216908490614920565b909155505081516001600160a01b0388166000908152600460205260408120600101805490919061224890849061494e565b92505081905550866001600160a01b0316896001600160a01b0316336001600160a01b03167fbdafe88494b31fc7436fe7992b0f377e874287e841e62eed1ad77e84f3c5b1718b866000015187602001518860400151886040015189606001516040516122dd96959493929190958652602086019490945260408501929092526060840152608083015260a082015260c00190565b60405180910390a46122f089338a612bc3565b61159d873384600001516133a1565b6005546000906123139060ff1615826126ed565b5060095490565b3360009081526001602090815260408083206001600160a01b0386168452909152812054612349908390614920565b3360008181526001602090815260408083206001600160a01b03891680855290835292819020859055519384529092600080516020614ec083398151915291016107f3565b6005546000906123a29060ff1615826126ed565b6001600160a01b0382166000908152600460205260409020546123c99060ff1660026126ed565b506001600160a01b03166000908152600c602052604090206001015490565b6123f061260a565b600a5461241090600160501b90046001600160a01b0316331460036126ed565b60055462010000900460ff1661242f5760035461242f901560326126ed565b600b80546001600160a01b0319166001600160a01b0392909216919091179055565b6005546000906124659060ff1615826126ed565b6001600160a01b03821660009081526004602052604090205461248c9060ff1660026126ed565b506001600160a01b031660009081526004602052604090206001015490565b6005546000906124bf9060ff1615826126ed565b50600554610100900460ff1690565b6005546060906124e39060ff161560006126ed565b6005546124fa9062010000900460ff1660016126ed565b6000612507836000612b7f565b90506000612515828561494e565b9050600061252582600254612cde565b600354909150806001600160401b0381111561254357612543614938565b60405190808252806020026020018201604052801561256c578160200160208202803683370190505b50945060005b818110156126005760006003828154811061258f5761258f61490a565b60009182526020808320909101546001600160a01b031680835260049091526040822060010154909250906125c48683613636565b90506125d381151560056126ed565b808985815181106125e6576125e661490a565b602002602001018181525050836001019350505050612572565b5050505050919050565b336001600160a01b03166000356001600160e01b0319166001600160e01b03191660003660405161263c929190614acd565b60405180910390a2565b6005546126589060ff161560006126ed565b6005805460ff19166001179055565b600a54600160501b90046001600160a01b031633141561269957600554610d899062010000900460ff161560046126ed565b336001600160a01b037f00000000000000000000000000000000000000000000000000000000000000001614156126e357600554610d89906301000000900460ff161560076126ed565b610d89600c6138f7565b816126fb576126fb816138f7565b5050565b6005805460ff19169055565b6127136143c9565b6001600160a01b038281166000818152600460209081526040808320815160a081018352815460ff8082161515835261010082048116838701526201000082041682850152630100000090046001600160501b031660608201526001918201546080820152948452600c8352818420825180840190935280549096168083529501549181019190915291926127a790613940565b905060006040518060600160405280856040015160ff168152602001856080015181526020016127f086606001516001600160501b031661191487602001518760400151613a13565b905260408051808201909152908152602081019290925250949350505050565b6128266001600160a01b038316151560236126ed565b6001600160a01b03831660009081526020819052604090205461284d8282101560136126ed565b6001600160a01b03808516600090815260208190526040808220858503905591851681529081208054849290612884908490614920565b92505081905550826001600160a01b0316846001600160a01b0316600080516020614ea0833981519152846040516128be91815260200190565b60405180910390a350505050565b7f00000000000000000000000000000000000000000000000000000000000000006001600160a01b0316635c2dc4f06040518163ffffffff1660e01b815260040160006040518083038186803b15801561292557600080fd5b505afa158015611474573d6000803e3d6000fd5b6005546000906129539062010000900460ff1660016126ed565b6001600160a01b03831660009081526004602052604090205461297a9060ff1660026126ed565b6001600160a01b0383166000908152600460205260409020600101546129bb906129b1906119146002670de0b6b3a76400006148e8565b83111560396126ed565b6129c36143c9565b60606129ce856133b5565b6040805160808101825287815260095460208201529294509092506000919081016103e8612a05670de0b6b3a764000060036148c9565b612a0f91906148e8565b81526002546020918201526040805180820182526005546001600160401b03600160301b820416825260065482850152825160808101845260ff600160201b830481168252600754958201959095524281850152600160281b90910490931660608401529051632dbd333d60e01b81529293509173__Math__________________________________90632dbd333d90612ab590889088908890889088906004016149eb565b602060405180830381865af4158015612ad2573d6000803e3d6000fd5b505050506040513d601f19601f82011682018060405250810190612af6919061489a565b9550868560000151602001818151612b0e9190614920565b905250612b1b8585613a1f565b505050505092915050565b6107a781613b71565b6126fb8282613bd7565b600080612b4e670de0b6b3a7640000856148c9565b90506000612b5d6002856148e8565b612b679083614920565b90506000612b7585836148e8565b9695505050505050565b600080612b8c83856148c9565b90506000612ba36002670de0b6b3a76400006148e8565b612bad9083614920565b90506000612b75670de0b6b3a7640000836148e8565b8281600081836001600160a01b03166370a08231306040518263ffffffff1660e01b8152600401612bf4919061459a565b602060405180830381865afa158015612c11573d6000803e3d6000fd5b505050506040513d601f19601f82011682018060405250810190612c35919061489a565b612c3f9190614920565b9050612c566001600160a01b038716863087613be2565b6040516370a0823160e01b81526000906001600160a01b038516906370a0823190612c8590309060040161459a565b602060405180830381865afa158015612ca2573d6000803e3d6000fd5b505050506040513d601f19601f82011682018060405250810190612cc6919061489a565b9050612cd581831460346126ed565b50505050505050565b600080612cf3670de0b6b3a7640000856148c9565b9050612cff83826148e8565b949350505050565b612d0f614380565b612d176143a1565b6001600160a01b038716600090815260046020526040902054612d619060ff16801561085d57506001600160a01b03861660009081526004602052604090205460ff1660026126ed565b600554612d7790610100900460ff16600a6126ed565b6001600160a01b038516600090815260046020526040902060010154612db890612dae906119096003670de0b6b3a76400006148e8565b851115603a6126ed565b6000612dc38861270b565b90506000612dd08761270b565b825160208082015160409283015184519283015192840151600954945163a221ee4960e01b815295965073__Math__________________________________9563a221ee4995612e24959291600401614877565b602060405180830381865af4158015612e41573d6000803e3d6000fd5b505050506040513d601f19601f82011682018060405250810190612e65919061489a565b808452612e7690861015600b6126ed565b612e8282828842613c4d565b9350612e96888560000151111560086126ed565b835182516020015173__Math__________________________________9163a221ee4991612ec49190614920565b845160400151845160200151612edb908b9061494e565b8560000151604001516009546040518663ffffffff1660e01b8152600401612f07959493929190614877565b602060405180830381865af4158015612f24573d6000803e3d6000fd5b505050506040513d601f19601f82011682018060405250810190612f48919061489a565b602084018190528351612f5e91101560056126ed565b6000612f6e846000015188612b7f565b612f79906001614920565b90508085600001511015612f8b578085525b612fe5600854612fdc612fb28760200151600954670de0b6b3a7640000611914919061494e565b6020808801516040908101518951519289015190910151885151612fd7939190613da5565b612b39565b1115602c6126ed565b5060209182015160409081015184820152910151015160608201529550959350505050565b61301261260a565b61301a612646565b6130226128cc565b600a5461304290600160501b90046001600160a01b0316331460036126ed565b60055461305a9062010000900460ff161560046126ed565b600b54613072906001600160a01b03161560336126ed565b613091670de0b6b3a76400006001600160501b0384161015601e6126ed565b6130c36130a7670de0b6b3a764000060326148c9565b6001600160501b0316836001600160501b03161115601f6126ed565b6130e76130dd64e8d4a51000670de0b6b3a76400006148e8565b84101560206126ed565b6001600160a01b0384166000908152600460205260409020546001600160501b0363010000009091048116908316811015613190576131268184614a8f565b600a5461313c91906001600160501b0316614afc565b600a80546001600160501b0319166001600160501b039290921691909117905561318b613172670de0b6b3a764000060326148c9565b600a546001600160501b039182169116111560216126ed565b6131ee565b806001600160501b0316836001600160501b031610156131ee57600a5483906131c39083906001600160501b0316614a8f565b6131cd9190614afc565b600a80546001600160501b0319166001600160501b03929092169190911790555b6001600160a01b038516600090815260046020526040902080546cffffffffffffffffffff000000191663010000006001600160501b038616021781556001018054908590558085111561325557613250863361324b848961494e565b612bc3565b6132b7565b808510156132b7576000613269868361494e565b90506000613278826000612b7f565b90506132898833612125848661494e565b6132b4887f0000000000000000000000000000000000000000000000000000000000000000836133a1565b50505b60008060006132c586613e3e565b9250925092506132d489613fac565b6132de9083614b27565b6001600160a01b038a81166000818152600460209081526040808320805462ff000019166201000060ff989098169790970296909617909555845180860186528b85168152808201898152848452600c90925291859020915182546001600160a01b031916941693909317815591516001929092019190915590517f367d74750f13eacb165ab505e06111727ad81829a67dd3fd6115c4d294ff1c039061338c908990879087908790614b4c565b60405180910390a250505050506114746126ff565b610f0d6001600160a01b0384168383614014565b6133bd6143c9565b60606133c88361270b565b6003549092506000906133dd9060019061494e565b9050806001600160401b038111156133f7576133f7614938565b60405190808252806020026020018201604052801561343057816020015b61341d6143c9565b8152602001906001900390816134155790505b5091506000805b828210156134d257856001600160a01b03166003828154811061345c5761345c61490a565b6000918252602090912001546001600160a01b0316146134ca576134a66003828154811061348c5761348c61490a565b6000918252602090912001546001600160a01b031661270b565b8483815181106134b8576134b861490a565b60200260200101819052508160010191505b600101613437565b505050915091565b6000805b82518110156114745773__Math__________________________________63a221ee498483815181106135135761351361490a565b602002602001015160000151602001518584815181106135355761353561490a565b6020026020010151600001516040015187600001516020015188600001516040015160006040518663ffffffff1660e01b8152600401613579959493929190614877565b602060405180830381865af4158015613596573d6000803e3d6000fd5b505050506040513d601f19601f820116820180604052508101906135ba919061489a565b915061361b600854612fdc84612fd78786815181106135db576135db61490a565b602002602001015160200151604001518887815181106135fd576135fd61490a565b6020908102919091018101515151908b0151604001518b5151613da5565b6001016134de565b6126fb8282614044565b6107a78161404f565b60008061364383856148c9565b9050612cff670de0b6b3a7640000826148e8565b61365f614380565b6136676143a1565b6001600160a01b0387166000908152600460205260409020546136b19060ff16801561085d57506001600160a01b03861660009081526004602052604090205460ff1660026126ed565b6005546136c790610100900460ff16600a6126ed565b6001600160a01b038716600090815260046020526040902060010154613708906136fe906119146002670de0b6b3a76400006148e8565b87111560396126ed565b60006137138861270b565b905060006137208761270b565b825160208082015160409283015184519283015192840151600954945163a221ee4960e01b815295965073__Math__________________________________9563a221ee4995613774959291600401614877565b602060405180830381865af4158015613791573d6000803e3d6000fd5b505050506040513d601f19601f820116820180604052508101906137b5919061489a565b8084526137c690861015600b6126ed565b6137d282828a426140ae565b93506137e6868560000151101560096126ed565b73__Math__________________________________63a221ee49898460000151602001516138149190614920565b845160400151875185516020015161382c919061494e565b8560000151604001516009546040518663ffffffff1660e01b8152600401613858959493929190614877565b602060405180830381865af4158015613875573d6000803e3d6000fd5b505050506040513d601f19601f82011682018060405250810190613899919061489a565b6020840181905283516138af91101560056126ed565b60006138bf898560000151612cde565b90508085600001511115612f8b57808552612fe5600854612fdc612fb28760200151600954670de0b6b3a7640000611914919061494e565b6030600a820601600a820491506030600a8306018060081b82016753574141502300000160c01b91505062461bcd60e51b60005260206004526008602452806044525060646000fd5b6139486143fe565b6000806000846001600160a01b031663feaf968c6040518163ffffffff1660e01b815260040160a060405180830381865afa15801561398b573d6000803e3d6000fd5b505050506040513d601f19601f820116820180604052508101906139af9190614b7c565b50935050925092506139d1607882426139c8919061494e565b111560306126ed565b6139df6000831360106126ed565b604080516080810182526001600160a01b0390961686526001600160501b0390931660208601529184015260608301525090565b60006109f18284612b39565b6000805b82518110156114745773__Math__________________________________63a221ee49856000015160200151866000015160400151868581518110613a6a57613a6a61490a565b60200260200101516000015160200151878681518110613a8c57613a8c61490a565b6020026020010151600001516040015160006040518663ffffffff1660e01b8152600401613abe959493929190614877565b602060405180830381865af4158015613adb573d6000803e3d6000fd5b505050506040513d601f19601f82011682018060405250810190613aff919061489a565b9150613b69600854612fdc84612fd7886020015160400151896000015160000151898881518110613b3257613b3261490a565b602002602001015160200151604001518a8981518110613b5457613b5461490a565b60200260200101516000015160000151613da5565b600101613a23565b30600090815260208190526040902054613b8c908290614920565b30600090815260208190526040902055600254613baa908290614920565b6002556040518181523090600090600080516020614ea0833981519152906020015b60405180910390a350565b6126fb308383612810565b6040516001600160a01b03808516602483015283166044820152606481018290526114749085906323b872dd60e01b906084015b60408051601f198184030181529190526020810180516001600160e01b03166001600160e01b031990931692909217909152614195565b613c55614380565b60408051606081018252848152600954602082015260009181016103e8613c85670de0b6b3a764000060036148c9565b613c8f91906148e8565b90526040805180820182526005546001600160401b03600160301b8204168252600654602080840191909152835160808101855260ff600160201b840481168252600754828401528186018a9052600160281b90930490921660608301528a8101518401518b5151918b0151909401518a51519596509294919373__Math__________________________________9363b2a3e6d4938d938d93613d34939092613da5565b8787876040518763ffffffff1660e01b8152600401613d5896959493929190614bd4565b606060405180830381865af4158015613d75573d6000803e3d6000fd5b505050506040513d601f19601f82011682018060405250810190613d999190614c37565b98975050505050505050565b60008160ff168460ff161115613df157613dea613de484670de0b6b3a7640000613dcf8689614c92565b613dda90600a614d99565b61191491906148c9565b86612b39565b9050612cff565b8160ff168460ff161015613e3457613dea613e0c8487612b39565b670de0b6b3a7640000613e1f8786614c92565b613e2a90600a614d99565b612fd791906148c9565b613dea8386612b39565b60008060606000849050600080826001600160a01b031663feaf968c6040518163ffffffff1660e01b815260040160a060405180830381865afa158015613e89573d6000803e3d6000fd5b505050506040513d601f19601f82011682018060405250810190613ead9190614b7c565b50935050925050613ec5607882426139c8919061494e565b613ed36000831360106126ed565b81836001600160a01b031663313ce5676040518163ffffffff1660e01b8152600401602060405180830381865afa158015613f12573d6000803e3d6000fd5b505050506040513d601f19601f82011682018060405250810190613f369190614da8565b846001600160a01b0316637284e4166040518163ffffffff1660e01b8152600401600060405180830381865afa158015613f74573d6000803e3d6000fd5b505050506040513d6000823e601f3d908101601f19168201604052613f9c9190810190614dc5565b9550955095505050509193909250565b6000816001600160a01b031663313ce5676040518163ffffffff1660e01b8152600401602060405180830381865afa925050508015614008575060408051601f3d908101601f1916820190925261400591810190614da8565b60015b6107ff57506000919050565b6040516001600160a01b038316602482015260448101829052610f0d90849063a9059cbb60e01b90606401613c16565b6126fb823083612810565b3060009081526020819052604090205461406a90829061494e565b3060009081526020819052604090205560025461408890829061494e565b6002556040518181526000903090600080516020614ea083398151915290602001613bcc565b6140b6614380565b60408051606081018252848152600954602082015260009181016103e86140e6670de0b6b3a764000060036148c9565b6140f091906148e8565b90526040805180820182526005546001600160401b03600160301b8204168252600654602080840191909152835160808101855260ff600160201b840481168252600754828401528186018a9052600160281b90930490921660608301528a8101518401518b5151918b0151909401518a51519596509294919373__Math__________________________________9363f1913050938d938d93613d34939092613da5565b60006141ea826040518060400160405280602081526020017f5361666545524332303a206c6f772d6c6576656c2063616c6c206661696c6564815250856001600160a01b031661426c9092919063ffffffff16565b805190915015610f0d57808060200190518101906142089190614e66565b610f0d5760405162461bcd60e51b815260206004820152602a60248201527f5361666545524332303a204552433230206f7065726174696f6e20646964206e6044820152691bdd081cdd58d8d9595960b21b60648201526084015b60405180910390fd5b6060612cff8484600085856001600160a01b0385163b6142ce5760405162461bcd60e51b815260206004820152601d60248201527f416464726573733a2063616c6c20746f206e6f6e2d636f6e74726163740000006044820152606401614263565b600080866001600160a01b031685876040516142ea9190614e83565b60006040518083038185875af1925050503d8060008114614327576040519150601f19603f3d011682016040523d82523d6000602084013e61432c565b606091505b509150915061433c828286614347565b979650505050505050565b606083156143565750816109f1565b8251156143665782518084602001fd5b8160405162461bcd60e51b815260040161426391906144bc565b60405180606001604052806000815260200160008152602001600081525090565b6040518060800160405280600081526020016000815260200160008152602001600081525090565b6040805160a0810182526000918101828152606082018390526080820192909252908152602081016143f96143fe565b905290565b604051806080016040528060006001600160a01b0316815260200160006001600160501b0316815260200160008152602001600081525090565b60ff811681146107a757600080fd5b60006020828403121561445957600080fd5b81356109f181614438565b60005b8381101561447f578181015183820152602001614467565b838111156114745750506000910152565b600081518084526144a8816020860160208601614464565b601f01601f19169290920160200192915050565b6020815260006109f16020830184614490565b80356001600160a01b0381168114610ad557600080fd5b600080604083850312156144f957600080fd5b614502836144cf565b946020939093013593505050565b6000806040838503121561452357600080fd5b61452c836144cf565b915061453a602084016144cf565b90509250929050565b60008060006060848603121561455857600080fd5b614561846144cf565b925061456f602085016144cf565b9150604084013590509250925092565b60006020828403121561459157600080fd5b6109f1826144cf565b6001600160a01b0391909116815260200190565b6000602082840312156145c057600080fd5b5035919050565b6000602082840312156145d957600080fd5b81356001600160401b03811681146109f157600080fd5b80151581146107a757600080fd5b60006020828403121561461057600080fd5b81356109f1816145f0565b60008060006040848603121561463057600080fd5b8335925060208401356001600160401b038082111561464e57600080fd5b818601915086601f83011261466257600080fd5b81358181111561467157600080fd5b8760208260051b850101111561468657600080fd5b6020830194508093505050509250925092565b600081518084526020808501945080840160005b838110156146c9578151875295820195908201906001016146ad565b509495945050505050565b828152604060208201526000612cff6040830184614699565b600080600080600060a0868803121561470557600080fd5b61470e866144cf565b945060208601359350614723604087016144cf565b94979396509394606081013594506080013592915050565b825181526020808401518183015260408085015181840152835160608085019190915291840151608084015283015160a083015282015160c082015260e081016109f1565b6001600160501b03811681146107a757600080fd5b600080600080608085870312156147ab57600080fd5b6147b4856144cf565b93506020850135925060408501356147cb81614780565b91506147d9606086016144cf565b905092959194509250565b6000806000606084860312156147f957600080fd5b614802846144cf565b95602085013595506040909401359392505050565b6020808252825182820181905260009190848201906040850190845b818110156148585783516001600160a01b031683529284019291840191600101614833565b50909695505050505050565b6020815260006109f16020830184614699565b948552602085019390935260408401919091526060830152608082015260a00190565b6000602082840312156148ac57600080fd5b5051919050565b634e487b7160e01b600052601160045260246000fd5b60008160001904831182151516156148e3576148e36148b3565b500290565b60008261490557634e487b7160e01b600052601260045260246000fd5b500490565b634e487b7160e01b600052603260045260246000fd5b60008219821115614933576149336148b3565b500190565b634e487b7160e01b600052604160045260246000fd5b600082821015614960576149606148b3565b500390565b8051805160ff16835260208082015181850152604091820151828501529182015180516001600160a01b0316606080860191909152928101516001600160501b031660808501529081015160a0840152015160c090910152565b60ff8151168252602081015160208301526040810151604083015260ff60608201511660608301525050565b60006102408083016149fd848a614965565b60e084810192909252875190819052610260840191602091828a0160005b82811015614a3e57614a2e868351614965565b9483019490840190600101614a1b565b505088516101008701525050506020860151610120840152604086015161014084015260608601516101608401529050835161018083015260208401516101a0830152612b756101c08301846149bf565b60006001600160501b0383811690831681811015614aaf57614aaf6148b3565b039392505050565b634e487b7160e01b600052603160045260246000fd5b60208152816020820152818360408301376000818301604090810191909152601f909201601f19160101919050565b60006001600160501b03808316818516808303821115614b1e57614b1e6148b3565b01949350505050565b600060ff821660ff84168060ff03821115614b4457614b446148b3565b019392505050565b60018060a01b038516815283602082015260ff83166040820152608060608201526000612b756080830184614490565b600080600080600060a08688031215614b9457600080fd5b8551614b9f81614780565b809550506020860151935060408601519250606086015191506080860151614bc681614780565b809150509295509295909350565b6103008101614be38289614965565b614bf060e0830188614965565b6101c0820186905284516101e0830152602085015161020083015260408501516102208301528351610240830152602084015161026083015261433c6102808301846149bf565b600060608284031215614c4957600080fd5b604051606081018181106001600160401b0382111715614c6b57614c6b614938565b80604052508251815260208301516020820152604083015160408201528091505092915050565b600060ff821660ff841680821015614cac57614cac6148b3565b90039392505050565b600181815b80851115614cf0578160001904821115614cd657614cd66148b3565b80851615614ce357918102915b93841c9390800290614cba565b509250929050565b600082614d07575060016107ff565b81614d14575060006107ff565b8160018114614d2a5760028114614d3457614d50565b60019150506107ff565b60ff841115614d4557614d456148b3565b50506001821b6107ff565b5060208310610133831016604e8410600b8410161715614d73575081810a6107ff565b614d7d8383614cb5565b8060001904821115614d9157614d916148b3565b029392505050565b60006109f160ff841683614cf8565b600060208284031215614dba57600080fd5b81516109f181614438565b600060208284031215614dd757600080fd5b81516001600160401b0380821115614dee57600080fd5b818401915084601f830112614e0257600080fd5b815181811115614e1457614e14614938565b604051601f8201601f19908116603f01168101908382118183101715614e3c57614e3c614938565b81604052828152876020848701011115614e5557600080fd5b61433c836020830160208801614464565b600060208284031215614e7857600080fd5b81516109f1816145f0565b60008251614e95818460208701614464565b919091019291505056feddf252ad1be2c89b69c2b068fc378daa952ba7f163c4a11628f55a4df523b3ef8c5be1e5ebec7d5bd14f71427d1e84f3dd0314c0f7b2291e5b200ac8c7c3b925a26469706673582212200500981b356ba740425f7cf6c845a7370658dabbfb717b848962643ac68617f664736f6c634300080c0033",
  "immutableReferences": {
    "7273": [
      {
        "length": 32,
        "start": 4613
      },
      {
        "length": 32,
        "start": 6645
      },
      {
        "length": 32,
        "start": 6925
      },
      {
        "length": 32,
        "start": 7232
      },
      {
        "length": 32,
        "start": 8496
      },
      {
        "length": 32,
        "start": 9892
      },
      {
        "length": 32,
        "start": 10446
      },
      {
        "length": 32,
        "start": 12943
      }
    ]
  },
  "source": "// SPDX-License-Identifier: GPL-3.0-or-later\n// This program is free software: you can redistribute it and/or modify\n// it under the terms of the GNU Affero General Public License as published by\n// the Free Software Foundation, either version 3 of the License, or any later version.\n\n// This program is distributed in the hope that it will be useful,\n// but WITHOUT ANY WARRANTY; without even the implied warranty of\n// MERCHANTABILITY or FITNESS FOR A PARTICULAR PURPOSE. See the\n// GNU Affero General Public License for more details.\n\n// You should have received a copy of the GNU Affero General Public License\n// along with this program. If not, see <http://www.gnu.org/licenses/>.\n\npragma solidity =0.8.12;\n\nimport \"./Const.sol\";\nimport \"./PoolToken.sol\";\nimport \"./Math.sol\";\n\nimport \"./Num.sol\";\nimport \"./structs/Struct.sol\";\n\nimport \"@openzeppelin/contracts/token/ERC20/utils/SafeERC20.sol\";\n\nimport \"./interfaces/IFactory.sol\";\nimport \"./interfaces/IPool.sol\";\nimport \"./interfaces/IDecimals.sol\";\n\nimport \"./ChainlinkUtils.sol\";\n\nimport \"./Errors.sol\";\n\ncontract Pool is PoolToken, IPool {\n\n    using SafeERC20 for IERC20; \n\n    struct Record {\n        bool bound;   // is token bound to pool\n        uint8 index;   // private\n        uint8 decimals; // token decimals + oracle decimals\n        uint80 denorm;  // denormalized weight\n        uint256 balance;\n    }\n\n    // putting modifier logic in functions enables contract size optimization\n    function _emitLog() private {\n        emit LOG_CALL(msg.sig, msg.sender, msg.data);\n    }\n\n    modifier _logs_() {\n        _emitLog();\n        _;\n    }\n\n    function _lock() private {\n        _require(!_mutex, Err.REENTRY);\n        _mutex = true;\n    }\n\n    function _unlock() private {\n        _mutex = false;\n    }\n\n    modifier _lock_() {\n        _lock();\n        _;\n        _unlock();\n    }\n\n    modifier _viewlock_() {\n        _require(!_mutex, Err.REENTRY);\n        _;\n    }\n\n    function _whenNotPaused() private view {\n        IFactory(_factory).whenNotPaused();\n    }\n\n    modifier _whenNotPaused_() {\n        _whenNotPaused();\n        _;\n    }\n\n    function _onlyAdmins() private view {\n        if (msg.sender == _controller) {\n            _require(!_finalized, Err.IS_FINALIZED);\n        }\n        else if (msg.sender == _factory) {\n            _require(!_revokedFactoryControl, Err.FACTORY_CONTROL_REVOKED);\n        }\n        else {\n            _revert(Err.NOT_ADMIN);\n        }\n    }\n\n    modifier _onlyAdmins_() {\n        _onlyAdmins();\n        _;\n    }\n\n    // prevents token transfers with fees\n    modifier _checkBalanceAfterTransfer_(address erc20, uint amount) {\n        uint expectedBalance = IERC20(erc20).balanceOf(address(this)) + amount;\n        _;\n        uint currentBalance = IERC20(erc20).balanceOf(address(this));\n        _require(expectedBalance == currentBalance, Err.UNEXPECTED_BALANCE);\n    }\n\n    address[] private _tokens;\n    mapping(address=>Record) private _records;\n\n    bool    private _mutex;\n    // `finalize` sets `PUBLIC can SWAP`, `PUBLIC can JOIN`\n    bool    private _publicSwap; // true if PUBLIC can call SWAP functions\n    \n    bool    private _finalized;\n    bool    private _revokedFactoryControl; // if true factory cannot change pool parameters\n    address immutable private _factory; // Factory address to push token exitFee to\n\n    // Coverage parameters\n    uint8   private _priceStatisticsLookbackInRound;\n    uint8   private _priceStatisticsLookbackStepInRound;\n    uint64  private _dynamicCoverageFeesZ;\n    uint256 private _dynamicCoverageFeesHorizon;\n    uint256 private _priceStatisticsLookbackInSec;\n    uint256 private _maxPriceUnpegRatio;\n\n    // Pool's swap fee\n    uint256 private _swapFee;\n\n    uint80  private _totalWeight;\n    address private _controller; // has CONTROL role\n    address private _pendingController;\n        \n    mapping(address=>Struct.OracleState) private _oraclesInitialState;\n\n\n    constructor() {\n        _controller = msg.sender;\n        _factory = msg.sender;\n        // Pool swap fee\n        _swapFee = Const.MIN_FEE;\n        // Coverage parameters\n        _priceStatisticsLookbackInRound = Const.BASE_LOOKBACK_IN_ROUND;\n        _priceStatisticsLookbackStepInRound = Const.LOOKBACK_STEP_IN_ROUND;\n        _dynamicCoverageFeesZ = Const.BASE_Z;\n        _dynamicCoverageFeesHorizon = Const.BASE_HORIZON;\n        _priceStatisticsLookbackInSec = Const.BASE_LOOKBACK_IN_SEC;\n        _maxPriceUnpegRatio = Const.BASE_MAX_PRICE_UNPEG_RATIO;\n    }\n\n    /**\n    * @dev Returns true if a trader can swap on the pool\n    */\n    function isPublicSwap()\n    external view\n    _viewlock_\n    returns (bool)\n    {\n        return _publicSwap;\n    }\n\n    /**\n    * @dev Returns true if a liquidity provider can join the pool\n    * A trader can swap on the pool if the pool is either finalized or isPublicSwap\n    */\n    function isFinalized()\n    external view\n    _viewlock_\n    returns (bool)\n    {\n        return _finalized;\n    }\n\n    /**\n    * @dev Returns true if the token is binded to the pool\n    */\n    function isBound(address t)\n    external view\n    _viewlock_\n    returns (bool)\n    {\n        return _records[t].bound;\n    }\n\n    /**\n    * @dev Returns the binded tokens\n    */\n    function getTokens()\n    external view\n    _viewlock_\n    returns (address[] memory tokens)\n    {\n        return _tokens;\n    }\n\n    /**\n    * @dev Returns the initial weight of a binded token\n    * The initial weight is the un-adjusted weight set by the controller at bind\n    * The adjusted weight is the corrected weight based on the token's price performance:\n    * adjusted_weight = initial_weight * current_price / initial_price\n    */\n    function getDenormalizedWeight(address token)\n    external view\n    _viewlock_\n    returns (uint256)\n    {\n        _require(_records[token].bound, Err.NOT_BOUND);\n        return _records[token].denorm;\n    }\n\n    /**\n    * @dev Returns the balance of a binded token\n    */\n    function getBalance(address token)\n    external view\n    _viewlock_\n    returns (uint256)\n    {\n        _require(_records[token].bound, Err.NOT_BOUND);\n        return _records[token].balance;\n    }\n\n    /**\n    * @dev Returns the swap fee of the pool\n    */\n    function getSwapFee()\n    external view\n    _viewlock_\n    returns (uint256)\n    {\n        return _swapFee;\n    }\n\n    /**\n    * @dev Returns the current controller of the pool\n    */\n    function getController()\n    external view\n    _viewlock_\n    returns (address)\n    {\n        return _controller;\n    }\n\n    /**\n    * @notice Sets swap fee\n    */\n    function setSwapFee(uint256 swapFee)\n    external\n    _logs_\n    _lock_\n    _onlyAdmins_\n    {\n        _require(swapFee >= Const.MIN_FEE, Err.MIN_FEE);\n        _require(swapFee <= Const.MAX_FEE, Err.MAX_FEE);\n        _swapFee = swapFee;\n    }\n\n    /**\n    * @notice Allows a controller to transfer ownership to a new address\n    * @dev It is recommended to use transferOwnership/acceptOwnership logic for safer transfers\n    * to avoid any faulty input\n    * This function is useful when creating pools using a proxy contract and transfer pool assets\n    * WARNING: Binded assets are also transferred to the new controller if the pool is not finalized\n    */  \n    function setControllerAndTransfer(address controller)\n    external\n    _lock_\n    {\n        _require(msg.sender == _controller, Err.NOT_CONTROLLER);\n        _require(controller != address(0), Err.NULL_CONTROLLER);\n        _controller = controller;\n        _pendingController = address(0);\n        emit LOG_NEW_CONTROLLER(msg.sender, controller);\n    }\n    \n    /**\n    * @notice Allows a controller to begin transferring ownership to a new address\n    * @dev The function will revert if there are binded tokens in an un-finalized pool\n    * This prevents any accidental loss of funds for the current controller\n    */\n    function transferOwnership(address pendingController)\n    external\n    _logs_\n    {\n        _require(msg.sender == _controller, Err.NOT_CONTROLLER);\n        if(!_finalized){\n            // This condition prevents any accidental transfer of funds between the old and new controller\n            // when the pool is not finalized\n            _require(_tokens.length == 0 ,Err.BINDED_TOKENS);\n        }\n        _pendingController = pendingController;\n    }\n\n    /**\n    * @notice Allows a controller transfer to be completed by the recipient\n    */\n    function acceptOwnership()\n    external\n    {\n        _require(msg.sender == _pendingController, Err.NOT_PENDING_CONTROLLER);\n\n        address oldController = _controller;\n        _controller = msg.sender;\n        _pendingController = address(0);\n\n        emit LOG_NEW_CONTROLLER(oldController, msg.sender);\n    }\n\n    /**\n    * @notice Revokes factory control over pool parameters\n    * @dev Factory control can only be revoked by the factory and not the pool controller\n    */\n    function revokeFactoryControl()\n    external\n    _logs_\n    {\n        _require(msg.sender == _factory, Err.NOT_FACTORY);\n        _revokedFactoryControl = true;\n    }\n\n    /**\n    * @notice Gives back factory control over the pool parameters\n    */\n    function giveFactoryControl()\n    external\n    _logs_\n    {\n        _require(msg.sender == _controller, Err.NOT_CONTROLLER);\n        _revokedFactoryControl = false;\n    }\n\n    /**\n    * @notice Enables public swaps on the pool but does not finalize the parameters\n    * @dev Unfinalized pool enables exclusively the controller to add liquidity into the pool\n    */\n    function setPublicSwap(bool publicSwap)\n    external\n    _logs_\n    _lock_\n    {\n        _require(!_finalized, Err.IS_FINALIZED);\n        _require(msg.sender == _controller, Err.NOT_CONTROLLER);\n        _publicSwap = publicSwap;\n    }\n\n    /**\n    * @notice Enables publicswap and finalizes the pool's tokens, price feeds, initial shares, balances and weights\n    */\n    function finalize()\n    external\n    _logs_\n    _lock_\n    {\n        _require(!_finalized, Err.IS_FINALIZED);\n        _require(msg.sender == _controller, Err.NOT_CONTROLLER);\n        _require(_tokens.length >= Const.MIN_BOUND_TOKENS, Err.MIN_TOKENS);\n\n        _finalized = true;\n        _publicSwap = true;\n\n        _mintPoolShare(Const.INIT_POOL_SUPPLY);\n        _pushPoolShare(msg.sender, Const.INIT_POOL_SUPPLY);\n    }\n\n    /**\n    * @dev Absorb any tokens that have been sent to this contract into the pool\n    * @param token The token's address\n    */\n    function gulp(address token)\n    external\n    _logs_\n    _lock_\n    {\n        _require(_records[token].bound, Err.NOT_BOUND);\n        _records[token].balance = IERC20(token).balanceOf(address(this));\n    }\n\n    /**\n    * @notice Get the token amounts in required and pool shares received when joining\n    * the pool given an amount of tokenIn\n    * @dev The amountIn of the specified token as input may differ at the exit due to\n    * rounding discrepancies\n    * @param  tokenIn The address of tokenIn\n    * @param  tokenAmountIn The approximate amount of tokenIn to be swapped\n    * @return poolAmountOut The pool amount out received\n    * @return tokenAmountsIn The exact amounts of tokenIn needed\n    */\n    function getJoinPool(address tokenIn, uint256 tokenAmountIn)\n    external\n    view\n    _viewlock_\n    _whenNotPaused_\n    returns (uint256 poolAmountOut, uint256[] memory tokenAmountsIn)\n    {\n        _require(_finalized, Err.NOT_FINALIZED);\n        _require(_records[tokenIn].bound, Err.NOT_BOUND);\n\n        uint256 ratio = Num.divTruncated(tokenAmountIn, _records[tokenIn].balance);\n        \n        uint256 poolTotal = _totalSupply;\n        poolAmountOut = Num.mul(ratio, poolTotal);\n        // ratio is re-evaluated to avoid any calculation discrepancies with joinPool\n        ratio = Num.div(poolAmountOut, poolTotal);\n        _require(ratio != 0, Err.MATH_APPROX);\n\n        uint256 tokensLength = _tokens.length;\n        tokenAmountsIn = new uint256[](tokensLength);\n\n        for (uint256 i; i < tokensLength;) {\n            address t     = _tokens[i];\n            uint256 bal   = _records[t].balance;\n            tokenAmountIn = Num.mul(ratio, bal);\n            _require(tokenAmountIn != 0, Err.MATH_APPROX);\n            tokenAmountsIn[i] = tokenAmountIn;\n            unchecked{++i;}\n        }\n        \n        return (poolAmountOut, tokenAmountsIn);\n\n    }\n\n\n    /**\n    * @notice Add liquidity to a pool and credit msg.sender\n    * @dev The order of maxAmount of each token must be the same as the _tokens' addresses stored in the pool\n    * @param poolAmountOut Amount of pool shares a LP wishes to receive\n    * @param maxAmountsIn Maximum accepted token amount in\n    */\n    function joinPool(uint256 poolAmountOut, uint256[] calldata maxAmountsIn)\n    _logs_\n    _lock_\n    _whenNotPaused_\n    external\n    {\n        _require(_finalized, Err.NOT_FINALIZED);\n        _require(maxAmountsIn.length == _tokens.length, Err.INPUT_LENGTH_MISMATCH);\n\n        uint256 ratio = Num.div(poolAmountOut, _totalSupply);\n        _require(ratio != 0, Err.MATH_APPROX);\n\n        for (uint256 i; i < maxAmountsIn.length;) {\n            address t = _tokens[i];\n            uint256 bal = _records[t].balance;\n            uint256 tokenAmountIn = Num.mul(ratio, bal);\n            _require(tokenAmountIn != 0, Err.MATH_APPROX);\n            _require(tokenAmountIn <= maxAmountsIn[i], Err.LIMIT_IN);\n            _records[t].balance = bal + tokenAmountIn;\n            emit LOG_JOIN(msg.sender, t, tokenAmountIn);\n            _pullUnderlying(t, msg.sender, tokenAmountIn);\n            unchecked{++i;}\n        }\n        _mintPoolShare(poolAmountOut);\n        _pushPoolShare(msg.sender, poolAmountOut);\n    }\n\n    /**\n    * @notice Get the token amounts received for a given pool shares in\n    * @param poolAmountIn The amount of pool shares a LP wishes to liquidate for tokens\n    * @return tokenAmountsOut The token amounts received\n    */\n    function getExitPool(uint256 poolAmountIn)\n    external\n    view\n    _viewlock_\n    returns (uint256[] memory tokenAmountsOut)\n    {\n\n        _require(_finalized, Err.NOT_FINALIZED);\n\n        uint256 exitFee = Num.mul(poolAmountIn, Const.EXIT_FEE);\n        uint256 pAiAfterExitFee = poolAmountIn - exitFee;\n        uint256 ratio = Num.divTruncated(pAiAfterExitFee, _totalSupply);\n\n        uint256 tokensLength = _tokens.length;\n        tokenAmountsOut = new uint256[](tokensLength);\n\n        for (uint256 i; i < tokensLength;) {\n            address t = _tokens[i];\n            uint256 bal = _records[t].balance;\n            uint256 tokenAmountOut = Num.mulTruncated(ratio, bal);\n            _require(tokenAmountOut != 0, Err.MATH_APPROX);\n            tokenAmountsOut[i] = tokenAmountOut;\n            unchecked{++i;}\n        }\n\n        return tokenAmountsOut;\n    }\n\n    /**\n    * @notice Remove liquidity from a pool\n    * @dev The order of minAmount of each token must be the same as the _tokens' addresses stored in the pool\n    * @param poolAmountIn Amount of pool shares a LP wishes to liquidate for tokens\n    * @param minAmountsOut Minimum accepted token amount out\n    */\n    function exitPool(uint256 poolAmountIn, uint256[] calldata minAmountsOut)\n    external\n    _logs_\n    _lock_\n    {\n        _require(_finalized, Err.NOT_FINALIZED);\n        _require(minAmountsOut.length == _tokens.length, Err.INPUT_LENGTH_MISMATCH);\n\n        uint256 exitFee = Num.mul(poolAmountIn, Const.EXIT_FEE);\n        uint256 pAiAfterExitFee = poolAmountIn - exitFee;\n        uint256 ratio = Num.divTruncated(pAiAfterExitFee, _totalSupply);\n        _require(ratio != 0, Err.MATH_APPROX);\n\n        _pullPoolShare(msg.sender, poolAmountIn);\n        _pushPoolShare(_factory, exitFee);\n        _burnPoolShare(pAiAfterExitFee);\n\n        for (uint256 i; i < minAmountsOut.length;) {\n            address t = _tokens[i];\n            uint256 bal = _records[t].balance;\n            uint256 tokenAmountOut = Num.mulTruncated(ratio, bal);\n            _require(tokenAmountOut != 0, Err.MATH_APPROX);\n            _require(tokenAmountOut >= minAmountsOut[i], Err.LIMIT_OUT);\n\n            _records[t].balance = _records[t].balance - tokenAmountOut;\n            emit LOG_EXIT(msg.sender, t, tokenAmountOut);\n            _pushUnderlying(t, msg.sender, tokenAmountOut);\n            unchecked{++i;}\n        }\n\n    }\n\n    /**\n    * @notice Computes the amount of pool tokens received when joining a pool with a single asset of fixed amount in\n    * @dev The remaining tokens designate the tokens whose balances do not change during the joinswap\n    * @param tokenIn The address of tokenIn\n    * @param tokenAmountIn The amount of tokenIn to be added to the pool\n    * @return poolAmountOut The received pool token amount out\n    */\n    function getJoinswapExternAmountInMMM(address tokenIn, uint256 tokenAmountIn)\n    external\n    view\n    _viewlock_\n    _whenNotPaused_\n    returns (uint256 poolAmountOut)\n    {\n        return (poolAmountOut = _getJoinswapExternAmountInMMM(tokenIn, tokenAmountIn));\n    }\n\n    function _getJoinswapExternAmountInMMM(address tokenIn, uint256 tokenAmountIn)\n    internal\n    view\n    returns (uint256 poolAmountOut)\n    {\n        _require(_finalized, Err.NOT_FINALIZED);\n        _require(_records[tokenIn].bound, Err.NOT_BOUND);\n        _require(tokenAmountIn <= Num.mul(_records[tokenIn].balance, Const.MAX_IN_RATIO), Err.MAX_IN_RATIO);\n\n        Struct.TokenGlobal memory tokenInInfo;\n        Struct.TokenGlobal[] memory remainingTokensInfo;\n        (tokenInInfo, remainingTokensInfo) = _getAllTokensInfo(tokenIn);\n\n        {\n            Struct.JoinExitSwapParameters memory joinswapParameters = Struct.JoinExitSwapParameters(\n                tokenAmountIn,\n                _swapFee,\n                Const.FALLBACK_SPREAD,\n                _totalSupply\n            );\n            Struct.GBMParameters memory gbmParameters = Struct.GBMParameters(\n                _dynamicCoverageFeesZ,\n                _dynamicCoverageFeesHorizon\n            );\n            Struct.HistoricalPricesParameters memory hpParameters = Struct.HistoricalPricesParameters(\n                _priceStatisticsLookbackInRound,\n                _priceStatisticsLookbackInSec,\n                block.timestamp,\n                _priceStatisticsLookbackStepInRound\n            );\n\n            poolAmountOut = Math.calcPoolOutGivenSingleInMMM(\n                tokenInInfo,\n                remainingTokensInfo,\n                joinswapParameters,\n                gbmParameters,\n                hpParameters\n            );\n\n            tokenInInfo.info.balance += tokenAmountIn;\n            _checkJoinSwapPrices(tokenInInfo, remainingTokensInfo);\n\n            return poolAmountOut;\n        }\n    }\n\n    /**\n    * @notice Join a pool with a single asset with a fixed amount in\n    * @dev The remaining tokens designate the tokens whose balances do not change during the joinswap\n    * @param tokenIn The address of tokenIn\n    * @param tokenAmountIn The amount of tokenIn to be added to the pool\n    * @param minPoolAmountOut The minimum amount of pool tokens that can be received\n    * @return poolAmountOut The received pool amount out\n    */\n    function joinswapExternAmountInMMM(address tokenIn, uint tokenAmountIn, uint minPoolAmountOut)\n    external\n    _logs_\n    _lock_\n    _whenNotPaused_\n    returns (uint poolAmountOut)\n    {        \n        poolAmountOut = _getJoinswapExternAmountInMMM(\n            tokenIn, tokenAmountIn\n        );\n\n        _require(poolAmountOut >= minPoolAmountOut, Err.LIMIT_OUT);\n\n        _records[tokenIn].balance = _records[tokenIn].balance + tokenAmountIn;\n\n        emit LOG_JOIN(msg.sender, tokenIn, tokenAmountIn);\n\n        _pullUnderlying(tokenIn, msg.sender, tokenAmountIn);\n        _mintPoolShare(poolAmountOut);\n        _pushPoolShare(msg.sender, poolAmountOut);\n\n        return poolAmountOut;\n    }\n\n    /**\n    * @notice Exit a pool with a single asset given the pool token amount in\n    * @dev The remaining tokens designate the tokens whose balances do not change during the exitswap\n    * @param tokenOut The address of tokenOut\n    * @param poolAmountIn The fixed amount of pool tokens in\n    * @param minAmountOut The minimum amount of token out that can be receied\n    * @return tokenAmountOut The received token amount out\n    */\n    function exitswapPoolAmountInMMM(address tokenOut, uint poolAmountIn, uint minAmountOut)\n    external\n    _logs_\n    _lock_\n    _whenNotPaused_\n    returns (uint tokenAmountOut)\n    {\n        _require(_finalized, Err.NOT_FINALIZED);\n        _require(_records[tokenOut].bound, Err.NOT_BOUND);\n\n        Struct.TokenGlobal memory tokenOutInfo;\n        Struct.TokenGlobal[] memory remainingTokensInfo;\n\n        (tokenOutInfo, remainingTokensInfo) = _getAllTokensInfo(tokenOut);\n\n        {\n            Struct.JoinExitSwapParameters memory exitswapParameters = Struct.JoinExitSwapParameters(\n                poolAmountIn,\n                _swapFee,\n                Const.FALLBACK_SPREAD,\n                _totalSupply\n            );\n            Struct.GBMParameters memory gbmParameters = Struct.GBMParameters(\n                _dynamicCoverageFeesZ,\n                _dynamicCoverageFeesHorizon\n            );\n            Struct.HistoricalPricesParameters memory hpParameters = Struct.HistoricalPricesParameters(\n                _priceStatisticsLookbackInRound,\n                _priceStatisticsLookbackInSec,\n                block.timestamp,\n                _priceStatisticsLookbackStepInRound\n            );\n\n            tokenAmountOut = Math.calcSingleOutGivenPoolInMMM(\n                tokenOutInfo,\n                remainingTokensInfo,\n                exitswapParameters,\n                gbmParameters,\n                hpParameters\n            );\n            _require(tokenAmountOut <= Num.mul(_records[tokenOut].balance, Const.MAX_OUT_RATIO), Err.MAX_OUT_RATIO);\n        }\n\n        _require(tokenAmountOut >= minAmountOut, Err.LIMIT_OUT);\n\n        tokenOutInfo.info.balance -= tokenAmountOut;\n        _checkExitSwapPrices(tokenOutInfo, remainingTokensInfo);\n        _records[tokenOut].balance = tokenOutInfo.info.balance;\n\n        uint exitFee =  Num.mul(poolAmountIn, Const.EXIT_FEE);\n\n        emit LOG_EXIT(msg.sender, tokenOut, tokenAmountOut);\n\n        _pullPoolShare(msg.sender, poolAmountIn);\n        _burnPoolShare(poolAmountIn - exitFee);\n        _pushPoolShare(_factory, exitFee);\n        _pushUnderlying(tokenOut, msg.sender, tokenAmountOut);\n\n        return tokenAmountOut;\n    }\n\n    /**\n    * @dev 'Underlying' token-manipulation functions make external calls but are NOT locked\n    * You must `_lock_` or otherwise ensure reentry-safety\n    */\n    function _pullUnderlying(address erc20, address from, uint256 amount)\n    internal\n    _checkBalanceAfterTransfer_(erc20, amount)\n    {\n        IERC20(erc20).safeTransferFrom(from, address(this), amount);\n    }\n\n    /**\n    * @dev 'Underlying' token-manipulation functions make external calls but are NOT locked\n    * You must `_lock_` or otherwise ensure reentry-safety\n    */\n    function _pushUnderlying(address erc20, address to, uint256 amount)\n    internal\n    {\n        IERC20(erc20).safeTransfer(to, amount);\n    }\n\n    function _pullPoolShare(address from, uint256 amount)\n    internal\n    {\n        _pull(from, amount);\n    }\n\n    function _pushPoolShare(address to, uint256 amount)\n    internal\n    {\n        _push(to, amount);\n    }\n\n    function _mintPoolShare(uint256 amount)\n    internal\n    {\n        _mint(amount);\n    }\n\n    function _burnPoolShare(uint256 amount)\n    internal\n    {\n        _burn(amount);\n    }\n\n    /**\n    * @notice Sets dynamic coverage fees Z\n    */\n    function setDynamicCoverageFeesZ(uint64 dynamicCoverageFeesZ)\n    external\n    _logs_\n    _lock_\n    _onlyAdmins_\n    {\n        _dynamicCoverageFeesZ = dynamicCoverageFeesZ;\n    }\n\n    /**\n    * @notice Sets dynamic coverage fees horizon\n    */\n    function setDynamicCoverageFeesHorizon(uint256 dynamicCoverageFeesHorizon)\n    external\n    _logs_\n    _lock_\n    _onlyAdmins_\n    {\n        _require(dynamicCoverageFeesHorizon >= Const.MIN_HORIZON, Err.MIN_HORIZON);\n        _dynamicCoverageFeesHorizon = dynamicCoverageFeesHorizon;\n    }\n\n    /**\n    * @notice Sets price statistics maximum lookback in round\n    */\n    function setPriceStatisticsLookbackInRound(uint8 priceStatisticsLookbackInRound)\n    external\n    _logs_\n    _lock_\n    _onlyAdmins_\n    {\n        _require(priceStatisticsLookbackInRound >= Const.MIN_LOOKBACK_IN_ROUND, Err.MIN_LB_PERIODS);\n        _require(priceStatisticsLookbackInRound <= Const.MAX_LOOKBACK_IN_ROUND, Err.MAX_LB_PERIODS);\n        _priceStatisticsLookbackInRound = priceStatisticsLookbackInRound;\n    }\n\n    /** \n    * @notice Sets price statistics maximum lookback in seconds\n    */\n    function setPriceStatisticsLookbackInSec(uint256 priceStatisticsLookbackInSec)\n    external\n    _logs_\n    _lock_\n    _onlyAdmins_\n    {\n        _require(priceStatisticsLookbackInSec >= Const.MIN_LOOKBACK_IN_SEC, Err.MIN_LB_SECS);\n        _priceStatisticsLookbackInSec = priceStatisticsLookbackInSec;\n    }\n\n    /**\n    * @notice Sets price statistics lookback step in round\n    * @dev This corresponds to the roundId lookback step when looking for historical prices\n    */\n    function setPriceStatisticsLookbackStepInRound(uint8 priceStatisticsLookbackStepInRound)\n    external\n    _logs_\n    _lock_\n    _onlyAdmins_\n    {\n        _require(priceStatisticsLookbackStepInRound >= Const.MIN_LOOKBACK_STEP_IN_ROUND, Err.MIN_LB_STEP_PERIODS);\n        _priceStatisticsLookbackStepInRound = priceStatisticsLookbackStepInRound;\n    }\n\n    /**\n    * @notice Sets price statistics maximum unpeg ratio\n    */\n    function setMaxPriceUnpegRatio(uint256 maxPriceUnpegRatio)\n    external\n    _logs_\n    _lock_\n    {\n        _require(msg.sender == _factory, Err.NOT_FACTORY);\n        _require(!_revokedFactoryControl, Err.FACTORY_CONTROL_REVOKED);\n        _require(maxPriceUnpegRatio >= Const.MIN_MAX_PRICE_UNPEG_RATIO, Err.MIN_MAX_PRICE_UNPEG_RATIO);\n        _require(maxPriceUnpegRatio <= Const.MAX_MAX_PRICE_UNPEG_RATIO, Err.MAX_MAX_PRICE_UNPEG_RATIO);\n        _maxPriceUnpegRatio = maxPriceUnpegRatio;\n    }\n\n    /**\n    * @dev Returns the coverage parameters of the pool\n    */\n    function getCoverageParameters()\n    external view\n    _viewlock_\n    returns (\n            uint8   priceStatisticsLBInRound,\n            uint8   priceStatisticsLBStepInRound,\n            uint64  dynamicCoverageFeesZ,\n            uint256 dynamicCoverageFeesHorizon,\n            uint256 priceStatisticsLBInSec,\n            uint256 maxPriceUnpegRatio\n        )\n    {\n        return (\n            priceStatisticsLBInRound     = _priceStatisticsLookbackInRound,\n            priceStatisticsLBStepInRound = _priceStatisticsLookbackStepInRound,\n            dynamicCoverageFeesZ         = _dynamicCoverageFeesZ,\n            dynamicCoverageFeesHorizon   = _dynamicCoverageFeesHorizon,\n            priceStatisticsLBInSec       = _priceStatisticsLookbackInSec,\n            maxPriceUnpegRatio           = _maxPriceUnpegRatio\n        );\n    }\n\n    /**\n    * @dev Returns the token's price when it was binded to the pool\n    */\n    function getTokenOracleInitialPrice(address token)\n    external view\n    _viewlock_\n    returns (uint256)\n    {\n        _require(_records[token].bound, Err.NOT_BOUND);\n        return _oraclesInitialState[token].price;\n    }\n\n    /**\n    * @dev Returns the oracle's address of a token\n    */\n    function getTokenPriceOracle(address token)\n    external view\n    _viewlock_\n    returns (address)\n    {\n        _require(_records[token].bound, Err.NOT_BOUND);\n        return _oraclesInitialState[token].oracle;\n    }\n\n    /**\n    * @notice Bind a new token to the pool\n    * @param token The token's address\n    * @param balance The token's balance\n    * @param denorm The token's weight\n    * @param priceFeedAddress The token's Chainlink price feed\n    */\n    function bindMMM(address token, uint256 balance, uint80 denorm, address priceFeedAddress)\n    external\n    {\n        _require(!_records[token].bound, Err.IS_BOUND);\n\n        _require(_tokens.length < Const.MAX_BOUND_TOKENS, Err.MAX_TOKENS);\n\n        _records[token] = Record(\n            {\n                bound: true,\n                index: uint8(_tokens.length),\n                decimals: 0,\n                denorm: 0,    // balance and denorm will be validated\n                balance: 0   // and set by `rebind`\n            }\n        );\n        _tokens.push(token);\n        _rebindMMM(token, balance, denorm, priceFeedAddress);\n    }\n\n    /**\n    * @notice Replace a binded token's balance, weight and price feed's address\n    * @param token The token's address\n    * @param balance The token's balance\n    * @param denorm The token's weight\n    * @param priceFeedAddress The token's Chainlink price feed\n    */\n    function rebindMMM(address token, uint256 balance, uint80 denorm, address priceFeedAddress)\n    external\n    {\n        _require(_records[token].bound, Err.NOT_BOUND);\n\n        _rebindMMM(token, balance, denorm, priceFeedAddress);\n    }\n\n    function _rebindMMM(address token, uint256 balance, uint80 denorm, address priceFeedAddress)\n    internal \n    _logs_\n    _lock_\n    _whenNotPaused_\n    {\n        _require(msg.sender == _controller, Err.NOT_CONTROLLER);\n        _require(!_finalized, Err.IS_FINALIZED);\n        _require(_pendingController == address(0), Err.PENDING_NEW_CONTROLLER);\n\n        _require(denorm >= Const.MIN_WEIGHT, Err.MIN_WEIGHT);\n        _require(denorm <= Const.MAX_WEIGHT, Err.MAX_WEIGHT);\n        _require(balance >= Const.MIN_BALANCE, Err.MIN_BALANCE);\n\n        // Adjust the denorm and totalWeight\n        uint80 oldWeight = _records[token].denorm;\n        if (denorm > oldWeight) {\n            _totalWeight = _totalWeight + (denorm - oldWeight);\n            _require(_totalWeight <= Const.MAX_TOTAL_WEIGHT, Err.MAX_TOTAL_WEIGHT);\n        } else if (denorm < oldWeight) {\n            _totalWeight = (_totalWeight - oldWeight) + denorm;\n        }\n        _records[token].denorm = denorm;\n\n        // Adjust the balance record and actual token balance\n        uint256 oldBalance = _records[token].balance;\n        _records[token].balance = balance;\n        if (balance > oldBalance) {\n            _pullUnderlying(token, msg.sender, balance - oldBalance);\n        } else if (balance < oldBalance) {\n            // In this case liquidity is being withdrawn, so charge EXIT_FEE\n            uint256 tokenBalanceWithdrawn = oldBalance - balance;\n            uint256 tokenExitFee = Num.mul(tokenBalanceWithdrawn, Const.EXIT_FEE);\n            _pushUnderlying(token, msg.sender, tokenBalanceWithdrawn - tokenExitFee);\n            _pushUnderlying(token, _factory, tokenExitFee);\n        }\n\n        (\n            uint256 price,\n            uint8 decimals,\n            string memory description\n        ) = ChainlinkUtils.getTokenLatestPrice(priceFeedAddress);\n\n        _records[token].decimals = decimals + _tryGetTokenDecimals(token);\n\n        // Updating oracle state\n        _oraclesInitialState[token] = Struct.OracleState(\n            {\n                oracle: priceFeedAddress,\n                price: price // set right below\n            }\n        );\n\n        emit LOG_NEW_ORACLE_STATE(\n            token,\n            priceFeedAddress,\n            price,\n            decimals,\n            description\n        );\n    }\n\n    /**\n    * @notice Unbind a token from the pool\n    * @dev The function will return the token's balance back to the controller\n    * @param token The token's address\n    */\n    function unbindMMM(address token)\n    external\n    _logs_\n    _lock_\n    {\n\n        _require(msg.sender == _controller, Err.NOT_CONTROLLER);\n        _require(_records[token].bound, Err.NOT_BOUND);\n        _require(!_finalized, Err.IS_FINALIZED);\n\n        uint256 tokenBalance = _records[token].balance;\n        uint256 tokenExitFee = Num.mul(tokenBalance, Const.EXIT_FEE);\n\n        _totalWeight = _totalWeight - _records[token].denorm;\n\n        // Swap the token-to-unbind with the last token,\n        // then delete the last token\n        uint8 index = _records[token].index;\n        uint256 last = _tokens.length - 1;\n        _tokens[index] = _tokens[last];\n        _records[_tokens[index]].index = index;\n        _tokens.pop();\n        delete _records[token];\n        delete _oraclesInitialState[token];\n\n        _pushUnderlying(token, msg.sender, tokenBalance - tokenExitFee);\n        _pushUnderlying(token, _factory, tokenExitFee);\n\n    }\n\n    /**\n    * @notice Returns the spot price without fees of a token pair\n    * @return spotPrice The spot price of tokenOut in terms of tokenIn\n    */\n    function getSpotPriceSansFee(address tokenIn, address tokenOut)\n    external view\n    _viewlock_\n    returns (uint256 spotPrice)\n    {\n        _require(_records[tokenIn].bound && _records[tokenOut].bound, Err.NOT_BOUND);\n        // The weights are corrected by the price change of each token\n        Struct.TokenGlobal memory tokenGlobalIn = getTokenLatestInfo(tokenIn);\n        Struct.TokenGlobal memory tokenGlobalOut = getTokenLatestInfo(tokenOut);\n        return spotPrice = Math.calcSpotPrice(\n            tokenGlobalIn.info.balance,\n            tokenGlobalIn.info.weight,\n            tokenGlobalOut.info.balance,\n            tokenGlobalOut.info.weight,\n            0\n        );\n    }\n\n    /**\n    * @notice Swap two tokens given the exact amount of token in\n    * @param tokenIn The address of the input token\n    * @param tokenAmountIn The exact amount of tokenIn to be swapped\n    * @param tokenOut The address of the received token\n    * @param minAmountOut The minimum accepted amount of tokenOut to be received\n    * @param maxPrice The maximum spot price accepted before the swap\n    * @return tokenAmountOut The token amount out received\n    * @return spotPriceAfter The spot price of tokenOut in terms of tokenIn after the swap\n    */\n    function swapExactAmountInMMM(\n        address tokenIn,\n        uint256 tokenAmountIn,\n        address tokenOut,\n        uint256 minAmountOut,\n        uint256 maxPrice\n    )\n    external\n    _logs_\n    _lock_\n    _whenNotPaused_\n    returns (uint256 tokenAmountOut, uint256 spotPriceAfter)\n    {\n        (Struct.SwapResult memory swapResult, Struct.PriceResult memory priceResult) = _getAmountOutGivenInMMM(\n            tokenIn,\n            tokenAmountIn,\n            tokenOut,\n            minAmountOut,\n            maxPrice\n        );\n\n        _records[tokenIn].balance += tokenAmountIn;\n        _records[tokenOut].balance -= swapResult.amount;\n\n        emit LOG_SWAP(\n            msg.sender, tokenIn, tokenOut, tokenAmountIn,\n            swapResult.amount, swapResult.spread, swapResult.taxBaseIn,\n            priceResult.priceIn, priceResult.priceOut\n        );\n\n        _pullUnderlying(tokenIn, msg.sender, tokenAmountIn);\n        _pushUnderlying(tokenOut, msg.sender, swapResult.amount);\n\n        return (tokenAmountOut = swapResult.amount, spotPriceAfter = priceResult.spotPriceAfter);\n    }\n\n    /**\n    * @notice Computes the amount of tokenOut received when swapping a fixed amount of tokenIn\n    * @param tokenIn The address of the input token\n    * @param tokenAmountIn The fixed amount of tokenIn to be swapped\n    * @param tokenOut The address of the received token\n    * @param minAmountOut The minimum amount of tokenOut that can be received\n    * @param maxPrice The maximum spot price accepted before the swap\n    * @return swapResult The swap result (amount out, spread and tax base in)\n    * @return priceResult The price result (spot price before & after the swap, latest oracle price in & out)\n    */\n    function getAmountOutGivenInMMM(\n        address tokenIn,\n        uint256 tokenAmountIn,\n        address tokenOut,\n        uint256 minAmountOut,\n        uint256 maxPrice\n    )\n    external view\n    _viewlock_\n    _whenNotPaused_\n    returns (Struct.SwapResult memory swapResult, Struct.PriceResult memory priceResult)\n    {\n        return _getAmountOutGivenInMMM(\n            tokenIn,\n            tokenAmountIn,\n            tokenOut,\n            minAmountOut,\n            maxPrice\n        );\n    }\n\n    function _getAmountOutGivenInMMM(\n        address tokenIn,\n        uint256 tokenAmountIn,\n        address tokenOut,\n        uint256 minAmountOut,\n        uint256 maxPrice\n    )\n    internal view\n    returns (Struct.SwapResult memory swapResult, Struct.PriceResult memory priceResult)\n    {\n\n        _require(_records[tokenIn].bound && _records[tokenOut].bound, Err.NOT_BOUND);\n        _require(_publicSwap, Err.SWAP_NOT_PUBLIC);\n\n        _require(tokenAmountIn <= Num.mul(_records[tokenIn].balance, Const.MAX_IN_RATIO), Err.MAX_IN_RATIO);\n\n        Struct.TokenGlobal memory tokenGlobalIn = getTokenLatestInfo(tokenIn);\n        Struct.TokenGlobal memory tokenGlobalOut = getTokenLatestInfo(tokenOut);\n\n        priceResult.spotPriceBefore = Math.calcSpotPrice(\n            tokenGlobalIn.info.balance,\n            tokenGlobalIn.info.weight,\n            tokenGlobalOut.info.balance,\n            tokenGlobalOut.info.weight,\n            _swapFee\n        );\n\n        _require(priceResult.spotPriceBefore <= maxPrice, Err.BAD_LIMIT_PRICE);\n\n        swapResult = _getAmountOutGivenInMMMWithTimestamp(\n            tokenGlobalIn,\n            tokenGlobalOut,\n            tokenAmountIn,\n            block.timestamp\n        );\n        _require(swapResult.amount >= minAmountOut, Err.LIMIT_OUT);\n\n        priceResult.spotPriceAfter = Math.calcSpotPrice(\n            tokenGlobalIn.info.balance + tokenAmountIn,\n            tokenGlobalIn.info.weight,\n            tokenGlobalOut.info.balance - swapResult.amount,\n            tokenGlobalOut.info.weight,\n            _swapFee\n        );\n\n        _require(priceResult.spotPriceAfter >= priceResult.spotPriceBefore, Err.MATH_APPROX);\n        uint256 maxAmount = Num.divTruncated(tokenAmountIn, priceResult.spotPriceBefore);\n        if (swapResult.amount > maxAmount) {\n            swapResult.amount = maxAmount;\n        }\n        _require(\n            Num.div(\n                Num.mul(priceResult.spotPriceAfter, Const.ONE - _swapFee),\n                ChainlinkUtils.getTokenRelativePrice(\n                    tokenGlobalIn.latestRound.price,\n                    tokenGlobalIn.info.decimals,\n                    tokenGlobalOut.latestRound.price,\n                    tokenGlobalOut.info.decimals\n                )\n            ) <= _maxPriceUnpegRatio,\n            Err.MAX_PRICE_UNPEG_RATIO\n        );\n\n        priceResult.priceIn = tokenGlobalIn.latestRound.price;\n        priceResult.priceOut = tokenGlobalOut.latestRound.price;\n\n        return (swapResult, priceResult);\n    }\n\n    function _getAmountOutGivenInMMMWithTimestamp(\n        Struct.TokenGlobal memory tokenGlobalIn,\n        Struct.TokenGlobal memory tokenGlobalOut,\n        uint256 tokenAmountIn,\n        uint256 timestamp\n    )\n    internal view\n    returns (Struct.SwapResult memory)\n    {\n\n        Struct.SwapParameters memory swapParameters = Struct.SwapParameters(\n            tokenAmountIn,\n            _swapFee,\n            Const.FALLBACK_SPREAD\n        );\n        Struct.GBMParameters memory gbmParameters = Struct.GBMParameters(\n            _dynamicCoverageFeesZ,\n            _dynamicCoverageFeesHorizon\n        );\n        Struct.HistoricalPricesParameters memory hpParameters = Struct.HistoricalPricesParameters(\n            _priceStatisticsLookbackInRound,\n            _priceStatisticsLookbackInSec,\n            timestamp,\n            _priceStatisticsLookbackStepInRound\n        );\n\n        return Math.calcOutGivenInMMM(\n            tokenGlobalIn,\n            tokenGlobalOut,\n            ChainlinkUtils.getTokenRelativePrice(\n                tokenGlobalIn.latestRound.price,\n                tokenGlobalIn.info.decimals,\n                tokenGlobalOut.latestRound.price,\n                tokenGlobalOut.info.decimals\n            ),\n            swapParameters,\n            gbmParameters,\n            hpParameters\n        );\n\n    }\n\n    /**\n    * @notice Swap two tokens given the exact amount of token out\n    * @param tokenIn The address of the input token\n    * @param maxAmountIn The maximum amount of tokenIn that can be swapped\n    * @param tokenOut The address of the received token\n    * @param tokenAmountOut The exact amount of tokenOut to be received\n    * @param maxPrice The maximum spot price accepted before the swap\n    * @return tokenAmountIn The amount of tokenIn added to the pool\n    * @return spotPriceAfter The spot price of token out in terms of token in after the swap\n    */\n    function swapExactAmountOutMMM(\n        address tokenIn,\n        uint256 maxAmountIn,\n        address tokenOut,\n        uint256 tokenAmountOut,\n        uint256 maxPrice\n    )\n    external\n    _logs_\n    _lock_\n    _whenNotPaused_\n    returns (uint256 tokenAmountIn, uint256 spotPriceAfter)\n    {\n\n        (Struct.SwapResult memory swapResult, Struct.PriceResult memory priceResult) = _getAmountInGivenOutMMM(\n            tokenIn,\n            maxAmountIn,\n            tokenOut,\n            tokenAmountOut,\n            maxPrice\n        );\n\n        _records[tokenIn].balance += swapResult.amount;\n        _records[tokenOut].balance -= tokenAmountOut;\n\n        emit LOG_SWAP(\n            msg.sender, tokenIn, tokenOut, swapResult.amount,\n            tokenAmountOut, swapResult.spread, swapResult.taxBaseIn,\n            priceResult.priceIn, priceResult.priceOut\n        );\n\n        _pullUnderlying(tokenIn, msg.sender, swapResult.amount);\n        _pushUnderlying(tokenOut, msg.sender, tokenAmountOut);\n\n        return (tokenAmountIn = swapResult.amount, spotPriceAfter = priceResult.spotPriceAfter);\n    }\n\n    /**\n    * @notice Computes the amount of tokenIn needed to receive a fixed amount of tokenOut\n    * @param tokenIn The address of the input token\n    * @param maxAmountIn The maximum amount of tokenIn that can be swapped\n    * @param tokenOut The address of the received token\n    * @param tokenAmountOut The fixed accepted amount of tokenOut to be received\n    * @param maxPrice The maximum spot price accepted before the swap\n    * @return swapResult The swap result (amount in, spread and tax base in)\n    * @return priceResult The price result (spot price before & after the swap, latest oracle price in & out)\n    */\n    function getAmountInGivenOutMMM(\n        address tokenIn,\n        uint256 maxAmountIn,\n        address tokenOut,\n        uint256 tokenAmountOut,\n        uint256 maxPrice\n    )\n    external view\n    _viewlock_\n    _whenNotPaused_\n    returns (Struct.SwapResult memory swapResult, Struct.PriceResult memory priceResult)\n    {\n        return _getAmountInGivenOutMMM(\n            tokenIn,\n            maxAmountIn,\n            tokenOut,\n            tokenAmountOut,\n            maxPrice\n        );\n    }\n\n    function _getAmountInGivenOutMMM(\n        address tokenIn,\n        uint256 maxAmountIn,\n        address tokenOut,\n        uint256 tokenAmountOut,\n        uint256 maxPrice\n    )\n    internal view\n    returns (Struct.SwapResult memory swapResult, Struct.PriceResult memory priceResult)\n    {\n\n        _require(_records[tokenIn].bound && _records[tokenOut].bound, Err.NOT_BOUND);\n        _require(_publicSwap, Err.SWAP_NOT_PUBLIC);\n\n        _require(tokenAmountOut <= Num.mul(_records[tokenOut].balance, Const.MAX_OUT_RATIO), Err.MAX_OUT_RATIO);\n\n        Struct.TokenGlobal memory tokenGlobalIn = getTokenLatestInfo(tokenIn);\n        Struct.TokenGlobal memory tokenGlobalOut = getTokenLatestInfo(tokenOut);\n\n        priceResult.spotPriceBefore = Math.calcSpotPrice(\n            tokenGlobalIn.info.balance,\n            tokenGlobalIn.info.weight,\n            tokenGlobalOut.info.balance,\n            tokenGlobalOut.info.weight,\n            _swapFee\n        );\n\n        _require(priceResult.spotPriceBefore <= maxPrice, Err.BAD_LIMIT_PRICE);\n\n        swapResult = _getAmountInGivenOutMMMWithTimestamp(\n            tokenGlobalIn,\n            tokenGlobalOut,\n            tokenAmountOut,\n            block.timestamp\n        );\n\n        _require(swapResult.amount <= maxAmountIn, Err.LIMIT_IN);\n\n        priceResult.spotPriceAfter = Math.calcSpotPrice(\n            tokenGlobalIn.info.balance + swapResult.amount,\n            tokenGlobalIn.info.weight,\n            tokenGlobalOut.info.balance - tokenAmountOut,\n            tokenGlobalOut.info.weight,\n            _swapFee\n        );\n\n        _require(priceResult.spotPriceAfter >= priceResult.spotPriceBefore, Err.MATH_APPROX);\n        uint256 minAmount = Num.mul(priceResult.spotPriceBefore, tokenAmountOut) + 1;\n        if (swapResult.amount < minAmount) {\n            swapResult.amount = minAmount;\n        }\n        _require(\n            Num.div(\n                Num.mul(priceResult.spotPriceAfter, Const.ONE - _swapFee),\n                ChainlinkUtils.getTokenRelativePrice(\n                    tokenGlobalIn.latestRound.price,\n                    tokenGlobalIn.info.decimals,\n                    tokenGlobalOut.latestRound.price,\n                    tokenGlobalOut.info.decimals\n                )\n            ) <= _maxPriceUnpegRatio,\n            Err.MAX_PRICE_UNPEG_RATIO\n        );\n\n        priceResult.priceIn = tokenGlobalIn.latestRound.price;\n        priceResult.priceOut = tokenGlobalOut.latestRound.price;\n\n        return (swapResult, priceResult);\n    }\n\n    function _getAmountInGivenOutMMMWithTimestamp(\n        Struct.TokenGlobal memory tokenGlobalIn,\n        Struct.TokenGlobal memory tokenGlobalOut,\n        uint256 tokenAmountOut,\n        uint256 timestamp\n    )\n    internal view\n    returns (Struct.SwapResult memory)\n    {\n        \n        Struct.SwapParameters memory swapParameters = Struct.SwapParameters(\n            tokenAmountOut,\n            _swapFee,\n            Const.FALLBACK_SPREAD\n        );\n        Struct.GBMParameters memory gbmParameters = Struct.GBMParameters(\n            _dynamicCoverageFeesZ,\n            _dynamicCoverageFeesHorizon\n        );\n        Struct.HistoricalPricesParameters memory hpParameters = Struct.HistoricalPricesParameters(\n            _priceStatisticsLookbackInRound,\n            _priceStatisticsLookbackInSec,\n            timestamp,\n            _priceStatisticsLookbackStepInRound\n        );\n\n        return Math.calcInGivenOutMMM(\n            tokenGlobalIn,\n            tokenGlobalOut,\n            ChainlinkUtils.getTokenRelativePrice(\n                        tokenGlobalIn.latestRound.price,\n                        tokenGlobalIn.info.decimals,\n                        tokenGlobalOut.latestRound.price,\n                        tokenGlobalOut.info.decimals\n            ),\n            swapParameters,\n            gbmParameters,\n            hpParameters\n        );\n\n    }\n\n    /**\n    * @notice Compute the token historical performance since pool's inception\n    * @param initialPrice The token's initial price\n    * @param latestPrice The token's latest price\n    * @return tokenGlobal The token historical performance since pool's inception\n    */\n    function _getTokenPerformance(uint256 initialPrice, uint256 latestPrice)\n    internal pure returns (uint256) {\n        return Num.div(\n            latestPrice,\n            initialPrice\n        );\n    }\n\n    /**\n    * @notice Retrieves the given token's latest oracle data.\n    * @dev We get:\n    * - latest round Id\n    * - latest price\n    * - latest round timestamp\n    * - token historical performance since pool's inception\n    * @param token The token's address\n    * @return tokenGlobal The latest tokenIn oracle data\n    */\n    function getTokenLatestInfo(address token)\n    internal view returns (Struct.TokenGlobal memory tokenGlobal) {\n        Record memory record = _records[token];\n        Struct.OracleState memory initialOracleState = _oraclesInitialState[token];\n        Struct.LatestRound memory latestRound = ChainlinkUtils.getLatestRound(initialOracleState.oracle);\n        Struct.TokenRecord memory info = Struct.TokenRecord(\n            record.decimals,\n            record.balance,\n            // we adjust the token's target weight (in value) based on its appreciation since the inception of the pool.\n            Num.mul(\n                record.denorm,\n                _getTokenPerformance(\n                    initialOracleState.price,\n                    latestRound.price\n                )\n            )\n        );\n        return (\n            tokenGlobal = Struct.TokenGlobal(\n                info,\n                latestRound\n            )\n        );\n    }\n\n    /**\n    * @notice Returns all the binded token's global information (token record + latest round info)  \n    * @param swappedToken the address of the swapped token \n    * @return swappedTokenInfo swapped token's global information\n    * @return remainingTokensInfo remaining tokens' global information\n    */\n    function _getAllTokensInfo(address swappedToken)\n    private view returns (\n        Struct.TokenGlobal memory swappedTokenInfo,\n        Struct.TokenGlobal[] memory remainingTokensInfo\n    ) {\n\n        swappedTokenInfo = getTokenLatestInfo(swappedToken);\n\n        uint nRemainingTokens = _tokens.length - 1;\n        remainingTokensInfo = new Struct.TokenGlobal[](nRemainingTokens);\n        \n        // Extracting the remaining un-traded tokens' info\n        uint count;\n        for (uint i; count < nRemainingTokens;) {\n            if (_tokens[i] != swappedToken) {\n                remainingTokensInfo[count] = getTokenLatestInfo(_tokens[i]);\n                unchecked{++count;}\n            }\n            unchecked{++i;}\n        }\n\n    }\n\n    /**\n    * @notice Check if the spot prices falls within the limits of the oracle price\n    * - spot prices of the remaining tokens must be < oraclePrice * _maxPriceUnpegRatio\n    * @dev tokenInInfo.info.balance should contain the balance after the trade\n    * - spot prices of the remaining tokens are computed in terms of tokenIn\n    * @param tokenInInfo swapped token's info\n    * @param remainingTokensInfo remaining tokens' info\n    */\n    function _checkJoinSwapPrices (\n        Struct.TokenGlobal memory tokenInInfo,\n        Struct.TokenGlobal[] memory remainingTokensInfo\n    ) internal view {\n        \n        uint256 spotPriceAfter;\n\n        for (uint256 i; i < remainingTokensInfo.length;)\n        {\n            spotPriceAfter = Math.calcSpotPrice(\n                tokenInInfo.info.balance,\n                tokenInInfo.info.weight,\n                remainingTokensInfo[i].info.balance,\n                remainingTokensInfo[i].info.weight,\n                0\n            );\n\n            _require(\n                Num.div(\n                    spotPriceAfter,\n                    ChainlinkUtils.getTokenRelativePrice(\n                        tokenInInfo.latestRound.price,\n                        tokenInInfo.info.decimals,\n                        remainingTokensInfo[i].latestRound.price,\n                        remainingTokensInfo[i].info.decimals\n                    )\n                ) <= _maxPriceUnpegRatio,\n                Err.MAX_PRICE_UNPEG_RATIO\n            );\n            unchecked{++i;}\n        }\n    }\n\n    /**\n    * @notice Check if the spot prices falls within the limits of the oracle price\n    * - spot price of tokenOut must be < oraclePrice * _maxPriceUnpegRatio\n    * @dev tokenOutInfo.info.balance should contain the balance after the trade\n    * - spot price of tokenOut is computed in terms of the remaining tokens independently\n    * @param tokenOutInfo swapped token's info\n    * @param remainingTokensInfo remaining tokens' info\n    */\n    function _checkExitSwapPrices (\n        Struct.TokenGlobal memory tokenOutInfo,\n        Struct.TokenGlobal[] memory remainingTokensInfo\n    ) internal view {\n        \n        uint256 spotPriceAfter;\n\n        for (uint256 i; i < remainingTokensInfo.length;)\n        {\n            spotPriceAfter = Math.calcSpotPrice(\n                remainingTokensInfo[i].info.balance,\n                remainingTokensInfo[i].info.weight,\n                tokenOutInfo.info.balance,\n                tokenOutInfo.info.weight,\n                0\n            );\n\n            _require(\n                Num.div(\n                    spotPriceAfter,\n                    ChainlinkUtils.getTokenRelativePrice(\n                        remainingTokensInfo[i].latestRound.price,\n                        remainingTokensInfo[i].info.decimals,\n                        tokenOutInfo.latestRound.price,\n                        tokenOutInfo.info.decimals\n                    )    \n                ) <= _maxPriceUnpegRatio,\n                Err.MAX_PRICE_UNPEG_RATIO\n            );\n            unchecked{++i;}\n        }\n    }\n\n    function _tryGetTokenDecimals(address token) internal view returns (uint8) {\n        try IDecimals(token).decimals() returns (uint8 d) {\n            return d;\n        } catch {}\n        return 0;\n    }\n\n}",
  "sourcePath": "/Users/davidbouba/dev/swaap-labs/RV-swaap-core-v1/contracts/Pool.sol",
  "compiler": {
    "name": "solc",
    "version": "0.8.12+commit.f00d7308.Emscripten.clang"
  },
  "schemaVersion": "3.4.7",
  "updatedAt": "2022-06-13T15:16:18.272Z",
  "devdoc": {
    "kind": "dev",
    "methods": {
      "bindMMM(address,uint256,uint80,address)": {
        "params": {
          "balance": "The token's balance",
          "denorm": "The token's weight",
          "priceFeedAddress": "The token's Chainlink price feed",
          "token": "The token's address"
        }
      },
      "exitPool(uint256,uint256[])": {
        "details": "The order of minAmount of each token must be the same as the _tokens' addresses stored in the pool",
        "params": {
          "minAmountsOut": "Minimum accepted token amount out",
          "poolAmountIn": "Amount of pool shares a LP wishes to liquidate for tokens"
        }
      },
      "exitswapPoolAmountInMMM(address,uint256,uint256)": {
        "details": "The remaining tokens designate the tokens whose balances do not change during the exitswap",
        "params": {
          "minAmountOut": "The minimum amount of token out that can be receied",
          "poolAmountIn": "The fixed amount of pool tokens in",
          "tokenOut": "The address of tokenOut"
        },
        "returns": {
          "tokenAmountOut": "The received token amount out"
        }
      },
      "getAmountInGivenOutMMM(address,uint256,address,uint256,uint256)": {
        "params": {
          "maxAmountIn": "The maximum amount of tokenIn that can be swapped",
          "maxPrice": "The maximum spot price accepted before the swap",
          "tokenAmountOut": "The fixed accepted amount of tokenOut to be received",
          "tokenIn": "The address of the input token",
          "tokenOut": "The address of the received token"
        },
        "returns": {
          "priceResult": "The price result (spot price before & after the swap, latest oracle price in & out)",
          "swapResult": "The swap result (amount in, spread and tax base in)"
        }
      },
      "getAmountOutGivenInMMM(address,uint256,address,uint256,uint256)": {
        "params": {
          "maxPrice": "The maximum spot price accepted before the swap",
          "minAmountOut": "The minimum amount of tokenOut that can be received",
          "tokenAmountIn": "The fixed amount of tokenIn to be swapped",
          "tokenIn": "The address of the input token",
          "tokenOut": "The address of the received token"
        },
        "returns": {
          "priceResult": "The price result (spot price before & after the swap, latest oracle price in & out)",
          "swapResult": "The swap result (amount out, spread and tax base in)"
        }
      },
      "getBalance(address)": {
        "details": "Returns the balance of a binded token"
      },
      "getController()": {
        "details": "Returns the current controller of the pool"
      },
      "getCoverageParameters()": {
        "details": "Returns the coverage parameters of the pool"
      },
      "getDenormalizedWeight(address)": {
        "details": "Returns the initial weight of a binded token The initial weight is the un-adjusted weight set by the controller at bind The adjusted weight is the corrected weight based on the token's price performance: adjusted_weight = initial_weight * current_price / initial_price"
      },
      "getExitPool(uint256)": {
        "params": {
          "poolAmountIn": "The amount of pool shares a LP wishes to liquidate for tokens"
        },
        "returns": {
          "tokenAmountsOut": "The token amounts received"
        }
      },
      "getJoinPool(address,uint256)": {
        "details": "The amountIn of the specified token as input may differ at the exit due to rounding discrepancies",
        "params": {
          "tokenAmountIn": "The approximate amount of tokenIn to be swapped",
          "tokenIn": "The address of tokenIn"
        },
        "returns": {
          "poolAmountOut": "The pool amount out received",
          "tokenAmountsIn": "The exact amounts of tokenIn needed"
        }
      },
      "getJoinswapExternAmountInMMM(address,uint256)": {
        "details": "The remaining tokens designate the tokens whose balances do not change during the joinswap",
        "params": {
          "tokenAmountIn": "The amount of tokenIn to be added to the pool",
          "tokenIn": "The address of tokenIn"
        },
        "returns": {
          "poolAmountOut": "The received pool token amount out"
        }
      },
      "getSpotPriceSansFee(address,address)": {
        "returns": {
          "spotPrice": "The spot price of tokenOut in terms of tokenIn"
        }
      },
      "getSwapFee()": {
        "details": "Returns the swap fee of the pool"
      },
      "getTokenOracleInitialPrice(address)": {
        "details": "Returns the token's price when it was binded to the pool"
      },
      "getTokenPriceOracle(address)": {
        "details": "Returns the oracle's address of a token"
      },
      "getTokens()": {
        "details": "Returns the binded tokens"
      },
      "gulp(address)": {
        "details": "Absorb any tokens that have been sent to this contract into the pool",
        "params": {
          "token": "The token's address"
        }
      },
      "isBound(address)": {
        "details": "Returns true if the token is binded to the pool"
      },
      "isFinalized()": {
        "details": "Returns true if a liquidity provider can join the pool A trader can swap on the pool if the pool is either finalized or isPublicSwap"
      },
      "isPublicSwap()": {
        "details": "Returns true if a trader can swap on the pool"
      },
      "joinPool(uint256,uint256[])": {
        "details": "The order of maxAmount of each token must be the same as the _tokens' addresses stored in the pool",
        "params": {
          "maxAmountsIn": "Maximum accepted token amount in",
          "poolAmountOut": "Amount of pool shares a LP wishes to receive"
        }
      },
      "joinswapExternAmountInMMM(address,uint256,uint256)": {
        "details": "The remaining tokens designate the tokens whose balances do not change during the joinswap",
        "params": {
          "minPoolAmountOut": "The minimum amount of pool tokens that can be received",
          "tokenAmountIn": "The amount of tokenIn to be added to the pool",
          "tokenIn": "The address of tokenIn"
        },
        "returns": {
          "poolAmountOut": "The received pool amount out"
        }
      },
      "rebindMMM(address,uint256,uint80,address)": {
        "params": {
          "balance": "The token's balance",
          "denorm": "The token's weight",
          "priceFeedAddress": "The token's Chainlink price feed",
          "token": "The token's address"
        }
      },
      "revokeFactoryControl()": {
        "details": "Factory control can only be revoked by the factory and not the pool controller"
      },
      "setControllerAndTransfer(address)": {
        "details": "It is recommended to use transferOwnership/acceptOwnership logic for safer transfers to avoid any faulty input This function is useful when creating pools using a proxy contract and transfer pool assets WARNING: Binded assets are also transferred to the new controller if the pool is not finalized"
      },
      "setPriceStatisticsLookbackStepInRound(uint8)": {
        "details": "This corresponds to the roundId lookback step when looking for historical prices"
      },
      "setPublicSwap(bool)": {
        "details": "Unfinalized pool enables exclusively the controller to add liquidity into the pool"
      },
      "swapExactAmountInMMM(address,uint256,address,uint256,uint256)": {
        "params": {
          "maxPrice": "The maximum spot price accepted before the swap",
          "minAmountOut": "The minimum accepted amount of tokenOut to be received",
          "tokenAmountIn": "The exact amount of tokenIn to be swapped",
          "tokenIn": "The address of the input token",
          "tokenOut": "The address of the received token"
        },
        "returns": {
          "spotPriceAfter": "The spot price of tokenOut in terms of tokenIn after the swap",
          "tokenAmountOut": "The token amount out received"
        }
      },
      "swapExactAmountOutMMM(address,uint256,address,uint256,uint256)": {
        "params": {
          "maxAmountIn": "The maximum amount of tokenIn that can be swapped",
          "maxPrice": "The maximum spot price accepted before the swap",
          "tokenAmountOut": "The exact amount of tokenOut to be received",
          "tokenIn": "The address of the input token",
          "tokenOut": "The address of the received token"
        },
        "returns": {
          "spotPriceAfter": "The spot price of token out in terms of token in after the swap",
          "tokenAmountIn": "The amount of tokenIn added to the pool"
        }
      },
      "totalSupply()": {
        "details": "Returns the amount of tokens in existence."
      },
      "transferOwnership(address)": {
        "details": "The function will revert if there are binded tokens in an un-finalized pool This prevents any accidental loss of funds for the current controller"
      },
      "unbindMMM(address)": {
        "details": "The function will return the token's balance back to the controller",
        "params": {
          "token": "The token's address"
        }
      }
    },
    "version": 1
  },
  "userdoc": {
    "events": {
      "LOG_EXIT(address,address,uint256)": {
        "notice": "Emitted when an LP withdraws one or multiple assets from the pool"
      },
      "LOG_JOIN(address,address,uint256)": {
        "notice": "Emitted when an LP joins the pool with 1 or multiple assets"
      },
      "LOG_NEW_CONTROLLER(address,address)": {
        "notice": "Emitted when a new controller is assigned to the pool"
      },
      "LOG_NEW_ORACLE_STATE(address,address,uint256,uint8,string)": {
        "notice": "Emitted when a token is binded/rebinded"
      },
      "LOG_SWAP(address,address,address,uint256,uint256,uint256,uint256,uint256,uint256)": {
        "notice": "Emitted after each swap"
      }
    },
    "kind": "user",
    "methods": {
      "acceptOwnership()": {
        "notice": "Allows a controller transfer to be completed by the recipient"
      },
      "bindMMM(address,uint256,uint80,address)": {
        "notice": "Bind a new token to the pool"
      },
      "decimals()": {
        "notice": "Returns token's decimals"
      },
      "decreaseApproval(address,uint256)": {
        "notice": "Decreases an address approval by the input amount"
      },
      "exitPool(uint256,uint256[])": {
        "notice": "Remove liquidity from a pool"
      },
      "exitswapPoolAmountInMMM(address,uint256,uint256)": {
        "notice": "Exit a pool with a single asset given the pool token amount in"
      },
      "finalize()": {
        "notice": "Enables publicswap and finalizes the pool's tokens, price feeds, initial shares, balances and weights"
      },
      "getAmountInGivenOutMMM(address,uint256,address,uint256,uint256)": {
        "notice": "Computes the amount of tokenIn needed to receive a fixed amount of tokenOut"
      },
      "getAmountOutGivenInMMM(address,uint256,address,uint256,uint256)": {
        "notice": "Computes the amount of tokenOut received when swapping a fixed amount of tokenIn"
      },
      "getExitPool(uint256)": {
        "notice": "Get the token amounts received for a given pool shares in"
      },
      "getJoinPool(address,uint256)": {
        "notice": "Get the token amounts in required and pool shares received when joining the pool given an amount of tokenIn"
      },
      "getJoinswapExternAmountInMMM(address,uint256)": {
        "notice": "Computes the amount of pool tokens received when joining a pool with a single asset of fixed amount in"
      },
      "getSpotPriceSansFee(address,address)": {
        "notice": "Returns the spot price without fees of a token pair"
      },
      "giveFactoryControl()": {
        "notice": "Gives back factory control over the pool parameters"
      },
      "increaseApproval(address,uint256)": {
        "notice": "Increases an address approval by the input amount"
      },
      "joinPool(uint256,uint256[])": {
        "notice": "Add liquidity to a pool and credit msg.sender"
      },
      "joinswapExternAmountInMMM(address,uint256,uint256)": {
        "notice": "Join a pool with a single asset with a fixed amount in"
      },
      "name()": {
        "notice": "Returns token's name"
      },
      "rebindMMM(address,uint256,uint80,address)": {
        "notice": "Replace a binded token's balance, weight and price feed's address"
      },
      "revokeFactoryControl()": {
        "notice": "Revokes factory control over pool parameters"
      },
      "setControllerAndTransfer(address)": {
        "notice": "Allows a controller to transfer ownership to a new address"
      },
      "setDynamicCoverageFeesHorizon(uint256)": {
        "notice": "Sets dynamic coverage fees horizon"
      },
      "setDynamicCoverageFeesZ(uint64)": {
        "notice": "Sets dynamic coverage fees Z"
      },
      "setMaxPriceUnpegRatio(uint256)": {
        "notice": "Sets price statistics maximum unpeg ratio"
      },
      "setPriceStatisticsLookbackInRound(uint8)": {
        "notice": "Sets price statistics maximum lookback in round"
      },
      "setPriceStatisticsLookbackInSec(uint256)": {
        "notice": "Sets price statistics maximum lookback in seconds"
      },
      "setPriceStatisticsLookbackStepInRound(uint8)": {
        "notice": "Sets price statistics lookback step in round"
      },
      "setPublicSwap(bool)": {
        "notice": "Enables public swaps on the pool but does not finalize the parameters"
      },
      "setSwapFee(uint256)": {
        "notice": "Sets swap fee"
      },
      "swapExactAmountInMMM(address,uint256,address,uint256,uint256)": {
        "notice": "Swap two tokens given the exact amount of token in"
      },
      "swapExactAmountOutMMM(address,uint256,address,uint256,uint256)": {
        "notice": "Swap two tokens given the exact amount of token out"
      },
      "symbol()": {
        "notice": "Returns token's symbol"
      },
      "transferOwnership(address)": {
        "notice": "Allows a controller to begin transferring ownership to a new address"
      },
      "unbindMMM(address)": {
        "notice": "Unbind a token from the pool"
      }
    },
    "version": 1
  }
}