{
  "contractName": "PoolToken",
  "abi": [
    {
      "anonymous": false,
      "inputs": [
        {
          "indexed": true,
          "internalType": "address",
          "name": "owner",
          "type": "address"
        },
        {
          "indexed": true,
          "internalType": "address",
          "name": "spender",
          "type": "address"
        },
        {
          "indexed": false,
          "internalType": "uint256",
          "name": "value",
          "type": "uint256"
        }
      ],
      "name": "Approval",
      "type": "event"
    },
    {
      "anonymous": false,
      "inputs": [
        {
          "indexed": true,
          "internalType": "address",
          "name": "from",
          "type": "address"
        },
        {
          "indexed": true,
          "internalType": "address",
          "name": "to",
          "type": "address"
        },
        {
          "indexed": false,
          "internalType": "uint256",
          "name": "value",
          "type": "uint256"
        }
      ],
      "name": "Transfer",
      "type": "event"
    },
    {
      "inputs": [],
      "name": "name",
      "outputs": [
        {
          "internalType": "string",
          "name": "",
          "type": "string"
        }
      ],
      "stateMutability": "pure",
      "type": "function"
    },
    {
      "inputs": [],
      "name": "symbol",
      "outputs": [
        {
          "internalType": "string",
          "name": "",
          "type": "string"
        }
      ],
      "stateMutability": "pure",
      "type": "function"
    },
    {
      "inputs": [],
      "name": "decimals",
      "outputs": [
        {
          "internalType": "uint8",
          "name": "",
          "type": "uint8"
        }
      ],
      "stateMutability": "pure",
      "type": "function"
    },
    {
      "inputs": [
        {
          "internalType": "address",
          "name": "src",
          "type": "address"
        },
        {
          "internalType": "address",
          "name": "dst",
          "type": "address"
        }
      ],
      "name": "allowance",
      "outputs": [
        {
          "internalType": "uint256",
          "name": "",
          "type": "uint256"
        }
      ],
      "stateMutability": "view",
      "type": "function"
    },
    {
      "inputs": [
        {
          "internalType": "address",
          "name": "whom",
          "type": "address"
        }
      ],
      "name": "balanceOf",
      "outputs": [
        {
          "internalType": "uint256",
          "name": "",
          "type": "uint256"
        }
      ],
      "stateMutability": "view",
      "type": "function"
    },
    {
      "inputs": [],
      "name": "totalSupply",
      "outputs": [
        {
          "internalType": "uint256",
          "name": "",
          "type": "uint256"
        }
      ],
      "stateMutability": "view",
      "type": "function"
    },
    {
      "inputs": [
        {
          "internalType": "address",
          "name": "dst",
          "type": "address"
        },
        {
          "internalType": "uint256",
          "name": "amt",
          "type": "uint256"
        }
      ],
      "name": "approve",
      "outputs": [
        {
          "internalType": "bool",
          "name": "",
          "type": "bool"
        }
      ],
      "stateMutability": "nonpayable",
      "type": "function"
    },
    {
      "inputs": [
        {
          "internalType": "address",
          "name": "dst",
          "type": "address"
        },
        {
          "internalType": "uint256",
          "name": "amt",
          "type": "uint256"
        }
      ],
      "name": "increaseApproval",
      "outputs": [
        {
          "internalType": "bool",
          "name": "",
          "type": "bool"
        }
      ],
      "stateMutability": "nonpayable",
      "type": "function"
    },
    {
      "inputs": [
        {
          "internalType": "address",
          "name": "dst",
          "type": "address"
        },
        {
          "internalType": "uint256",
          "name": "amt",
          "type": "uint256"
        }
      ],
      "name": "decreaseApproval",
      "outputs": [
        {
          "internalType": "bool",
          "name": "",
          "type": "bool"
        }
      ],
      "stateMutability": "nonpayable",
      "type": "function"
    },
    {
      "inputs": [
        {
          "internalType": "address",
          "name": "dst",
          "type": "address"
        },
        {
          "internalType": "uint256",
          "name": "amt",
          "type": "uint256"
        }
      ],
      "name": "transfer",
      "outputs": [
        {
          "internalType": "bool",
          "name": "",
          "type": "bool"
        }
      ],
      "stateMutability": "nonpayable",
      "type": "function"
    },
    {
      "inputs": [
        {
          "internalType": "address",
          "name": "src",
          "type": "address"
        },
        {
          "internalType": "address",
          "name": "dst",
          "type": "address"
        },
        {
          "internalType": "uint256",
          "name": "amt",
          "type": "uint256"
        }
      ],
      "name": "transferFrom",
      "outputs": [
        {
          "internalType": "bool",
          "name": "",
          "type": "bool"
        }
      ],
      "stateMutability": "nonpayable",
      "type": "function"
    }
  ],
  "bytecode": "0x608060405234801561001057600080fd5b50610785806100206000396000f3fe608060405234801561001057600080fd5b50600436106100a95760003560e01c80636618846311610071578063661884631461014357806370a082311461015657806395d89b411461017f578063a9059cbb1461019e578063d73dd623146101b1578063dd62ed3e146101c457600080fd5b806306fdde03146100ae578063095ea7b3146100ec57806318160ddd1461010f57806323b872dd14610121578063313ce56714610134575b600080fd5b60408051808201909152601081526f29bbb0b0b8102837b7b6102a37b5b2b760811b60208201525b6040516100e391906105be565b60405180910390f35b6100ff6100fa36600461062f565b6101fd565b60405190151581526020016100e3565b6002545b6040519081526020016100e3565b6100ff61012f366004610659565b610257565b604051601281526020016100e3565b6100ff61015136600461062f565b610335565b610113610164366004610695565b6001600160a01b031660009081526020819052604090205490565b60408051808201909152600381526214d41560ea1b60208201526100d6565b6100ff6101ac36600461062f565b61040b565b6100ff6101bf36600461062f565b610421565b6101136101d23660046106b7565b6001600160a01b03918216600090815260016020908152604080832093909416825291909152205490565b3360008181526001602090815260408083206001600160a01b03871680855292528083208590555191929091600080516020610730833981519152906102469086815260200190565b60405180910390a350600192915050565b6000336001600160a01b0385161480159061029757506001600160a01b038416600090815260016020908152604080832033845290915290205460001914155b15610320576001600160a01b03841660009081526001602090815260408083203384529091529020546102ce838210156015610495565b6001600160a01b038581166000908152600160209081526040808320338085529083529281902087860390819055905190815292871692600080516020610730833981519152910160405180910390a3505b61032b8484846104a7565b5060019392505050565b3360009081526001602090815260408083206001600160a01b03861684529091528120548083111561038a573360009081526001602090815260408083206001600160a01b03881684529091528120556103b9565b6103948382610700565b3360009081526001602090815260408083206001600160a01b03891684529091529020555b3360008181526001602090815260408083206001600160a01b03891680855290835292819020549051908152919291600080516020610730833981519152910160405180910390a35060019392505050565b60006104183384846104a7565b50600192915050565b3360009081526001602090815260408083206001600160a01b0386168452909152812054610450908390610717565b3360008181526001602090815260408083206001600160a01b038916808552908352928190208590555193845290926000805160206107308339815191529101610246565b816104a3576104a381610575565b5050565b6104bd6001600160a01b03831615156023610495565b6001600160a01b0383166000908152602081905260409020546104e4828210156013610495565b6001600160a01b0380851660009081526020819052604080822085850390559185168152908120805484929061051b908490610717565b92505081905550826001600160a01b0316846001600160a01b03167fddf252ad1be2c89b69c2b068fc378daa952ba7f163c4a11628f55a4df523b3ef8460405161056791815260200190565b60405180910390a350505050565b6030600a820601600a820491506030600a8306018060081b82016753574141502300000160c01b91505062461bcd60e51b60005260206004526008602452806044525060646000fd5b600060208083528351808285015260005b818110156105eb578581018301518582016040015282016105cf565b818111156105fd576000604083870101525b50601f01601f1916929092016040019392505050565b80356001600160a01b038116811461062a57600080fd5b919050565b6000806040838503121561064257600080fd5b61064b83610613565b946020939093013593505050565b60008060006060848603121561066e57600080fd5b61067784610613565b925061068560208501610613565b9150604084013590509250925092565b6000602082840312156106a757600080fd5b6106b082610613565b9392505050565b600080604083850312156106ca57600080fd5b6106d383610613565b91506106e160208401610613565b90509250929050565b634e487b7160e01b600052601160045260246000fd5b600082821015610712576107126106ea565b500390565b6000821982111561072a5761072a6106ea565b50019056fe8c5be1e5ebec7d5bd14f71427d1e84f3dd0314c0f7b2291e5b200ac8c7c3b925a2646970667358221220dd3b7049b4a602e38d2f15470ec75a9d9d3031c8d07974f939268baf0792eac764736f6c634300080c0033",
  "immutableReferences": {},
  "source": "// SPDX-License-Identifier: GPL-3.0-or-later\n// This program is free software: you can redistribute it and/or modify\n// it under the terms of the GNU Affero General Public License as published by\n// the Free Software Foundation, either version 3 of the License, or any later version.\n\n// This program is distributed in the hope that it will be useful,\n// but WITHOUT ANY WARRANTY; without even the implied warranty of\n// MERCHANTABILITY or FITNESS FOR A PARTICULAR PURPOSE. See the\n// GNU Affero General Public License for more details.\n\n// You should have received a copy of the GNU Affero General Public License\n// along with this program. If not, see <http://www.gnu.org/licenses/>.\n\npragma solidity =0.8.12;\n\nimport \"./interfaces/IPoolHelpers/IPoolToken.sol\";\nimport \"./Errors.sol\";\n\n// Highly opinionated token implementation\n\ncontract PoolToken is IPoolToken {\n\n    mapping(address => uint256)                   internal _balance;\n    mapping(address => mapping(address=>uint256)) internal _allowance;\n    uint256 internal _totalSupply;\n\n    function _mint(uint256 amt) internal {\n        _balance[address(this)] = _balance[address(this)] + amt;\n        _totalSupply = _totalSupply + amt;\n        emit Transfer(address(0), address(this), amt);\n    }\n\n    function _burn(uint256 amt) internal {\n        _balance[address(this)] = _balance[address(this)] - amt;\n        _totalSupply = _totalSupply - amt;\n        emit Transfer(address(this), address(0), amt);\n    }\n\n    function _move(address src, address dst, uint256 amt) internal {\n        _require(dst != address(0), Err.NULL_ADDRESS);\n        \n        uint256 fromBalance = _balance[src];\n        _require(fromBalance >= amt, Err.INSUFFICIENT_BALANCE);\n        unchecked {\n            _balance[src] = fromBalance - amt;\n        }\n        _balance[dst] += amt;\n\n        emit Transfer(src, dst, amt);\n    }\n\n    function _push(address to, uint256 amt) internal {\n        _move(address(this), to, amt);\n    }\n\n    function _pull(address from, uint256 amt) internal {\n        _move(from, address(this), amt);\n    }\n\n    string constant private _name     = \"Swaap Pool Token\";\n    string constant private _symbol   = \"SPT\";\n    uint8  constant private _decimals = 18;\n\n    function name() external pure returns (string memory) {\n        return _name;\n    }\n\n    function symbol() external pure returns (string memory) {\n        return _symbol;\n    }\n\n    function decimals() external pure returns(uint8) {\n        return _decimals;\n    }\n\n\n    function allowance(address src, address dst) external view returns (uint256) {\n        return _allowance[src][dst];\n    }\n\n    function balanceOf(address whom) external view returns (uint256) {\n        return _balance[whom];\n    }\n\n    function totalSupply() public view returns (uint256) {\n        return _totalSupply;\n    }\n\n    function approve(address dst, uint256 amt) external returns (bool) {\n        _allowance[msg.sender][dst] = amt;\n        emit Approval(msg.sender, dst, amt);\n        return true;\n    }\n\n    function increaseApproval(address dst, uint256 amt) external returns (bool) {\n        _allowance[msg.sender][dst] = _allowance[msg.sender][dst] + amt;\n        emit Approval(msg.sender, dst, _allowance[msg.sender][dst]);\n        return true;\n    }\n\n    function decreaseApproval(address dst, uint256 amt) external returns (bool) {\n        uint256 oldValue = _allowance[msg.sender][dst];\n        if (amt > oldValue) {\n            _allowance[msg.sender][dst] = 0;\n        } else {\n            _allowance[msg.sender][dst] = oldValue - amt;\n        }\n        emit Approval(msg.sender, dst, _allowance[msg.sender][dst]);\n        return true;\n    }\n\n    function transfer(address dst, uint256 amt) external returns (bool) {\n        _move(msg.sender, dst, amt);\n        return true;\n    }\n\n    function transferFrom(address src, address dst, uint256 amt) external returns (bool) {\n        if (msg.sender != src && _allowance[src][msg.sender] != type(uint256).max) {\n            uint256 currentAllowance = _allowance[src][msg.sender];\n            _require(currentAllowance >= amt, Err.INSUFFICIENT_ALLOWANCE);\n            unchecked {\n                _allowance[src][msg.sender] = currentAllowance - amt;\n            }\n            emit Approval(msg.sender, dst, _allowance[src][msg.sender]);\n        }\n        _move(src, dst, amt);\n        return true;\n    }\n}",
  "sourcePath": "/Users/davidbouba/dev/swaap-labs/RV-swaap-core-v1/contracts/PoolToken.sol",
  "compiler": {
    "name": "solc",
    "version": "0.8.12+commit.f00d7308.Emscripten.clang"
  },
  "schemaVersion": "3.4.7",
  "updatedAt": "2022-06-13T14:20:46.683Z",
  "devdoc": {
    "kind": "dev",
    "methods": {
      "totalSupply()": {
        "details": "Returns the amount of tokens in existence."
      }
    },
    "version": 1
  },
  "userdoc": {
    "kind": "user",
    "methods": {
      "decimals()": {
        "notice": "Returns token's decimals"
      },
      "decreaseApproval(address,uint256)": {
        "notice": "Decreases an address approval by the input amount"
      },
      "increaseApproval(address,uint256)": {
        "notice": "Increases an address approval by the input amount"
      },
      "name()": {
        "notice": "Returns token's name"
      },
      "symbol()": {
        "notice": "Returns token's symbol"
      }
    },
    "version": 1
  }
}